:020000040800F2
:1000000058270020D9260008F1020008F302000852
:10001000F7020008FB020008FF02000800000000D1
:1000200000000000000000000000000003030008C2
:10003000050300080000000007030008090300088A
:10004000F3260008F3260008F3260008F32600082C
:10005000F3260008F3260008F3260008F32600081C
:10006000F3260008F3260008F3260008F32600080C
:10007000F3260008F3260008F3260008F3260008FC
:10008000F3260008F3260008F3260008F3260008EC
:10009000F3260008F3260008F3260008F3260008DC
:1000A000F3260008F3260008F3260008F3260008CC
:1000B000F3260008F326000805070008F3260008C9
:1000C000F3260008F3260008F3260008F3260008AC
:1000D000F3260008E7250008AD190008F3260008FC
:1000E000F3260008F3260008F3260008F32600088C
:1000F000F3260008F3260008F3260008F32600087C
:10010000F3260008F3260008F3260008F32600086B
:10011000F3260008F3260008F32600080D1A00084D
:10012000F3260008F3260008F3260008F32600084B
:1001300000F002F800F05FF80AA090E8000C82449A
:100140008344AAF10107DA4501D100F054F8AFF277
:10015000090EBAE80F0013F0010F18BFFB1A43F0A5
:1001600001031847B4480000D44800000A444FF087
:10017000000C10F8013B13F0070408BF10F8014B06
:100180001D1108BF10F8015B641E05D010F8016B4B
:10019000641E01F8016BF9D113F0080F1EBF10F8AF
:1001A000014BAD1C0C1B09D16D1E58BF01F801CBD2
:1001B000FAD505E014F8016B01F8016B6D1EF9D555
:1001C0009142D6D37047000000230024002500266A
:1001D000103A28BF78C1FBD8520728BF30C148BFAA
:1001E0000B607047642904F0B782002070471FB588
:1001F0001FBD10B510BD04F0DFFB1146FFF7F7FF80
:1002000000F020F804F0FDFB03B4FFF7F2FF03BC9D
:1002100002F08EF910B502F01BF902F083F94721C4
:1002200040F2E73000F042FA01F015FB4FF4E13004
:1002300002F08DF900F05AF900F0F0F91EA004F078
:100240004BFA10BDFFF7E6FF34E02148007848B1D3
:1002500000201F49087001F095FF1E480068401CEF
:100260001C4908601C48007810B100201A49087029
:100270001A48007820B100201849087001F042F9AE
:100280001748007810B1002015490870154800780B
:1002900020B100201349087000F059FB1248007883
:1002A00010B10020104908701048007810B10020EB
:1002B0000E490870C9E7000053797374656D2069B1
:1002C0006E696E7420737563657373210A00000094
:1002D0001E000020340000201F000020200000200D
:1002E0002100002022000020230000202400002004
:1002F000704700BFFEE700BFFEE700BFFEE700BF9C
:10030000FEE7704770477047704700000CB500204B
:10031000019000906C48006840F480306A490860A1
:1003200000BF6948006800F4003000900198401C4C
:100330000190009818B90198B0F5A06FF1D162480A
:10034000006800F4003010B10120009001E00020AE
:1003500000900098012843D15C48006840F01000EC
:100360005A4908600846006820F003000860084603
:10037000006840F0020008605348406852494860F5
:100380000846406848600846406840F4806048601D
:100390000846406820F47C1048600846406840F4F5
:1003A000E81048600846006840F08070086000BFB0
:1003B0004548006800F000700028F9D042484068C5
:1003C00020F00300404948600846406840F00200C1
:1003D000486000BF3C48406800F00C000828F9D194
:1003E0000CBD10B5FFF792FF10BD10B53648006880
:1003F00040F001003449086008464068344908402C
:100400003149486008460068324908402E49086072
:100410000846006820F4802008600846406820F400
:10042000FE0048604FF41F008860FFF7DAFF4FF0CE
:1004300000602949086010BD10B50021002000228D
:10044000214B5B6803F00C0121B1042906D0082977
:1004500028D107E0214B224C236027E01F4B204C82
:10046000236023E0184B5B6803F47010164B5B6845
:1004700003F48032022303EB904022B9194B43432B
:10048000174C23600DE0104B5B6803F4003323B17D
:10049000144B4343124C236003E0104B4343104C76
:1004A000236003E00D4B0E4C236000BF00BF064BE2
:1004B0005B68C3F303130C4CE15C094B1B68CB4036
:1004C000074C236010BD00000010024000200240D5
:1004D0000000FFF8FFFFF6FE08ED00E000127A00D2
:1004E0000800002000093D000C00002008B5012193
:1004F0005C2002F09BFC0120ADF8000010208DF87C
:10050000030003208DF8020069463C4802F0D2F94E
:100510000220ADF8000010208DF8030003208DF8B4
:1005200002006946364802F0C5F94AF22500ADF8E6
:10053000000010208DF8030003208DF802006946AA
:10054000304802F0B7F942F6D420ADF80000102090
:100550008DF8030003208DF8020069462A4802F056
:10056000A9F90121254802F054FA0221244802F099
:1005700050FA4AF22501234802F04BFA42F6D42100
:10058000214802F046FA08BD20480078401C1F4967
:100590000870084600780B2809DA01201C49086019
:1005A00000201C49C1F89C011B4908600FE0174856
:1005B0000078142803DD00201449087007E00020AB
:1005C000134908601349C1F89C011349086070473A
:1005D00000200F49086001200E49C1F89C0100204D
:1005E0000D49086070470020094908600949C1F8B1
:1005F0009C01012008490860704700000008014084
:10060000000C014000100140001801401C000020B7
:10061000A4012342000023428481214208B5012124
:100620007C2002F003FC4FF4A240ADF8000048200B
:100630008DF803006946184802F03CF945F2506015
:10064000ADF8000048208DF803006946134802F019
:1006500031F94FF4AA50ADF8000048208DF803009E
:1006600069460F4802F026F945F2AA50ADF800009D
:1006700048208DF8030069460A4802F01BF945F24C
:100680000240ADF8000048208DF803006946064896
:1006900002F010F908BD000000080140000C014004
:1006A0000010014000140140001801407FB50546CC
:1006B0000C460121042002F0C6FBADF80850ADF84D
:1006C00004400020ADF80A00ADF8060001A9754805
:1006D00002F0E8FE01221146724803F05AFA1E2089
:1006E0008DF8000000208DF8010001208DF8020037
:1006F0008DF80300684602F014F80121694803F000
:100700002DFA7FBD10B50121664803F0F0FC0028EA
:1007100052D00121634803F0FBFC63480088401C71
:10072000614908800120614908705F4800880A21FA
:1007300090FBF1F201FB120010B901205C49087036
:1007400059480088052190FBF1F201FB120010B915
:1007500001205849087054480088142190FBF1F298
:1007600001FB120010B90120534908704E4800885F
:10077000642190FBF1F201FB120010B901204F49F6
:100780000870494800884FF4FA7190FBF1F201FBC0
:10079000120010B901204A490870434800884FF4FC
:1007A0007A7190FBF1F201FB120028B90120454952
:1007B000087000203C49088010BD30B589B005465E
:1007C0000C460121022002F03EFB0121112002F023
:1007D0002DFB01213C4802F03EF94FF47070ADF85A
:1007E000200018208DF8230003208DF8220008A98E
:1007F000364802F05FF8ADF81850ADF8144000200C
:10080000ADF81A00ADF8160005A9314802F04AFE0D
:100810007020ADF804000120ADF806000020ADF80E
:100820000A00ADF80C0001A9294802F078FE01A9E0
:10083000274802F0B6FE01A9254802F0FFFE01A9F3
:10084000234802F046FF0121214803F093F90821D3
:100850001F4803F0B3FA08211D4803F0B8FA082135
:100860001B4803F0C1FA0821194803F0C6FA012118
:10087000174803F073FA0121154803F06FF90021BE
:10088000134803F003FC0021114803F001FC002190
:100890000F4803F0FFFB00210D4803F0FDFB09B0FA
:1008A00030BD000000080040260000201E0000208F
:1008B000200000201F000020210000202200002036
:1008C0002300002024000020000C1A00001001402A
:1008D0000004004010B5F7480078002836D0F548ED
:1008E000007808281BD2DFE800F01A04080C101466
:1008F00018190120F049086012E00120EE49086053
:100900000EE00120EC4948600AE00120EA49486015
:1009100006E00120E849886002E001E000E000BF55
:1009200000BFFFF731FE0020E4490870E449087079
:10093000E44908600120E04988610020E24908702C
:10094000E24908600021E2A003F0C6FE10BD10B528
:10095000FFF7C0FFE4480068006838B9E248406823
:10096000006818B10020E14948600EE0DE480068E8
:10097000006838B1DC484068006818B90120DB49DC
:10098000486002E00220D9494860D7488068006882
:1009900038B9D548C068006818B10020D3498860CC
:1009A0000EE0D1488068006838B1CF48C068006860
:1009B00018B90120CD49886002E00220CB49886047
:1009C000C9480069006838B9C7484069006818B16B
:1009D0000020C649C8600EE0C3480069006838B10D
:1009E000C1484069006818B90120C049C86002E0E8
:1009F0000220BE49C860BC488069006838B9BA485E
:100A0000C069006818B10020B84908610EE0B64816
:100A10008069006838B1B448C069006818B901201D
:100A2000B249086102E00220B0490861AE48006B9B
:100A30000068AD49496B0968084310B101209E491F
:100A4000C860A948806B006810B101209A4908610C
:100A5000A548C06B006810B10120974948619A48C9
:100A6000007828B10020A2490860FFF7BCFD07E02C
:100A70009048007808B9FFF7ABFD01209C49086059
:100A800010BD9C48007830B1012805D002282ED036
:100A900003284FD13CE04DE08B48007810B99648D0
:100AA000007890B19048006B0068F8B90020924936
:100AB000087001208349086002208E4908708F4821
:100AC0000078401C8D49087010E07C48007868B1BF
:100AD00000207A49087001207A490860022085497F
:100AE000087086480078401C8449087022E07E48DF
:100AF000C06D006830B903207E49087000207F492E
:100B0000087004E07D480078401C7C49087011E0C2
:100B10007548C06D006838B100206A4908607549A1
:100B200008707649087004E074480078401C7349E6
:100B3000087000BF00BF71480078C82809DD002098
:100B40006E4908705F49086014206A4908700A20DD
:100B500070470020FCE764480068006840B96248BC
:100B60004068006820B1012056492C3908600EE029
:100B70005D480068006840B15B484068006820B983
:100B8000002050492C39086001E001207047002006
:100B9000FCE755488068006840B95348C068006861
:100BA00020B100204749243908600EE04E48806893
:100BB000006840B14C48C068006820B90120414934
:100BC0002439086001E0022070470020FCE74C480F
:100BD0000078062804D2DFE800F00304203FC8E2D2
:100BE000F4E04148C068006870B93F488068006818
:100BF00050B1012033492439086000204149087070
:100C000002203F49087007E002203F4908703D4834
:100C10000078401C3B490870D8E03348806B00687E
:100C2000C8B931488068006868B92F48C068006852
:100C300048B1002023492439086032490870032054
:100C40002F49087007E002202F4908702D480078CE
:100C5000401C2C490870B9E01B48007848B3224872
:100C6000C068006800287FD11F488068006800289D
:100C70007AD020480078002876D11B4800680068A8
:100C800070B919484068006850B101200D492C39ED
:100C9000086000201B49087004201949087063E0AF
:100CA00001201949087017480078401C1549087040
:100CB0005AE02BE02E0000202C13002031000020F1
:100CC0003B000020B40123422C000020DC12002055
:100CD000E6B094E7BCB825642D2DE58F91E7949F8D
:100CE000E69585E99A9C0A007C1300208C1200206E
:100CF000800122422F00002030000020460000200A
:100D0000320000204700002048000020F74800780B
:100D100008BBF748C0680068F0B9F548806800680B
:100D2000D0B1F3480068006868B9F14840680068CD
:100D300048B10120EF4908600020EF490870042005
:100D4000EE49087010E00120ED490870EA4800788B
:100D5000401CE949087007E00220E9490870E648AC
:100D60000078401CE449087030E0E14840680068C1
:100D700060B9DF480068006840B10020DD490860C4
:100D8000DD4908700520DD49087007E00120DC49D5
:100D90000870D9480078401CD749087016E0D4483C
:100DA0000068006848B9D2484068006828B100204F
:100DB000D1490870D149087007E00120D049087076
:100DC000CD480078401CCC49087000BF00BFCA481D
:100DD0000078642808DD0020C74908701420C7493E
:100DE0000870C748007870470020FCE7C0480069D9
:100DF000006840B9BE484069006820B10120BD4983
:100E0000103108600EE0BA480069006840B1B84887
:100E10004069006820B90020B6491031086001E03F
:100E2000032070470020FCE7B1488069006838B9AA
:100E3000AF48C069006818B10020B24908600DE0F1
:100E4000AB488069006838B1A948C069006818B922
:100E50000120AC49086001E0032070470020FCE756
:100E6000A9480078062804D2DFE800F003041F3DFB
:100E70009AB5C7E09E48C069006868B99C48806917
:100E8000006848B101209F49086000209F49087010
:100E900002209D49087007E004209D4908709B4886
:100EA0000078401C99490870ACE09148C06B00681C
:100EB000C0B98F488069006860B98D48C069006812
:100EC00040B100208F4908609049087003208E4986
:100ED000087007E004208E4908708C480078401C98
:100EE0008A4908708EE08B48007848B38048C06912
:100EF0000068002853D17E488069006800284ED0E1
:100F00007A48007800284AD179480069006870B9A9
:100F100077484069006850B1012076491031086077
:100F200000207A49087004207749087037E00320D0
:100F30007749087075480078401C744908702EE0A5
:100F40006A48007810BB6A48C0690068F8B9684808
:100F500080690068D8B166480069006870B9644863
:100F60004069006850B101206249103108600020DA
:100F70006649087004206449087010E00320644941
:100F8000087062480078401C6049087007E004203F
:100F90005F4908705D480078401C5C49087031E08A
:100FA00053484069006868B951480069006848B111
:100FB00000205049103108605449087005205249FA
:100FC000087007E003205249087050480078401C20
:100FD0004E49087016E046480069006848B9444820
:100FE0004069006828B100204849087046490870E7
:100FF00007E003204649087044480078401C4349F4
:10100000087000BF00BF41480078C82808DD0020F4
:101010003E49087014203C4908703D4800787047EC
:101020000020FCE7374808300068C0433A49C1F85F
:10103000BC0170473948007830B1012805D002283A
:101040001CD0032870D13CE06FE02948006A00689A
:1010500070B92748406A006850B101202949083119
:10106000086002202D49087000202D49087004E016
:101070002B480078401C2A49087056E01C48406AFA
:101080000068C0B91A48006A0068A0B12548007815
:10109000401C2449087008460078192810DD0020FB
:1010A0001F4908701F49087016490831086003205D
:1010B0001A49087004E01A480078401C1849087062
:1010C00033E00B48006A006848B90948406A006884
:1010D00028B10020114908701149087004E0104837
:1010E0000078401C0E4908701FE01DE02F00002012
:1010F0007C1300208801234247000020320000209A
:1011000048000020B401224239000020490000209C
:101110004A0000202C000020000022423A0000205B
:101120004B0000204C00002000BF00BFFE480078AC
:10113000C82807DD0020FC4908701420FB4908700E
:10114000052070470020FCE7F948006810B10D2029
:10115000F84A1070F848006830B9F848007818B9B3
:101160000120F74A106006E0F3480830006810B923
:101170000020F34A1060F0481030006810B90120D8
:10118000EF4A9060012107E0ED4850F8210008B1D6
:1011900008467047481CC1B21429F5DBE8480068CE
:1011A000E84A1278904208D0E448007828B9E44828
:1011B0000078E44A10700020EBE71420E9E710B54E
:1011C0005021E14803F004FB0020DB496031086056
:1011D000DE49C1F89001D84970310860DC490860E7
:1011E000DB4908310860DA4934390860D8490831E8
:1011F0000860D1498C310860D6490870D64908701A
:10120000D6490870D6490870D6490870D649087082
:10121000C6490870C7490870C9490860D3490870B1
:101220000120C649087010BDC448007801283DD18E
:10123000CF480078401CCE49087008460078322814
:1012400034DD0020BD490870C9490870C948C0682C
:10125000006890B9C7488068006870B1C5480068E8
:10126000006850B9C3484068006830B1B34800789E
:1012700040F00200B149087004E00020AF49087056
:1012800002207047BB48006A006850B9B948406AFC
:10129000006830B1A948007840F00800A7490870FC
:1012A00004E00020A54908700520EAE7A34800787B
:1012B00000F00A0000287BD0A7480078082878DAD8
:1012C000A6480078002873D1A24800780028FAD1F7
:1012D000A148007801286ED1A748007820B10128E4
:1012E0000CD0022853D12CE00120934960310860D2
:1012F0009649C1F89801A049087049E09D480068E6
:101300000068C0B19B4840680068A0B9994800696E
:10131000006880B197484069006860B9002097492B
:1013200008708549603108608849C1F89801022039
:101330009149087004E091480078401C8F4908707A
:1013400026E08C4800680068D8B98A484068006880
:10135000B8B188480069006898B986484069006853
:1013600078B10020854908708349087001207C49C4
:1013700008707A49087078480078401C76490870EF
:1013800004E07E480078401C7C49087000E000BF03
:1013900000BF7A480078642820DD00207649087074
:1013A000664908706C490870744908700D2068E738
:1013B00014E00EE0FFE700206F4908700120684943
:1013C00008706649087064480078401C62490870DB
:1013D00004E00020594908705F490870002050E778
:1013E00038B504460025002000900C2C71D2DFE8AF
:1013F00004F0060B17202936434D5761717B504886
:101400000078544908707AE000205D4908600222A3
:1014100069465C4800F0A1FF0020494948606EE041
:101420004648007808B9FFF7CAFE002044498860A2
:1014300065E001205449087048490870002040497F
:10144000C8605CE04748007828B94248007810B985
:101450000120444908700020394908614FE04248A2
:10146000007828B93B48007810B901203E4908703F
:1014700000203349486142E03648007810B9012025
:101480002A49087000202E49886138E031480078E8
:1014900010B9FFF77EFB054600202949C8612EE000
:1014A0002C48007810B9FFF7BFFC054600202449FE
:1014B000086224E02948007838B92648007820B925
:1014C0000120274908702549087000201C494862FE
:1014D00015E013E01F48007810B9FFF73CFB054604
:1014E0000020174988620AE01A48007810B9FFF70F
:1014F0007DFC054600201249C86200E000BF00BF25
:10150000284638BD70B500242048007820B11F4817
:101510000078401E1D490870FFF716FE0546FFF7CC
:101520005FFF0446A4B334E04B0000203A000020E3
:10153000288121422E000020280123423B00002068
:10154000DC1200204D0000202C130020000023425C
:10155000B40122422C0000203C0000202F0000207B
:101560003100002032000020390000202D00002032
:101570004F0000207C130020500000204E0000206F
:101580008C120020000007083000002038000020E6
:1015900001E0434804704248007800B170BDFFF795
:1015A00016FB04460CB13E480470FFF76AFA044685
:1015B0000CB13B480470FFF753FC04460CB13848AB
:1015C0000470FFF737FD04460CB135480470FFF78F
:1015D0002BFE04460CB132480470324800780028D3
:1015E0005BD03148007860BB3048007848BB304859
:1015F000007830BB01202E4908702E48007805285D
:101600001FDD0120294908702B480068401C2A4929
:1016100008600846008829490880274800884880D3
:101620000222274800F099FE02222649244800F0B1
:1016300083FE244800882349498800EB0140224961
:1016400008601948007840BB2048007828BB204833
:10165000007810BB16480078F8B114480078E0B95B
:1016600000201349087001200F49087011480078C4
:10167000062804DA0F480078401C0E4908700D480F
:101680000078012802DD012010490870094800781F
:10169000032802DD01200E49087000BF7EE700002C
:1016A0002E0000202C0000202F0000203A000020F7
:1016B000510000202D000020280000203E000020C6
:1016C00000000708420000208C1200203200002099
:1016D0003900002070B502460C46FF25FF2309E0C3
:1016E00012F8010B80EA0501FD48405C80EA030521
:1016F000FC48435C2000A4F10106F4B2F0D143EAB7
:10170000052070BD10B55021F74803F061F8F74887
:10171000F7490860F7484860F6480C388860F54893
:101720001438C860F4480861F34808384861F24842
:1017300010388861F0481838C861F0480862EF48EE
:1017400008384862EE488862ED480838C862EC48BC
:1017500018380863E94810384863E848183888633F
:10176000E5481C30C863E0480864001D4864001D5B
:101770008864001DC864001D0865001D4865001DC3
:101780008865DD481430C8655021DE4803F020F834
:10179000DC48DD490860001D4860001D8860001DB0
:1017A000C860001D0861001D4861001D8861001DA2
:1017B000C861001D0862001D4862001D8862001D8E
:1017C000C8620020D1494860012088600220C860BA
:1017D0000020086101204861022088610846CC4948
:1017E0000860001D4860001D8860001DC860001D65
:1017F000086110BD1FB50121202001F024FBC54860
:10180000008800EB80004FF6FF7101EA4000ADF860
:1018100008004FF4E150ADF804000020ADF80A00D4
:10182000ADF8060001A9BC4801F03CFE01221146BA
:10183000B94802F0AEF937208DF8000002208DF88B
:10184000010003208DF8020001208DF80300684696
:1018500000F067FF1FBD00B587B001214FF4827013
:1018600001F0E4FA0121480401F0EDFA0420ADF89A
:10187000180018208DF81B0003208DF81A0006A907
:10188000A64801F017F80421A44801F0C0F8082088
:10189000ADF8180048208DF81B0006A99F4801F0FC
:1018A00009F84FF40070ADF8180010208DF81B00F7
:1018B00006A99B4800F0FEFF4FF40071984801F024
:1018C000A8F8984801F016FB97480068029000209D
:1018D000ADF81400ADF80C00ADF80E000C20ADF81A
:1018E00012009248007820B1012806D002280ED1BB
:1018F00008E00020ADF8100009E04FF4C060ADF83A
:10190000100004E04FF48060ADF8100000BF00BF8D
:1019100002A9844801F031FB40F22551814801F0D1
:10192000D3FC012240F225517E4801F0BEFB262067
:101930008DF8040002208DF805008DF806000120C6
:101940008DF8070001A800F0ECFE0121754801F0B8
:10195000A0FB00207649087050216C4802F038FF47
:10196000FFF748FFFFF7CEFE07B000BD70B5044695
:101970000D4601206E4908700BE000BF80216948C8
:1019800001F062FC0028F9D014F8011B654801F051
:10199000EDFB2800A5F10101CDB2EED100BF402141
:1019A000604801F051FC0028F9D070BD70B540F2DC
:1019B00025515C4801F05EFC38B30721594801F01D
:1019C00043FC08B1012400E00024564801F0D2FB9A
:1019D000C5B25848008840F2FF71884215DAA4B9B0
:1019E000554854490988455452480088401C51497B
:1019F00008800121484802F08BFB0021464802F094
:101A000041FB0121444802F0A9F870BD10B5012145
:101A1000414802F06CFB60B101213F4802F078FBC5
:101A200000213D4802F09AF80120414908704349DD
:101A3000087010BD10B5404840793F49097940EA27
:101A400001203F4908803F48008809880844B0F5D4
:101A50007A7F7DDA002422E0082000EB440036493A
:101A6000085C384909882144294A52F82110088025
:101A7000344800882044114651F82000008807218E
:101A800001EB44012C4A515C40EA01202D490988B0
:101A900021441F4A52F821100880601CC4B2284813
:101AA00000888442D8DB24480078274908702248FF
:101AB000407848702048807888701F48C078C87087
:101AC0001D48007908711C484079487106211E485C
:101AD000FFF700FE1D490880084600781A4938E0E3
:101AE00063000020630100202C1300200401234226
:101AF0007C130020248121421C8122423001224299
:101B000038012142DC1200200C1500208C1200202C
:101B10009C1600205A0000200014004000080140DC
:101B200000200140004400405400002058000020E4
:101B3000620000205C0000208C0200205E0000207B
:101B400066020020640200208C0A00206802002047
:101B500009E0C871FE480088000A88710821FD4824
:101B6000FFF704FF0EE0FC480078FA490870FA48D5
:101B7000407840F080004870022088700321F548CA
:101B8000FFF7F4FE10BD10B5F3484079F349F44A6D
:101B9000128851F822100880F048F149098850F85D
:101BA00021000088EC49097940EA0120EB49EC4A20
:101BB000128851F822100880E7480078E54908703B
:101BC000E54840784870E44880788870E248C078FA
:101BD000C870E14800790871DF48407948710621F2
:101BE000DC48FFF777FDDA49088008460078D949D4
:101BF000C871D7480088000A88710821D548FFF7C6
:101C0000B5FE10BD10B5D4484079D349097940EAF2
:101C10000120D4490880D248008809880844B0F5DA
:101C20007A7F53DACC480078CA490870CA484078AD
:101C30004870CC4800784006000E8870002419E0F7
:101C4000C74800882044C54951F820000078042185
:101C500001EB4401BF4A5054C14800882044BF49A9
:101C600051F820000088000A032101EB4401505480
:101C7000601CC4B2BB4800888442E1DBB9480078EC
:101C8000032202EB4000C1B2B248FFF723FDB04986
:101C9000088008460178B3480088042202EB40001F
:101CA000AC4A1154AA480088010AAE4800880322B1
:101CB00002EB4000A74A1154AA480078052202EB23
:101CC0004000C1B2A348FFF751FE0EE0A2480078E1
:101CD000A0490870A048407840F080004870022079
:101CE000887003219B48FFF741FE10BD10B59A484C
:101CF00040799949097940EA01209A490880984831
:101D0000008809880844642858DA00242CE0E11788
:101D100004EB5171C910C91D8F4A515C01F00101DA
:101D200041B101208E49098821448F4A52F821107F
:101D3000086007E000208A49098821448A4A52F84D
:101D400021100860E11704EB5171C910C91D824AC6
:101D5000515C4A102046E11704EB5171C910C91DAE
:101D60007D4B5A54601C84B27E4800888442CEDB8E
:101D70007948007877490870774840784870764805
:101D8000807888707448C078C8707348007908718A
:101D900071484079487106216E48FFF79BFC6C49F9
:101DA0000880084600786B49C87169480088000AB5
:101DB000887108216748FFF7D9FD0EE06648007872
:101DC000644908706448407840F080004870022000
:101DD000887003215F48FFF7C9FD10BD10B560484A
:101DE000008864283CDA5C480079FF2803D05A4810
:101DF0004079FF2807D101205B49594A128851F8E0
:101E00002210086006E000205749554A128851F810
:101E100022100860504800784E4908704E484078BB
:101E200048704D48807888704B48C078C8704A48E0
:101E30000079087148484079487106214548FFF704
:101E400049FC43490880084600784249C871404827
:101E50000088000A887108213E48FFF787FD0EE0E0
:101E60003D4800783B4908703B48407840F080008E
:101E700048700220887003213648FFF777FD10BDB7
:101E800070B5354840793449097940EA012035492F
:101E900008803348008809880844642866DA2E4898
:101EA00000782C4908702C48407848702D490888E3
:101EB000C11700EB5171CD102A490888C11700EBFA
:101EC0005171C910A0EBC10109B1681C85B221494B
:101ED0008D70002471E0E11704EB5171C910A4EB7F
:101EE000C10141B900222046E11704EB5171C9102C
:101EF000C91C184B5A54E11704EB5171C910C91C85
:101F0000144A515C4A102046E11704EB5171C91084
:101F1000C91C104B5A54E11704EB5171C910C91C6C
:101F20001A46515C0E4A128822440F4B53F8222065
:101F30001268802303EAC2121143E21704EB5272C3
:101F4000D210D21C034B995406480088401E0EE064
:101F5000680200208C0A00208C0200209C160020C1
:101F600064020020660200200C15002040E0A04220
:101F700021D1DC490888C11700EB5171C910A0EBD1
:101F8000C101C1B1E21704EB5272D210D21C9A5CAB
:101F9000D44B1988CB1701EB5373DB10A1EBC303B0
:101FA000C3F108031A412046E31704EB5373DB1017
:101FB000DB1CCD4EF254601C84B2CA4800888442B7
:101FC00089DBE81CC1B2C848FFF784FBC749088019
:101FD00008460178C44A281D1154C4480088010AE3
:101FE000E81C1154681DC1B21046FFF7BFFC0EE09B
:101FF000BF480078BC490870BD48407840F0800078
:102000004870022088700321B748FFF7AFFC70BD0D
:1020100070B5B7484079B649097940EA0120B1491D
:102020000880B44800880988084464287EDAB048EB
:102030000078AD490870AE4840784870A9490888D2
:10204000C11700EB5171CD10A6490888C11700EBEC
:102050005171C910A0EBC10109B1681C85B2A24938
:102060008D70002461E0E11704EB5171C910A4EBFD
:10207000C10141B900222046E11704EB5171C9109A
:10208000C91C994B5A54E11704EB5171C910C91C72
:10209000954A515C4A102046E11704EB5171C91072
:1020A000C91C914B5A54E11704EB5171C910C91C5A
:1020B0001A46515C8F4A128822448F4B53F82220D3
:1020C0001268802303EAC2121143E21704EB527232
:1020D000D210D21C844B995482480088401EA042E2
:1020E00021D180490888C11700EB5171C910A0EBBC
:1020F000C101C1B1E21704EB5272D210D21C9A5C3A
:10210000784B1988CB1701EB5373DB10A1EBC3039A
:10211000C3F108031A412046E31704EB5373DB10A5
:10212000DB1C714EF254601C84B200E01AE06D4872
:102130000088844297DBE81CC1B26B48FFF7CAFAFB
:102140006A49088008460178674A281D1154674883
:102150000088010AE81C1154681DC1B21046FFF73F
:1021600005FC0EE0624800785F49087060484078DE
:1021700040F0800048700220887003215A48FFF721
:10218000F5FB70BD10B55D480078012870D1584846
:1021900000785B490978884269D155484078012820
:1021A00017D053484078022813D05148407803286C
:1021B0000FD04F48407805280BD04D48407806286E
:1021C00007D04B4840780F2803D049484078102862
:1021D00070D14748C0784649897840EA012045498E
:1021E000088008460088B0F57A7F52DA45480078C2
:1021F000801EC1B23E48FFF76DFA3C490880414855
:102200000088401E3A49095C3E480088801E384AD2
:10221000105C41EA002435480088A04229D11046CC
:102220004078052814D006DC01280ED0022809D0F9
:1022300003281CD112E0062813D00F280BD0102839
:1022400015D111E0FFF7E4FE11E0FFF719FE0EE0F3
:10225000FFF7C4FD0BE0FFF749FD08E0FFF7D2FCF4
:1022600005E0FFF790FC02E0FFF7E4FB00BF30E081
:1022700036E01F4800781C4908701D48407840F03F
:10228000800048700420887003211748FFF76EFB18
:102290001FE017480078144908701548407840F04E
:1022A000800048700220887003210F48FFF75EFB12
:1022B0000FE0FFE70E4800780B4908700C484078A3
:1022C00040F0800048700120887003210648FFF725
:1022D0004DFB0020094908700A4908800A49087026
:1022E00010BD0000660200208C0A00206802002059
:1022F0008C020020640200207C1300205E0000207D
:10230000590000205C00002062000020014608887F
:1023100070472DE9F04105460E461746002407E0B8
:1023200036F81410284602F05EF8AD1C601C84B22A
:10233000BC42F5DBBDE8F08130B503460C461546DE
:10234000002207E01846FFF7E1FF24F812009B1C6B
:10235000501C82B2AA42F5DB30BD2DE9F05F804609
:102360008A461746B8F1006F02D33748804501D33B
:10237000BDE8F09F01F0EFFEA8F1006B4FEADB250E
:10238000CBF34909C9F58064A74200DC3C464DE027
:102390004FF0006101EBC5204A142C49FFF7CCFF38
:1023A00000260BE009EB0600284931F810004FF633
:1023B000FF71884200D003E0701C86B2A642F1DBB8
:1023C00000BFA6421BDA4FF0006101EBC52001F00F
:1023D00007FF002608E03AF8160006EB09011B4A41
:1023E00022F81100701C86B2A642F4DB4FF00061A7
:1023F00001EBC5204A141549FFF78BFF04E0224684
:1024000051464046FFF785FFA74200D10FE06D1C03
:102410004FF000090AEB440AA044381B87B2B7F515
:10242000806F02DD4FF4806400E03C46B0E700BFFF
:1024300001F09DFE00BF9BE713B50446012201A9F0
:102440002046FFF78AFF1CBD000008082C1800205A
:1024500010B56FF0040000F0AEF92E4800682E4968
:10246000B0FBF1F02D4908700846007800EB400100
:10247000C1EBC0104FF6FF7101EAC0002849088087
:1024800010BD0146254A12784A434FF0E0235A61B5
:1024900000229A611A46126942F001021A6100BFD5
:1024A0004FF0E022106900F001021AB100F480320E
:1024B000002AF5D04FF0E022126922F001024FF01D
:1024C000E0231A6100229A6170470146144A12887B
:1024D0004A434FF0E0235A6100229A611A4612697A
:1024E00042F001021A6100BF4FF0E022106900F0D3
:1024F00001021AB100F48032002AF5D04FF0E02238
:10250000126922F001024FF0E0231A6100229A6161
:10251000704700000800002000127A006C020020C2
:102520006E02002010B54FF4A06000F0F5F810BD69
:10253000014600BF704700BF5C4A128802F04002AB
:10254000002AF9D0C2B2594B1B1D1A80704710B532
:1025500086B00446012144F2040000F067FC4FF409
:102560000070ADF8140003208DF8160018208DF8C7
:10257000170005A94E4800F09DF94FF48060ADF8B2
:10258000140004208DF8170005A9494800F092F9BD
:1025900025208DF8000003208DF801008DF8020041
:1025A00001208DF80300684600F0BBF8019400207C
:1025B000ADF80800ADF80A00ADF80C00ADF8100059
:1025C0000C20ADF80E0001A9384800F0D6FC01221D
:1025D00040F22551354800F068FD0121334800F0F4
:1025E00058FD06B010BD10B540F225512F4800F03F
:1025F00041FE10B32D4800F0BDFDC4B22D48008847
:1026000000F40040C8B92B48008800F4804060B155
:102610000A2C03D000202749088020E025480088A4
:1026200040F400402349088019E00D2C06D12148D0
:10263000008840F480401F49088010E01D48008851
:10264000C0F30D001C490C541A480088401C19495D
:10265000088008460088C72801DD0020088010BDDA
:1026600010B51448008802281ED1002011490880A6
:1026700012A1114802F0D4F818B90220114988714A
:1026800012E011A10C4802F0CBF818B904200D4952
:10269000887109E00EA1084802F0C2F818B90120BB
:1026A0000849887100E010BD00BFFCE70038014018
:1026B00000080140740200202C2000204053746167
:1026C00072740000000000204053746F700000001E
:1026D00040456E64000000000948804709480047F3
:1026E000FEE7FEE7FEE7FEE7FEE7FEE7FEE7FEE7C2
:1026F000FEE7FEE704480549054A064B704700001F
:10270000EB03000831010008582100205827002061
:10271000582300205823002031490143314A1160D9
:10272000704770B5002100230F22C47804B32D4CEC
:10273000246804F4E064C4F5E064210AC1F10403F0
:10274000CA40447804FA03F1847814402143090113
:10275000254C0678A155047804F01F050124AC40EF
:1027600005786D11AD0005F1E025C5F8004109E0DF
:10277000047804F01F050124AC401C4D0678761146
:1027800045F8264070BD1A4A0A400243154B1B1FEC
:102790001A60704739B1134A121D12680243114B77
:1027A0001B1D1A6006E00F4A121D126882430D4B72
:1027B0001B1D1A607047042808D14FF0E0210969F9
:1027C00041F004014FF0E022116107E04FF0E021F9
:1027D000096921F004014FF0E02211617047000007
:1027E0000000FA050CED00E000E400E080E100E00C
:1027F00080FFFF1F10B50446CC48844208D1012158
:10280000042000F02DFB0021042000F029FB46E00D
:10281000C748844208D10121082000F021FB002193
:10282000082000F01DFB3AE0C248844208D1012193
:10283000102000F015FB0021102000F011FB2EE00D
:10284000BD48844208D10121202000F009FB00216D
:10285000202000F005FB22E0B848844208D1012185
:10286000402000F0FDFA0021402000F0F9FA16E0C7
:10287000B348844208D10121802000F0F1FA002100
:10288000802000F0EDFA0AE0AE48844207D1012131
:10289000801500F0E5FA0021A01500F0E1FA10BD66
:1028A00010B50121084600F0DBFA0021012000F0FC
:1028B000D7FA10BD2DE9F041024600250026002080
:1028C00000230024002791F803C00CF00F0591F8B5
:1028D00003C00CF0100CBCF1000F03D091F802C043
:1028E0004CEA050591F800C0BCF1000F31D0146826
:1028F00000202BE04FF0010C0CFA00F3B1F800C0FF
:102900000CEA03069E4220D183004FF00F0C0CFA14
:1029100003F7BC4305FA03FC4CEA040491F803C036
:10292000BCF1280F06D14FF0010C0CFA00FCC2F8E4
:1029300014C00AE091F803C0BCF1480F05D14FF074
:10294000010C0CFA00FCC2F810C0401C0828D1D3BE
:102950001460B1F800C0BCF1FF0F34DD54680020F2
:102960002EE000F1080C4FF0010808FA0CF3B1F862
:1029700000C00CEA03069E4221D183004FF00F0CE9
:102980000CFA03F7BC4305FA03FC4CEA040491F883
:1029900003C0BCF1280F05D100F1080C08FA0CF8AF
:1029A000C2F8148091F803C0BCF1480F07D100F1C0
:1029B000080C4FF0010808FA0CF8C2F81080401C0F
:1029C0000828CED35460BDE8F0814FF6FF71018036
:1029D000022181700421C170704702460020936873
:1029E0000B400BB1012000E00020704701468868D1
:1029F00080B2704702460020D3680B400BB1012023
:102A000000E0002070470146C86880B2704701614D
:102A10007047416170470AB1016100E04161704750
:102A2000C16070474FF480320A43826181618261E4
:102A300082698269704702460020434B18684FF64E
:102A40008073184040EA021008433F4B18607047FB
:102A50003E49C8617047F0B50A46002300240021B2
:102A6000002500F00046B6F1004F02D1364EF16964
:102A700001E0354E7168C0F3034583B200F440169F
:102A8000B6F5401F08D121F070612F4E766826F010
:102A900070662D4F7E6012E000F48016B6F5801F40
:102AA00006D1032606FA05F4A14341F0706106E061
:102AB000460D360103FA06F6B14341F0706122B1CA
:102AC000460D360103FA06F6314300F00046B6F132
:102AD000004F02D11C4EF16101E01B4E7160F0BD50
:102AE00030B500228B071C0F0F2303FA04F2164B9C
:102AF00008338C1053F824309343134C08348D1052
:102B000044F8253023468C1053F824308C07240FCA
:102B100000FA04F423430C4C08348D1044F825309B
:102B200030BD0A49DC3108607047000000080140F0
:102B3000000C014000100140001401400018014049
:102B4000001C014000200140000001400000204224
:102B5000DF48006840F00100DD4908600846406831
:102B6000DC490840DA49486008460068DA4908400C
:102B7000D74908600846006820F4802008600846AD
:102B8000406820F4FE0048604FF41F0088607047E2
:102B9000CF49096821F48031CD4A11601146096896
:102BA00021F480211160B0F5803F03D0B0F5802F73
:102BB0000ED106E0C649096841F48031C44A11606B
:102BC00007E0C349096841F4A021C14A116000E04F
:102BD00000BF00BF704710B501460022002300204F
:102BE0004A11012A02D1BA4C236806E0022A02D116
:102BF000B74C236A01E0B64C636A01F01F0201245E
:102C000094401C400CB1012000E0002010BD38B5FC
:102C1000002000900024002500BF3120FFF7DBFFDB
:102C200005460098401C00900098B0F5A06F01D0B8
:102C3000002DF2D03120FFF7CEFF08B1012400E0D3
:102C40000024204638BD01460020A14A106820F02B
:102C5000F80040EAC10010607047A0490860704762
:102C6000024600209A4B586820F47C1042EA010387
:102C70001843974B5860704798490866704701465B
:102C80000020934A506820F00300084350607047CA
:102C90008F48406800F00C007047014600208C4AC5
:102CA000506820F0F0000843506070470146002053
:102CB000874A506820F4E06008435060704701463E
:102CC0000020834A506820F4605040EAC100506000
:102CD000704729B17E4A527A02437D4B5A7204E012
:102CE0007B4A527A82437A4B5A7270477B49D83179
:102CF0000860704701460020754A506820F4404043
:102D00000843506070470021714A20321170704AA8
:102D100082F82010012802D004280AD104E0012101
:102D20006B4A2032117005E00521694A203211708A
:102D300000E000BF00BF7047694908607047644900
:102D4000096A0143624A1162704765494439086063
:102D5000704730B500210022002400235C4D6D68CF
:102D600005F00C0121B1042905D0082923D105E083
:102D70005C4D056022E05B4D05601FE0544D6D68C1
:102D800005F47012524D6D6805F48034022505EB90
:102D900092421CB9544D554305600BE04C4D6D6893
:102DA00005F400351DB1504D5543056002E04D4D11
:102DB0005543056002E04B4D056000BF00BF444D28
:102DC0006D6805F0F0010909484D6B5C0568DD4050
:102DD00045603F4D6D6805F4E061090A434D6B5C49
:102DE0004568DD4085603A4D6D6805F46051C90A5B
:102DF0003E4D6B5C4568DD40C560354D6D6805F442
:102E00004041890B3A4D6B5CC568B5FBF3F5056134
:102E100030BD29B12E4A526902432D4B5A6104E05C
:102E20002B4A526982432A4B5A61704729B1284A7A
:102E300092690243264B9A6104E0254A92698243D3
:102E4000234B9A61704729B1214AD2690243204B32
:102E5000DA6104E01E4AD26982431D4BDA61704791
:102E600029B11B4AD2680243194BDA6004E0184AC0
:102E7000D2688243164BDA60704729B1144A12694E
:102E80000243134B1A6104E0114A12698243104B4A
:102E90001A61704712494039086070470F49C86489
:102EA00070470B49C87170470948406A40F080700C
:102EB00007494862704701460020054A92680A4067
:102EC0000AB1012000E00020704701498872704774
:102ED000001002400000FFF8FFFFF6FE0000424233
:102EE0008004424200127A0000093D007602002070
:102EF0008602002010B50446FB48844209D1012116
:102F00008803FFF7ADFF00214FF48040FFF7A8FFD3
:102F100032E0F648844209D101214804FFF7ADFFB1
:102F200000214FF40030FFF7A8FF25E0F04884426D
:102F300009D101218804FFF7A0FF00214FF4802070
:102F4000FFF79BFF18E0EB48844209D10121C80438
:102F5000FFF793FF00214FF40020FFF78EFF0BE0F7
:102F6000E548844208D101210805FFF786FF0021CA
:102F70004FF48010FFF781FF10BD2DE9F04786B0B8
:102F800005460E460024A24600BFA1460027B08990
:102F900000B100BF2F462C8A4CF6FF700440F08829
:102FA00004432C82AC894EF6F3100440B08831897A
:102FB0000843718908430443AC81AC8A4FF6FF4053
:102FC0000440B0890443AC8201A8FFF7C2FEC648A2
:102FD000874202D1DDF810A001E0DDF80CA0A8893D
:102FE00000F4004040B10AEBCA0000EB0A1031685F
:102FF0004900B0FBF1F807E00AEBCA0000EB0A1049
:1030000031688900B0FBF1F86420B8FBF0F00401EE
:103010002009642101FB1089A88900F4004040B117
:10302000322000EBC900B0FBF1F000F007000443D0
:1030300008E0322000EB09106421B0FBF1F000F051
:103040000F0004432C8106B0BDE8F0874FF4165101
:10305000016000218180C18001810C21418100211A
:103060008181704710B502460020108A4FF2FF039D
:1030700018400B884C8823438C882343CC882343F7
:103080001843108210BD0021018041808180C180E1
:10309000704721B1828942F40052828104E0828922
:1030A0004DF6FF731A4082817047F0B50346002445
:1030B00000260025002040F66A17B94200D100BF63
:1030C0001846C1F3421401F01F06012707FA06F55E
:1030D000012C01D10C3004E0022C01D1103000E0B1
:1030E00014301AB107682F43076002E00768AF4346
:1030F0000760F0BD1AB1838A0B43838202E0838AA2
:103100008B4383827047028A4FF6F0731A40028223
:10311000028A0A430282704782894FF2FF731A4083
:10312000828182890A438281704721B1828942F07B
:103130000202828104E082894FF6FD731A40828187
:103140007047028A4FF6DF731A400282028A0A43EE
:103150000282704721B1028A42F48042028204E076
:10316000028A4BF6FF731A4002827047C1F30802CD
:103170008280704701468888C0F3080070478189C3
:1031800041F0010181817047028BD2B20283028B30
:1031900042EA012202837047028B02F47F420283DB
:1031A000028B0A430283704721B1828A42F02002D7
:1031B000828204E0828A4FF6DF731A40828270476F
:1031C00021B1828A42F01002828204E0828A4FF6A4
:1031D000EF731A408282704721B1828A42F008025E
:1031E000828204E0828A4FF6F7731A408282704727
:1031F00021B1828942F40042828103E08289C2F3D4
:103200000E028281704721B1828A42F4006282827A
:1032100004E0828A4FF2FF731A4082827047828AEA
:103220004FF6FB731A408282828A0A438282704779
:1032300021B1828A42F00202828204E0828A4FF641
:10324000FD731A408282704702460020B1F5007F6C
:1032500000D100BF13880B400BB1012000E000201B
:10326000704701F40072B2F5007F00D100BFCA437D
:103270000280704770B5024600240023002500201C
:1032800040F66A16B14200D100BFC1F3421501F009
:103290001F03012606FA03F3012D02D1968933405C
:1032A00006E0022D02D1168A334001E0968A3340AF
:1032B0000C12012606FA04F41688344013B10CB13E
:1032C000012000E0002070BD10B50022002340F670
:1032D0006A14A14200D100BF0A1201249440A3B293
:1032E000DC43048010BD0000003801400044004071
:1032F00000480040004C00400050004010B504461B
:10330000FE48844208D10121C014FFF7A9FD002125
:10331000E014FFF7A5FDC4E0B4F1804F08D101210E
:103320000846FFF7AAFD00210120FFF7A6FDB8E03F
:10333000F348844208D101210220FFF79EFD0021BD
:103340000220FFF79AFDACE0EE48844208D101214B
:103350000420FFF792FD00210420FFF78EFDA0E07E
:10336000E948844208D101210820FFF786FD0021A9
:103370000820FFF782FD94E0E448844208D101214F
:103380001020FFF77AFD00211020FFF776FD88E07E
:10339000DF48844208D101212020FFF76EFD002183
:1033A0002020FFF76AFD7CE0DA48844208D1012141
:1033B0004014FFF755FD00216014FFF751FD70E048
:1033C000D548844209D10121C804FFF749FD0021F5
:1033D0004FF40020FFF744FD63E0D048844209D158
:1033E00001210805FFF73CFD00214FF48010FFF795
:1033F00037FD56E0CA48844209D101214805FFF74C
:103400002FFD00214FF40010FFF72AFD49E0C548C9
:10341000844208D101214020FFF72FFD00214020E8
:10342000FFF72BFD3DE0C048844208D101218020F8
:10343000FFF723FD00218020FFF71FFD31E0BB488F
:10344000844208D101218015FFF717FD0021A01546
:10345000FFF713FD25E0B648844209D10121080495
:10346000FFF7FEFC00214FF48030FFF7F9FC18E075
:10347000B048844209D101214804FFF7F1FC002142
:103480004FF40030FFF7ECFC0BE0AB48844208D16E
:1034900001218804FFF7E4FC00214FF48020FFF7AE
:1034A000DFFC10BD00220288944B98420ED0994B4D
:1034B00098420BD0B0F1804F08D0914B984205D084
:1034C000904B984202D0904B984204D14FF68F73A4
:1034D0001A404B881A438D4B984207D08C4B984228
:1034E00004D04FF6FF431A40CB881A4302808B88E2
:1034F00083850B880385814B98420BD0854B98427E
:1035000008D08B4B984205D08A4B984202D08A4B08
:10351000984201D10B7A038601238382704770B5EC
:10352000002400220023058C4FF6FE7635400584EA
:10353000028C8388048B4FF68F752C40B51E2C406F
:103540000D882C43751E2A400D892A434D882A4335
:103550006A4DA8420BD06F4DA84208D0744DA842C6
:1035600005D0744DA84202D0734DA84213D14FF636
:10357000F7752A404D892A434FF6FB752A408D88FE
:103580002A434FF6FF652B404FF6FF552B408D89A0
:103590002B43CD892B4383800483CD888586028489
:1035A00070BD70B5002400220023058C4FF6EF7625
:1035B00035400584028C8388048B48F6FF752C40C7
:1035C0004FF6FF452C400D884FF6FF7606EA05259D
:1035D0002C434FF6DF752A400D8906EA05152A436C
:1035E0004D8806EA05152A43444DA84202D0494DAC
:1035F000A8421DD14FF67F752A404D894FF6FF76C0
:1036000006EA05152A434FF6BF752A408D8806EA5B
:1036100005152A434FF6FF352B404FF2FF752B401F
:103620008D8906EA85052B43CD8906EA85052B435E
:1036300083800483CD880587028470BD70B5002423
:1036400000220023058C4FF6FF6635400584028C6E
:103650008388848B4FF68F752C404FF6FC752C4079
:103660000D882C434FF6FF552A400D894FF6FF7603
:1036700006EA05252A434D8806EA05252A431F4DFB
:10368000A84202D0234DA8421DD14FF2FF752A4017
:103690004D894FF6FF7606EA05252A434FF6FF359A
:1036A0002A408D8806EA05252A434EF6FF752B40F1
:1036B0004DF6FF752B408D8906EA05152B43CD8904
:1036C00006EA05152B4383808483CD888587028491
:1036D00070BD70B5002200230024058C4EF6FF76E5
:1036E00035400584038C8488828B48F6FF752A4018
:1036F0004FF6FF452A400D8820E00000002C0140D5
:103700000004004000080040000C00400010004091
:103710000014004000340140004C014000500140C2
:103720000054014000180040001C004000200040F0
:103730000040014000440140004801404FF6FF7640
:1037400006EA05252A434DF6FF752B400D8906EA4A
:1037500005352B434D8806EA05352B43FA4DA84223
:1037600002D0FA4DA84208D14BF6FF752C408D8946
:103770004FF6FF7606EA85152C4384808283CD8838
:10378000A0F84050038470BD828B4FF2FF331A4083
:103790008283828B4FF6FF7303EA01231A438283ED
:1037A0007047F0B50C461546002200210026078C14
:1037B0004EF6FF7C07EA0C070784828B018C4FF6DC
:1037C000FF7707EA043640F6FF473A404FF6FF77A7
:1037D00007EA05273A434FF6FF7707EA03373A43EC
:1037E000D94FB8420ED0D94FB8420BD0B0F1804F6C
:1037F00008D0D74FB84205D0D64FB84202D0D64FE6
:10380000B84206D14DF6FF77394046F48057394328
:1038100005E047F6FF57394044F480573943828327
:103820000184F0BD828B4FF6F3731A408283828B42
:103830000A4382837047F0B50C46154600220021EA
:103840000026078C4FF6FF6C07EA0C070784828B73
:10385000018C4FF6FF7707EA04264FF60C773A40C3
:103860004FF6FF7707EA03172F433A43B64FB842A4
:103870000ED0B64FB8420BD0B0F1804F08D0B44F45
:10388000B84205D0B34FB84202D0B34FB84206D1C8
:103890004FF6FF57394046F48077394305E04FF241
:1038A000FF57394044F48077394382830184F0BD67
:1038B000028B4FF2FF331A400283028B4FF6FF73E5
:1038C00003EA01231A4302837047F0B50C461546FC
:1038D000002200210026078C4FF6EF7C07EA0C0738
:1038E0000784028B018C4FF6FF7707EA041640F637
:1038F000FF473A404FF6FF7707EA03373A434FF660
:10390000FF7707EA05273A438F4FB8420ED08F4F13
:10391000B8420BD0B0F1804F08D08D4FB84205D0DF
:103920008C4FB84202D08C4FB84206D14FF6DF77A9
:10393000394046F01007394305E04FF65F773940CC
:1039400044F01007394302830184F0BD028B4FF627
:10395000F3731A400283028B0A4302837047F0B567
:103960000C46154600220021068C4FF6FE773E409D
:103970000684028B018C4FF60C7632407E1C06EAE0
:1039800003162E433243704EB0420ED06F4EB042FB
:103990000BD0B0F1804F08D06D4EB04205D06D4EC7
:1039A000B04202D06C4EB04206D14FF6FD763140A7
:1039B00044F00106314305E04FF6F576314044F01E
:1039C0000106314302830184F0BD70B505460C4603
:1039D0005D4885420ED05D4885420BD0B5F1804FE1
:1039E00008D05B48854205D05A48854202D05A48E3
:1039F000854200D100E000BF208850B92389A28809
:103A000061882846FFF7ABFFE1882846FFF79EFF55
:103A100025E0208804280AD12389A28861882846C5
:103A2000FFF753FFE1882846FFF742FF17E02088A1
:103A300008280AD12389A28861882846FFF7FBFE5F
:103A4000E1882846FFF7EEFE09E02389A288618815
:103A50002846FFF7A6FEE1882846FFF795FE70BDD1
:103A60002DE9F04105460C4600260127608808B97B
:103A7000022600E00026A088012801D1022700E0EC
:103A800001272088A0B92389A28861882846FFF7EA
:103A900066FFE1882846FFF759FF23893A463146F9
:103AA0002846FFF712FFE1882846FFF701FF13E0E1
:103AB0002389A28861882846FFF707FFE188284606
:103AC000FFF7F6FE23893A4631462846FFF747FFBF
:103AD000E1882846FFF73AFFBDE8F0810A884B8865
:103AE0001A438B881A43CB881A430B891A434B8994
:103AF0001A438B891A43A0F8442070474FF6FF7190
:103B0000818000210180C1804180017270470021C5
:103B1000018041808180C180018141818181C18199
:103B20007047002101804180012181800021C180F6
:103B3000018170470021018041808180C180018125
:103B40004181818170470000002C01400034014018
:103B50000004004000080040000C004021B1028831
:103B600042F00102028004E002884FF6FE731A4020
:103B70000280704731B1B0F8442042F40042A0F80E
:103B8000442005E0B0F84420C2F30E02A0F844201F
:103B900070471AB183890B43838102E083898B4389
:103BA000838170478182704741EA0203A0F8483060
:103BB00070471AB183890B43838102E083898B4369
:103BC0008381704701894FF6F87211400181704777
:103BD0000A46002101894FF68F7319401143018174
:103BE000704730B504460D4629462046FFF7F0FFE2
:103BF000208940F00700208130BD2DE9F0410446C6
:103C00000D4616461F46602D06D13B460122314621
:103C10002046FFF75AFE05E03B460122314620468A
:103C2000FFF79DFE29462046FFF7D2FF208940F08E
:103C300007002081BDE8F08130B50C4600210189E4
:103C4000C9B24FF6FF7505EA0325154325432943FD
:103C5000018130BD2DE9F04105460E4617469846D4
:103C6000002443463A4631462846FFF7E5FF2C89B3
:103C70004FF6F870044044F007044FF68F7004408C
:103C800044F070042C81BDE8F081F0B504460D4687
:103C900016461F463B46324629462046FFF7CCFFD4
:103CA000208940F480402081F0BD018582827047E8
:103CB0000A46002101884FF68F7319401143018095
:103CC0007047F0B50C4615461E4600210022002321
:103CD0000189028B038C4FF6F877394021434FF668
:103CE000FC473A4040F201173A434FF6DD773B403C
:103CF0004FF6FF7707EA06172F433B430181028304
:103D00000384F0BD0A460021018B4FF68F731940E2
:103D10001143018370470A460021018B48F6FF7367
:103D200019404FF6FF7303EA0223194301837047DA
:103D30000A460021818B4FF68F731940114381830E
:103D400070470A460021818B48F6FF7319404FF6F1
:103D5000FF7303EA022319438183704721B102886C
:103D600042F08002028004E002884FF67F731A401E
:103D70000280704721B1828842F00402828004E010
:103D800082884FF6FB731A408280704721B1828887
:103D900042F00802828004E082884FF6F7731A40EE
:103DA0008280704721B1828842F00102828004E063
:103DB00082884FF6FE731A40828070470A460021BF
:103DC000018B4FF6F77319401143018370470A4680
:103DD0000021018B4FF2FF7319404FF6FF7303EA86
:103DE00002231943018370470A460021818B4FF655
:103DF000F77319401143818370470A460021818B74
:103E00004FF2FF7319404FF6FF7303EA0223194381
:103E1000818370470A460021018B4FF6FB731940DE
:103E20001143018370470A460021018B4FF6FF338F
:103E300019404FF6FF7303EA0223194301837047C9
:103E40000A460021818B4FF6FB7319401143818391
:103E500070470A460021818B4FF6FF3319404FF619
:103E6000FF7303EA02231943818370470A46002146
:103E7000018B4FF67F7319401143018370470A4647
:103E80000021018BC1F30E014FF6FF7303EA0223F9
:103E90001943018370470A460021818B4FF67F73D7
:103EA00019401143818370470A460021818BC1F379
:103EB0000E014FF6FF7303EA022319438183704713
:103EC0000A460021018C4FF6FD731940114301840D
:103ED00070470A460021018C4FF6F77319401143D1
:103EE000018470470A460021018C4FF6DF731940A8
:103EF0004FF6FF7303EA02131943018470470A4621
:103F00000021018C4FF67F7319404FF6FF7303EACF
:103F100002131943018470470A460021018C4FF6B1
:103F2000FF5319404FF6FF7303EA0223194301843C
:103F300070470A460021018C4FF2FF7319404FF67B
:103F4000FF7303EA02231943018470470A460021E4
:103F5000018C4DF6FF7319404FF6FF7303EA0233ED
:103F600019430184704730B5002301248C40A3B26B
:103F7000048C9C430484048C02FA01F5ADB22C43FA
:103F8000048430BD30B5002304248C40A3B2048CDB
:103F90009C430484048C02FA01F5ADB22C430484E2
:103FA00030BD70B5034600200024184618300125A6
:103FB0008D40ACB21D8CA5431D8409B1082909D1DF
:103FC00000EB6100056825F0700505600568154384
:103FD00005600EE00D1FC5F34E052844056825F465
:103FE000E045056005684FF6FF7606EA0226354390
:103FF000056070BD21B1028842F00202028004E037
:1040000002884FF6FD731A400280704721B1028882
:1040100042F00402028004E002884FF6FB731A406B
:104020000280704721B1828842F08002828004E0E1
:1040300082884FF67F731A408280704702884FF65D
:10404000F7731A40028002880A4302807047828810
:104050004FF68F731A40828082880A4382807047AD
:1040600002894FF6F8731A40028102890A430281DD
:10407000704702894FF67F731A40028102890A4312
:1040800002817047818470478185704781867047BF
:104090000187704781877047A0F8401070470288F9
:1040A0004FF6FF431A40028002880A43028070479D
:1040B0000146888E70470146088F70470146888FF9
:1040C00070470146B1F8400070470146888C704740
:1040D0000146088D704702460020138A0B400BB141
:1040E000012000E000207047CA430282704730B5CB
:1040F0000246002000230024158A05EA0103958961
:1041000005EA010413B10CB1012000E0002030BD2C
:10411000CA4302827047000001460020FE4A106830
:1041200000F03800084310607047FB49096821F02F
:104130000801F94A1160114609680143116070478E
:10414000F549096821F01001F34A11601146096828
:10415000014311607047F148EF494860F0484860FA
:104160007047EE48EC494860ED4848607047EA48BF
:10417000006940F08000E84908617047E64800693E
:1041800040F08000E449086170470420E249C968B2
:1041900001F0010109B101200EE0DF49C96801F019
:1041A000040109B1022007E0DB49C96801F01001F0
:1041B00009B1032000E00420704700B50246042343
:1041C000FFF7E3FF034603E0FFF7DFFF0346521E5E
:1041D000012B01D1002AF7D102B90523184600BDF1
:1041E00030B5044604254FF43020FFF7E6FF0546BE
:1041F000042D17D1C848006940F00200C649086183
:1042000008464461006940F0400008614FF43020E6
:10421000FFF7D3FF0546C048006941F6FD7108402D
:10422000BD490861284630BD10B504244FF4302044
:10423000FFF7C3FF0446042C16D1B748006940F0CD
:104240000400B54908610846006940F04000086173
:104250004FF43020FFF7B1FF0446AF48006941F644
:10426000FB710840AC490861204610BD00B502460C
:104270000423FFF78AFF034603E0FFF786FF0346A8
:10428000521E012B01D1002AF7D102B9052318468D
:1042900000BD10B504244FF43020FFF7E7FF0446BB
:1042A000042C16D19C48006940F004009A4908612A
:1042B0000846006940F0400008614FF43020FFF7E5
:1042C000D5FF04469448006941F6FB7108409249C5
:1042D0000861204610BD00208F49C96901F0020124
:1042E00009B1012000E00020704730B5A525042465
:1042F000FFF7F1FF00B100254FF43020FFF75DFF1D
:104300000446042C3AD185488349886084488860F3
:104310000846006940F0200008610846006940F046
:10432000400008614FF43020FFF747FF0446042C9B
:104330001BD17948006941F6DF7108407649086170
:104340000846006940F01000086176480580E002E8
:10435000FFF733FF0446052C10D06F48006941F683
:10436000EF7108406C49086108E0052C06D06A48E6
:10437000006941F6EF71084067490861204630BD89
:1043800078B506460C46042500200090E802FFF7A9
:1043900014FF0546042D24D15F48006940F0010058
:1043A0005D4908613480E802FFF707FF0546042DE8
:1043B00010D1B01C0090200C00990880E802FFF793
:1043C000FCFE05465448006941F6FE71084052491A
:1043D000086106E05048006941F6FE7108404E4908
:1043E0000861284678BD70B504460D460426F002E3
:1043F000FFF7E3FE0646042E11D14748006940F05E
:104400000100454908612580F002FFF7D6FE064607
:104410004148006941F6FE7108403F490861304655
:1044200070BD70B505460E460424E002FFF7C5FED8
:104430000446042C17D139483749886038488860C9
:104440000846006940F0100008612E80E002FFF786
:10445000B4FE0446052C06D02F48006941F6EF71E2
:1044600008402D490861204670BD2DE9F0430446FF
:104470004FF6FF763746B046B1460425E443E6B230
:10448000C4F30727C4F307484FEA1469E802FFF7AB
:1044900094FE0546042D49D120481F4988602048D4
:1044A00088600846006940F010000861FF2E06D0C1
:1044B0001C4808300680E802FFF77FFE0546042D01
:1044C00008D1FF2F06D017480A300780E802FFF70F
:1044D00074FE0546042D0AD1B8F1FF0F07D011482C
:1044E0000C30A0F80080E802FFF767FE0546042DB7
:1044F0000AD1B9F1FF0F07D00A480E30A0F800909A
:10450000E802FFF75AFE0546052D0FD00248006964
:1045100041F6EF71084007E00020024023016745A3
:10452000AB89EFCD00F8FF1F664908612846BDE85A
:10453000F08330B5054604244FF43020FFF73DFEEC
:104540000446042C41D160485E4988605F48886019
:104550000846006940F0200008610846006940F004
:10456000400008614FF43020FFF727FE0446042C7A
:1045700022D15448006941F6DF7108405149086171
:104580000846006940F0100008611DB10020504944
:10459000088002E0A5204E4908804FF43020FFF744
:1045A0000CFE0446052C10D04648006941F6EF7118
:1045B00008404449086108E0052C06D041480069DC
:1045C00041F6DF7108403F490861204630BDF0B533
:1045D00005460E46174604243B483A4988603B4846
:1045E0008860E002FFF7E9FD0446042C19D1354844
:1045F000006940F010003349086147F0F80030438B
:1046000028433349891C0880E002FFF7D6FD0446A1
:10461000052C06D02B48006941F6EF710840294966
:1046200008612046F0BD2748C069800870472548CA
:10463000006A704700202349096801F0200109B190
:10464000012000E00020704729B11E4A1269024390
:104650001C4B1A6104E01B4A12698243194B1A6110
:10466000704701460020012908D1164AD26902F09C
:1046700001020AB1012008E0002006E0114AD268D8
:104680000A400AB1012000E0002070470D49C860CF
:10469000704704200B49C96801F0010109B10120EC
:1046A0000EE00849C96801F0040109B1022007E0E1
:1046B0000449C96801F0100109B1032000E0042099
:1046C000704700000020024023016745AB89EFCD11
:1046D00000F8FF1F704700000FB4044910B503AA8B
:1046E000029800F03BF910BC5DF814FB700200204A
:1046F0002DE9F0410E460446002020622046E16884
:10470000884730B3252805D0D4E901219047206A95
:10471000401CF2E7E168204600278847050018D0D2
:10472000A5F14100192802D820354FF40067324620
:10473000294620462760FBF755FD40B1012804D0EB
:10474000F61D26F007060836D8E7361DD6E72846B8
:10475000DAE7206ABDE8F0812DE9F0410646002441
:1047600010687529314616A510D0AFF300800028D7
:1047700002DA404213A507E031688A0701D512A585
:1047800002E0490704D511A5012401E0AFF3008040
:1047900000210A2206F1240709E0B0FBF2FCB0FB7D
:1047A000F2F302FB1C00303078541846491C0028F4
:1047B000F3D123462A463046BDE8F04100F074B8F4
:1047C000000000002D0000002B0000002000000071
:1047D0004FF0000200B5134694469646203922BF9A
:1047E000A0E80C50A0E80C50B1F12001BFF4F7AFE5
:1047F000090728BFA0E80C5048BF0CC05DF804EBC7
:10480000890028BF40F8042B08BF704748BF20F834
:10481000022B11F0804F18BF00F8012B70470000E9
:104820004FF0013C50F8042B51F8043B9A4221D13F
:10483000A2EB0C03934313EACC1317D150F8042BCB
:1048400051F8043B9A4215D1A2EB0C03934313EAAF
:10485000CC130BD150F8042B51F8043B9A4209D1E8
:10486000A2EB0C03934313EACC13DBD04FF0000010
:10487000704700BFD01A01BAB1FA81F101F01801F6
:1048800022FA01F0CB40C1F12001DBB2C0B2C01A64
:104890002CFA01F3D11A914311EAC311E6D1704702
:1048A00070477047704770472DE9F0470D469946AD
:1048B0009246044600F124080168880604D5E069A0
:1048C00021F01001216000E00120A84201DD471B1A
:1048D00000E00027A1697A1902EB0900081AA0611B
:1048E0002078C00602D42046AFF30080002608E0FE
:1048F000D4E901211AF806009047206A401C761C72
:1049000020624E45F4DB2078C0060AD52046AFF37E
:10491000008006E0D4E9012130209047206A401C45
:104920002062381EA7F10107F4DC07E0D4E9012179
:1049300018F805009047206A401C2062281EA5F147
:104940000105F3DC2046AFF300802078000602D595
:104950000220BDE8F0870120FBE70000074B70B59F
:104960000D467B4400F011F80446284600F020F87C
:1049700010B14FF0FF3070BD204670BDD1DBFFFF9E
:1049800001694A1C02610878704700B58FB0CDE913
:1049900001310021059105497944CDE90310114603
:1049A0006846FFF7A5FE0FB000BD0000E5FFFFFF62
:1049B000007B00F080007047754600F029F8AE4695
:1049C00005006946534620F00700854618B020B51B
:1049D000FDF790FEBDE820404FF000064FF00007C5
:1049E0004FF000084FF0000B21F00701AC46ACE897
:1049F000C009ACE8C009ACE8C009ACE8C0098D4604
:104A000070470446AFF300802046FBF7FDFB000033
:104A100000487047F4200020384A000800000020B9
:104A20008C0200006C010008844B00088C020020FE
:104A3000CC240000C80100089184A24A040009396E
:104A400001020304060708091BC20145794F11281A
:104A500008C1814001C0804104690C2908E918A9F6
:104A60001C091A30091638093660092E70092F60A2
:104A700000FF00C0C101C30302C2C60607C705C5C7
:104A8000C404CC0C0DCD0FCFCE0E0ACACB0BC90976
:104A900008C8D81819D91BDBDA1A1EDEDF1FDD1D86
:104AA0001CDC14D4D515D71716D6D21213D311D1B6
:104AB000D010F03031F133F3F23236F6F737F53506
:104AC00034F43CFCFD3DFF3F3EFEFA3A3BFB39F936
:104AD000F83828E8E929EB2B2AEAEE2E2FEF2DED06
:104AE000EC2CE42425E527E7E62622E2E323E12176
:104AF00020E0A06061A163A3A26266A6A767A56586
:104B000064A46CACAD6DAF6F6EAEAA6A6BAB69A9F5
:104B1000A86878B8B979BB7B7ABABE7E7FBF7DBD05
:104B2000BC7CB47475B577B7B67672B2B373B17135
:104B300070B0509091519353529296565797559505
:104B400094549C5C5D9D5F9F9E5E5A9A9B5B9959B5
:104B50005898884849894B8B8A4A4E8E8F4F8D4D85
:104B60004C8C4484854587474686824243834181F5
:104B7000800217402D0102030404200906070809DA
:044B8000020406081D
:0400000508000131BD
:00000001FF
