:020000040800F2
:1000000058270020392000088D0300088F030008BE
:1000100093030008970300089B03000800000000FA
:100020000000000000000000000000009F03000826
:10003000A103000800000000A3030008A5030008B6
:1000400053200008532000085320000853200008C4
:1000500053200008532000085320000853200008B4
:1000600053200008532000085320000853200008A4
:100070005320000853200008532000085320000894
:100080005320000853200008532000085320000884
:100090005320000853200008532000085320000874
:1000A0005320000853200008532000085320000864
:1000B00053200008532000088B0700085320000835
:1000C0005320000853200008532000085320000844
:1000D00053200008471F0008DD12000853200008C5
:1000E0005320000853200008532000085320000824
:1000F0005320000853200008532000085320000814
:100100005320000853200008532000085320000803
:100110005320000853200008532000083D13000816
:1001200053200008532000085320000853200008E3
:1001300000F002F800F05FF80AA090E8000C82449A
:100140008344AAF10107DA4501D100F054F8AFF277
:10015000090EBAE80F0013F0010F18BFFB1A43F0A5
:10016000010318475C4F00007C4F00000A444FF029
:10017000000C10F8013B13F0070408BF10F8014B06
:100180001D1108BF10F8015B641E05D010F8016B4B
:10019000641E01F8016BF9D113F0080F1EBF10F8AF
:1001A000014BAD1C0C1B09D16D1E58BF01F801CBD2
:1001B000FAD505E014F8016B01F8016B6D1EF9D555
:1001C0009142D6D37047000000230024002500266A
:1001D000103A28BF78C1FBD8520728BF30C148BFAA
:1001E0000B607047642904F08F81002070471FB5B1
:1001F0001FBD10B510BD04F0B7FA1146FFF7F7FFA9
:1002000000F033F804F0D5FA03B4FFF7F2FF03BCB3
:1002100001F03EFE10B501F0CBFD01F033FE0221EE
:1002200040F2AF4000F00CFB472140F2E73000F015
:100230007FFA00F0A8FF4FF4E13001F038FE02220F
:100240003B493C4801F039FD00F086FB00F01EFC04
:1002500000F09AF900F0D6F94FF41671364803F021
:10026000C5FB36A004F010F910BDFFF7D3FF5EE028
:100270003848007858B100203649087000F0DCFB9F
:1002800001F00FFC34480068401C334908603348D3
:10029000007820B100203149087000F09EFC304801
:1002A000007860B100202E49087000F071FC00F069
:1002B0005FFC012000F0CBF9044600F063FE294802
:1002C000007820B100202749087001F079FE264807
:1002D000007810B100202449087024480078D8B173
:1002E0000020224908702249088804F0F2FB804669
:1002F0004FF066321F4B04F0FFFB064600221E4BF8
:1003000004F062FA044600221C4B04F0F5FB82461E
:1003100004F0B2FB1A4908601A48007838B100208E
:100320001849087002221849024801F0B5FC9FE7FD
:10033000080000200000070800040040537973748F
:10034000656D20696E696E742073756365737321C2
:100350000A000000260000203800002027000020AE
:1003600028000020290000202A0000202B00002067
:100370000000002066660A400000B04000408F4048
:100380009C1200202C0000200C000020704700BFB1
:10039000FEE700BFFEE700BFFEE700BFFEE77047D5
:1003A00070477047704700000CB500200190009026
:1003B0006C48006840F480306A49086000BF6948B2
:1003C000006800F4003000900198401C01900098F3
:1003D00018B90198B0F5A06FF1D16248006800F437
:1003E000003010B10120009001E000200090009842
:1003F000012843D15C48006840F010005A49086069
:100400000846006820F0030008600846006840F0D5
:1004100002000860534840685249486008464068F6
:1004200048600846406840F480604860084640687C
:1004300020F47C1048600846406840F4E8104860AA
:100440000846006840F08070086000BF45480068BA
:1004500000F000700028F9D04248406820F0030006
:10046000404948600846406840F00200486000BFCC
:100470003C48406800F00C000828F9D10CBD10B5CC
:10048000FFF792FF10BD10B53648006840F001003C
:10049000344908600846406834490840314948609A
:1004A00008460068324908402E490860084600683E
:1004B00020F4802008600846406820F4FE00486070
:1004C0004FF41F008860FFF7DAFF4FF00060294902
:1004D000086010BD10B5002100200022214B5B6890
:1004E00003F00C0121B1042906D0082928D107E026
:1004F000214B224C236027E01F4B204C236023E03C
:10050000184B5B6803F47010164B5B6803F4803281
:10051000022303EB904022B9194B4343174C23604D
:100520000DE0104B5B6803F4003323B1144B4343DD
:10053000124C236003E0104B4343104C236003E054
:100540000D4B0E4C236000BF00BF064B5B68C3F32E
:1005500003130C4CE15C094B1B68CB40074C236038
:1005600010BD000000100240002002400000FFF813
:10057000FFFFF6FE08ED00E000127A0010000020F8
:1005800000093D001400002008B50121482002F0B8
:10059000FDF82020ADF8000010208DF803000320A6
:1005A0008DF802006946154801F034FE20211348F9
:1005B00001F0DDFE4FF44050ADF8000010208DF842
:1005C000030003208DF8020069460C4801F022FE6A
:1005D0004FF48051094801F0CCFE4FF40051074818
:1005E00001F0C7FE2020ADF800006946044801F084
:1005F00011FE2021024801F0BAFE08BD000C0140A6
:100600000018014008B50121442002F0BFF81C2069
:10061000ADF8000048208DF803006946404801F01D
:10062000F9FD4FF47860ADF8000004208DF8030068
:1006300069463B4801F0EEFD0120ADF8000028209E
:100640008DF803006946374801F0E4FD08BD10B598
:10065000044614B10120344908703348007800285A
:1006600041D001212F4801F068FE01280ED0102151
:100670002B4801F062FE48B10821294801F05DFED7
:1006800020B10421264801F058FE60BB27480078BD
:10069000401C26490870084600780A2801DC002022
:1006A00010BD0020214908701F49087010211C4806
:1006B00001F043FE08B90120F2E70821184801F0D3
:1006C0003CFE08B90220EBE70421154801F035FE95
:1006D00008B90320E4E70121124801F02EFE0128A9
:1006E0001BD10420DCE701210E4801F026FE012881
:1006F00013D110210A4801F020FE01280DD1082154
:10070000074801F01AFE012807D10421044801F02E
:1007100014FE10B90120044908700020C0E7000051
:10072000001801400008014024000020250000209E
:100730007FB505460C460121042002F034F8ADF8DF
:100740000850ADF804400020ADF80A00ADF80600EE
:1007500001A9754802F056FB01221146724802F0C9
:10076000C8FE1E208DF8000000208DF80100032037
:100770008DF8020001208DF80300684601F081FC2D
:100780000121694802F09AFE7FBD10B5012166483B
:1007900003F05DF9002852D064480088401C63498A
:1007A0000880012062490870604800880A2190FB97
:1007B000F1F201FB120010B901205E4908705B489C
:1007C0000088052190FBF1F201FB120010B9012015
:1007D0005949087055480088142190FBF1F201FB3B
:1007E000120010B901205549087050480088642152
:1007F00090FBF1F201FB120010B901205049087082
:100800004A4800884FF4FA7190FBF1F201FB1200A4
:1008100010B901204B490870444800884FF47A71A0
:1008200090FBF1F201FB120028B901204649087043
:1008300000203E49088001213B4803F019F910BD12
:1008400030B589B005460C460121022001F0ABFF0E
:100850000121112001F09AFF01213C4801F0ABFD7C
:100860004FF47070ADF8200018208DF8230003209D
:100870008DF8220008A9364801F0CCFCADF81850DC
:10088000ADF814400020ADF81A00ADF8160005A927
:10089000304802F0B7FA7020ADF804000120ADF83E
:1008A00006000020ADF80A00ADF80C0001A92948A7
:1008B00002F0E5FA01A9274802F023FB01A9254827
:1008C00002F06CFB01A9234802F0B3FB012121488F
:1008D00002F000FE08211F4802F020FF08211D48F9
:1008E00002F025FF08211B4802F02EFF08211948BD
:1008F00002F033FF0121174802F0E0FE0121154804
:1009000002F0DCFD0021134803F070F800211148CB
:1009100003F06EF800210F4803F06CF800210D4839
:1009200003F06AF809B030BD000800402E00002036
:100930002600002028000020270000202900002099
:100940002A0000202B0000202C000020000C1A00A0
:10095000001001400004004000B587B001214FF4B1
:10096000017001F013FF4FF4004001F073FE02200C
:10097000ADF8040000208DF8070001A93E4801F001
:1009800049FC3E4803F078F8002002908DF80C00F6
:100990008DF80D004FF46020049000200590012098
:1009A0008DF8180002A9354803F08DF8012133486D
:1009B00003F0B5F8314803F0D4F800BF2F4803F036
:1009C000D5F80028FAD12D4803F0DAF800BF2B48FB
:1009D00003F0DBF80028FAD107B000BD10B50446DB
:1009E000072301222146254803F005F90121234868
:1009F00003F0D5F800BF0221204803F041FA002897
:100A0000F9D01E4803F05EF910BD2DE9F04107460C
:100A10000C460025002608E03846FFF7DFFF0544B6
:100A2000052001F002FA701CC6B2A642F4DBB5FB49
:100A3000F4F080B2BDE8F08110B50120FFF7CEFFE1
:100A40000F49096808440E4908600E480078401CA8
:100A50000C4908700846007805280BD10848006842
:100A60000521B0FBF1F00849088000200449086026
:100A70000449087010BD0000000801400024014036
:100A800030000020340000200000002000202E490B
:100A90000860486088600883C86000212A480161B6
:100AA000416170472DE9F84F04460D460026601B52
:100AB00004F0A2F92449C860084601694FF080405B
:100AC00004F0B2F900902048C168009804F078FA68
:100AD00083461D484169584604F00CF982461A487D
:100AE0008168504604F0A0F98046174AD1685068E2
:100AF00004F09AF9144A00901169D06804F06AFA77
:100B0000834611480168584604F08EF982460099E0
:100B100004F0F0F88146414604F0ECF8074604F092
:100B20004BF986B20848008B3044074908830846D1
:100B3000C168016141694161018B04A003F0A4FC1B
:100B40000148008BBDE8F88F8002002025640A0070
:100B50007047F848007810B1012802D100E004E0A5
:100B600003E00020F349087000BF00BF0020704779
:100B700010B5F148407910B1012806D102E0FFF725
:100B8000E7FF03E0FFF7E5FF00E000BF00BF10BD97
:100B9000E948807905281DD2DFE800F00304081732
:100BA000180018E00120E449487114E0E248007997
:100BB00018B90120E049487106E0DF4800790128B2
:100BC00002D10020DC49487105E004E00020DA4948
:100BD000087100E000BF00BF704710B58021D74802
:100BE00001F0ABFBD64908604FF48071D34801F0A7
:100BF000A4FBD34948604FF40071D04801F09DFB3D
:100C0000CF4988604FF48061CC4801F096FBCC4915
:100C1000C8608021C94801F090FB48B94FF4807149
:100C2000C64801F08AFB18B10020C649C86011E02F
:100C30008021C24801F081FB48B14FF48071BF4868
:100C400001F07BFB18B90120BE49C86002E0022018
:100C5000BC49C8604FF40071B84801F06EFB48B958
:100C60004FF48061B54801F068FB18B10020B54928
:100C7000886012E04FF40071B04801F05EFB48B1AB
:100C80004FF48061AD4801F058FB18B90120AD491F
:100C9000886002E00220AB49886010BD10B5802159
:100CA000A64801F04AFB48B94FF48071A34801F00F
:100CB00044FB18B10120A449086010E080219F483E
:100CC00001F03BFB48B14FF480719C4801F035FBCB
:100CD00018B900209C49086001E0012010BD0020E7
:100CE000FCE710B54FF40071944801F026FB50B9B1
:100CF0004FF48061914801F020FB20B1012092491E
:100D0000091D086012E04FF400718C4801F015FBDA
:100D100050B14FF48061894801F00FFB20B90020E9
:100D20008949091D086001E0022010BD0020FCE790
:100D300010B500208549087085480078052845D2FF
:100D4000DFE800F003456F94BA004FF400617B4880
:100D500001F0F3FA28B97F480078401C7D490870FB
:100D600002E000207B4908707A4800780A282DDDCF
:100D70004FF40071714801F0E0FAB8B94FF48061A6
:100D80006E4801F0DAFA88B1734800687349086068
:100D900001206D49091D08600A2071490870002072
:100DA0007049087001206A49087004E06D480078B5
:100DB000401C6C4908706B480078642806DD0020F0
:100DC0006849087068490870022010BDAEE04FF411
:100DD00000715A4801F0B1FA90B14FF48061574860
:100DE00001F0ABFA60B95E48007870B9012056494D
:100DF000086000205B49087002205549087004E033
:100E000058480078401C57490870564800786428B4
:100E100006DD002053490870534908700220D4E7CA
:100E200084E08021454801F088FA70B14FF4807168
:100E3000424801F082FA40B900204349086049491C
:100E4000087003204249087004E046480078401CBE
:100E50004449087043480078642806DD0020414971
:100E60000870414908700120AFE75FE080213348F6
:100E700001F063FA78B94FF48071304801F05DFAFF
:100E800048B100203049091D086036490870042027
:100E90002F49087004E033480078401C314908703D
:100EA00030480078642806DD00202E4908702E495D
:100EB0000870012089E739E04FF400711F4801F004
:100EC0003CFA10BB4FF480611C4801F036FAE0B1E7
:100ED00026480078401C2549087008460078C82834
:100EE00001DD002008701C4800681C4A1268811A45
:100EF0001E4802781EA003F0C7FA002019490870A6
:100F0000134908701849087004E016480078401C1E
:100F10001449087013480078642806DD0020114940
:100F200008701149087002204FE700BF00BF002081
:100F30004BE700003E0000200000002000180140A8
:100F4000081300209C120020B081214240000020A4
:100F50003F00002043000020380000204400002013
:100F60003D000020420000203C0000204100002005
:100F700054696D653D256420E6ACA1E695B03A253F
:100F8000640A000070B5044600251348007820B1BB
:100F900011480078401E10490870012C03D1FFF75A
:100FA0007DFE054611E0022C03D1FFF79AFE0546AF
:100FB0000BE0032C03D101200849087005E0074825
:100FC000007810B1FFF7B4FE054625B1294604A00C
:100FD00003F05AFA002570BD3D0000203C000020BF
:100FE000E6B094E7BCB825642D2DE58F91E7949F7A
:100FF000E69585E99A9C0A0070B502460C46FF25E5
:10100000FF2309E012F8010B80EA0501FE48405C6D
:1010100080EA0305FD48435C2000A4F10106F4B218
:10102000F0D143EA052070BD10B57821F84803F0EF
:10103000A7FAF748F7490860001D4860001D88605E
:10104000001DC860001D0861001D4861001D886109
:10105000001DC861001D0862001D4862001D8862F5
:10106000001DC862001D0863001D4863001D8863E1
:10107000001DC863001D0864001D4864001D8864CD
:10108000001DC864001D0865001D4865001D8865B9
:10109000001DC865001D0866001D4866001D8866A5
:1010A000001DC8665021DC4803F06AFADA48DB49C3
:1010B0000860001D4860001D8860001DC860001D9C
:1010C0000861001D4861001D8861001DC861001D88
:1010D0000862001D4862001D8862001DC862001D74
:1010E0000863001D4863001D88630020CC494860E8
:1010F000012088600220C86000200861012048614A
:10110000022088610846C7490860001D4860001D2C
:101110008860001DC860001D0861001D4861001D39
:10112000886110BD1FB50121202001F03CFBBE48A5
:10113000008800EB80004FF6FF7101EA4000ADF837
:1011400008004FF4E150ADF804000020ADF80A00AB
:10115000ADF8060001A9B54801F054FE0122114680
:10116000B24802F0C6F937208DF8000002208DF851
:10117000010003208DF8020001208DF8030068466D
:1011800000F07FFF1FBD00B587B001214FF48270D2
:1011900001F0FCFA0121480401F005FB0420ADF840
:1011A000180018208DF81B0003208DF81A0006A9DE
:1011B0009F4801F02FF804219D4801F0D8F808203D
:1011C000ADF8180048208DF81B0006A9984801F0DA
:1011D00021F84FF40070ADF8180010208DF81B00B6
:1011E00006A9944801F016F84FF40071914801F0F7
:1011F000C0F8914801F02EFB904800680290002052
:10120000ADF81400ADF80C00ADF80E000C20ADF8F0
:1012100012008B48007820B1012806D002280ED198
:1012200008E00020ADF8100009E04FF4C060ADF810
:10123000100004E04FF48060ADF8100000BF00BF64
:1012400002A97D4801F049FB40F225517A4801F09E
:10125000EBFC012240F22551774801F0D6FB262015
:101260008DF8040002208DF805008DF8060001209D
:101270008DF8070001A800F004FF01216E4801F07D
:10128000B8FB00206F4908701C21654803F078F90D
:10129000FFF748FFFFF7C8FE07B000BD70B5044672
:1012A0000D460120674908700BE000BF80216248AD
:1012B00001F07AFC0028F9D014F8011B5E4801F017
:1012C00005FC2800A5F10101CDB2EED100BF4021FF
:1012D000594801F069FC0028F9D070BD70B540F2A2
:1012E0002551554801F076FC38B30721524801F0EA
:1012F0005BFC08B1012400E000244F4801F0EAFB48
:10130000C5B25148008840F2FF71884215DAA4B98D
:101310004E484D49098845544B480088401C4A496D
:1013200008800121414802F0A3FB00213F4802F060
:1013300059FB01213D4802F0C1F870BD10B50121F3
:101340003A4802F084FB60B10121384802F090FB7A
:101350000021364802F0B2F801203A4908703C49B1
:10136000087010BD10B5394840793849097940EA0C
:101370000120384908803848008809880844B0F5B9
:101380007A7F7EDA002422E0082000EB44002F4917
:10139000085C314909882144224A52F8211008800A
:1013A0002D4800882044114651F82000008807216C
:1013B00001EB4401254A515C40EA01202649098895
:1013C0002144184A52F821100880601CC4B22148F8
:1013D00000888442D8DB1D480078204908701B48EB
:1013E000407848701948807888701848C078C8706C
:1013F0001648007908711548407948710621174848
:10140000FFF7FAFD16492EE0570000205701002093
:101410000813002080130020B812002010150020AF
:101420009C120020A01600204E0000200014004056
:101430000008014000200140004400404800002016
:101440004C00002056000020500000209C0200208C
:10145000520000205A020020580200209C0A00205E
:101460005C0200200DE0088008460078FE49C87143
:10147000FE480088000A88710821FB48FFF70EFF2C
:101480000EE0FB480078F8490870F948407840F0D1
:1014900080004870022088700321F348FFF7FEFEA9
:1014A00010BD10B5F2484079F249F34A128851F85C
:1014B00022100880EF48F049098850F82100008880
:1014C000EB49097940EA0120EA49EB4A128851F8D0
:1014D00022100880E6480078E3490870E448407824
:1014E0004870E34880788870E148C078C870E04868
:1014F00000790871DE48407948710621DA48FFF723
:101500007BFDDA49088008460078D749C871D7487A
:101510000088000A88710821D348FFF7BFFE10BD7C
:1015200010B5D3484079D249097940EA0120D3491E
:101530000880D148008809880844B0F57A7F53DADA
:10154000CB480078C8490870C94840784870CB48F3
:1015500000784006000E8870002419E0C648008814
:101560002044C44951F820000078042101EB4401D3
:10157000BD4A5054C04800882044BE4951F820005C
:101580000088000A032101EB44015054601CC4B2DE
:10159000BA4800888442E1DBB8480078032202EBB5
:1015A0004000C1B2B048FFF727FDB04908800846A7
:1015B0000178B2480088042202EB4000AA4A115484
:1015C000AA480088010AAD480088032202EB4000C7
:1015D000A54A1154A9480078052202EB4000C1B287
:1015E000A148FFF75BFE0EE0A14800789E49087015
:1015F0009F48407840F080004870022088700321A6
:101600009948FFF74BFE10BD10B5994840799849AD
:10161000097940EA0120994908809748008809889B
:101620000844642858DA00242CE0E11704EB5171D7
:10163000C910C91D8E4A515C01F0010141B1012060
:101640008D49098821448E4A52F82110086007E02C
:101650000020894909882144894A52F821100860EC
:10166000E11704EB5171C910C91D814A515C4A1040
:101670002046E11704EB5171C910C91D7C4B5A5427
:10168000601C84B27D4800888442CEDB78480078B4
:101690007549087076484078487075488078887039
:1016A0007348C078C87072480079087170484079F2
:1016B000487106216C48FFF79FFC6C49088008467A
:1016C00000786949C87169480088000A8871082152
:1016D0006548FFF7E3FD0EE0654800786249087051
:1016E0006348407840F080004870022088700321F1
:1016F0005D48FFF7D3FD10BD10B55F480088642832
:101700003CDA5B480079FF2803D059484079FF282C
:1017100007D101205A49584A128851F8221008600E
:1017200006E000205649544A128851F822100860F9
:101730004F4800784C4908704D48407848704C48F4
:10174000807888704A48C078C87049480079087124
:1017500047484079487106214348FFF74DFC43490B
:101760000880084600784049C87140480088000A4F
:10177000887108213C48FFF791FD0EE03C48007855
:10178000394908703A48407840F08000487002209B
:10179000887003213448FFF781FD10BD70B53448CF
:1017A00040793349097940EA0120344908803248B8
:1017B00000880988084464287EDA2D4800782A4980
:1017C00008702B48407848702C490888C11700EBF6
:1017D0005171CD1029490888C11700EB5171C9100A
:1017E000A0EBC10109B1681C85B21F498D700024AE
:1017F00072E0E11704EB5171C910A4EBC10141B9CA
:1018000000222046E11704EB5171C910C91C164B88
:101810005A54E11704EB5171C910C91C124A515CAA
:101820004A102046E11704EB5171C910C91C0E4B38
:101830005A54E11704EB5171C910C91C1A46515C86
:101840000D4A128822440E4B53F82220126880233E
:1018500003EAC2121143E21704EB5272D210D21CF7
:10186000014B995405480DE09C0A00205C020020C1
:101870009C020020A0160020580200205A020020DE
:10188000101500200088401EA04223D1E949088895
:10189000C11700EB5171C910A0EBC101D1B1E21722
:1018A00004EB5272D210D21C9A5CE24B1988CB170F
:1018B00001EB5373DB1000E029E0A1EBC303C3F19C
:1018C00008031A412046E31704EB5373DB10DB1CBB
:1018D000D94EF254601C84B2D6480088844288DB1A
:1018E000E81CC1B2D448FFF787FBD44908800846FA
:1018F0000178D14A281D1154D0480088010AE81CFB
:101900001154681DC1B21046FFF7C8FC0EE0CC4868
:101910000078C9490870CA48407840F08000487093
:10192000022088700321C448FFF7B8FC70BD70B571
:10193000C3484079C249097940EA0120BD4908807D
:10194000C04800880988084464287DDABC480078CB
:10195000B9490870BA4840784870B6490888C11734
:1019600000EB5171CD10B3490888C11700EB5171DC
:10197000C910A0EBC10109B1681C85B2AE498D70D8
:10198000002463E0E11704EB5171C910A4EBC1011D
:1019900041B900222046E11704EB5171C910C91C5E
:1019A000A54B5A54E11704EB5171C910C91CA24A46
:1019B000515C4A102046E11704EB5171C910C91C53
:1019C0009D4B5A54E11704EB5171C910C91C1A46BA
:1019D000515C9C4A128822449B4B53F82220126887
:1019E000802303EAC2121143E21704EB5272D210B1
:1019F000D21C914B99548F480088401EA04221D19F
:101A00008C490888C11700EB5171C910A0EBC101C6
:101A1000C1B1E21704EB5272D210D21C9A5C854B12
:101A20001988CB1701EB5373DB10A1EBC303C3F190
:101A300008031A412046E31704EB5373DB10DB1C49
:101A40007D4EF254601C00E01BE084B279480088AF
:101A5000844297DBE81CC1B27748FFF7CDFA77499B
:101A6000088008460178744A281D1154734800887C
:101A7000010AE81C1154681DC1B21046FFF70EFCA4
:101A80000EE06F4800786C4908706D48407840F06F
:101A9000800048700220887003216748FFF7FEFB32
:101AA00070BD10B56948007801287BD16448007882
:101AB00067490978884276D161484078012817D073
:101AC0005F484078022813D05D48407803280FD043
:101AD0005B48407805280BD059484078062807D045
:101AE000574840780F2803D055484078102878D1BF
:101AF0005348C0785249897840EA0120514908800A
:101B000008460088B0F57A7F6DDA52480078801E6A
:101B1000C1B24B48FFF770FA484908804D48008829
:101B2000401E4749095C4B480088801E444A105CAF
:101B300041EA002441480088A04242D11046407842
:101B4000052814D006DC01280ED0022809D003286D
:101B500036D12CE006282DD00F2825D010282FD1E3
:101B60002BE0FFF7E4FE2BE0FFF718FE28E0FFF77D
:101B7000C3FD0020384908700CE03848364A127816
:101B800050F8221036A002F07FFC33480078401C49
:101B900031490870304800780F28EEDB31A002F0A0
:101BA00073FC0DE045E03DE0FFF72EFD08E0FFF798
:101BB000B7FC05E0FFF775FC02E0FFF7D3FB00BFC1
:101BC00030E01F4800781C4908701D48407840F0FC
:101BD000800048700420887003211748FFF75EFBDF
:101BE00020E010E0FFE71648007813490870144819
:101BF000407840F0800048700220887003210E4831
:101C0000FFF74CFB0EE00E4800780B4908700C48BB
:101C1000407840F080004870012088700321064819
:101C2000FFF73CFB0020094908700A4908800E496B
:101C3000087010BD5A0200209C0A00205C0200209F
:101C40009C02002058020020801300205200002037
:101C50004D000020500000205E020020B81200203D
:101C6000256400000A000000560000200146088894
:101C700070472DE9F04105460E461746002407E05F
:101C800036F81410284602F086FAAD1C601C84B2A7
:101C9000BC42F5DBBDE8F08130B503460C46154685
:101CA000002207E01846FFF7E1FF24F812009B1C12
:101CB000501C82B2AA42F5DB30BD2DE9F05F8046B0
:101CC0008A461746B8F1006F02D33748804501D3E2
:101CD000BDE8F09F02F017F9A8F1006B4FEADB2591
:101CE000CBF34909C9F58064A74200DC3C464DE0CE
:101CF0004FF0006101EBC5204A142C49FFF7CCFFDF
:101D000000260BE009EB0600284931F810004FF6D9
:101D1000FF71884200D003E0701C86B2A642F1DB5E
:101D200000BFA6421BDA4FF0006101EBC52002F0B4
:101D30002FF9002608E03AF8160006EB09011B4AC5
:101D400022F81100701C86B2A642F4DB4FF000614D
:101D500001EBC5204A141549FFF78BFF04E022462A
:101D600051464046FFF785FFA74200D10FE06D1CAA
:101D70004FF000090AEB440AA044381B87B2B7F5BC
:101D8000806F02DD4FF4806400E03C46B0E700BFA6
:101D900002F0C5F800BF9BE713B50446012201A974
:101DA0002046FFF78AFF1CBD0000080830180020FD
:101DB00010B56FF0040000F0AEF92E4800682E490F
:101DC000B0FBF1F02D4908700846007800EB4001A7
:101DD000C1EBC0104FF6FF7101EAC000284908802E
:101DE00010BD0146254A12784A434FF0E0235A615C
:101DF00000229A611A46126942F001021A6100BF7C
:101E00004FF0E022106900F001021AB100F48032B4
:101E1000002AF5D04FF0E022126922F001024FF0C3
:101E2000E0231A6100229A6170470146144A128821
:101E30004A434FF0E0235A6100229A611A46126920
:101E400042F001021A6100BF4FF0E022106900F079
:101E500001021AB100F48032002AF5D04FF0E022DE
:101E6000126922F001024FF0E0231A6100229A6108
:101E7000704700001000002000127A00600200206D
:101E80006202002010B54FF4A06000F0F5F810BD1C
:101E9000014600BF704700BF5C4A128802F0400252
:101EA000002AF9D0C2B2594B1B1D1A80704710B5D9
:101EB00086B00446012144F2040000F067FC4FF4B0
:101EC0000070ADF8140003208DF8160018208DF86E
:101ED000170005A94E4800F09DF94FF48060ADF859
:101EE000140004208DF8170005A9494800F092F964
:101EF00025208DF8000003208DF801008DF80200E8
:101F000001208DF80300684600F0BBF80194002022
:101F1000ADF80800ADF80A00ADF80C00ADF81000FF
:101F20000C20ADF80E0001A9384800F0D6FC0122C3
:101F300040F22551354800F068FD0121334800F09A
:101F400058FD06B010BD10B540F225512F4800F0E5
:101F500041FE10B32D4800F0BDFDC4B22D480088ED
:101F600000F40040C8B92B48008800F4804060B1FC
:101F70000A2C03D000202749088020E0254800884B
:101F800040F400402349088019E00D2C06D1214877
:101F9000008840F480401F49088010E01D480088F8
:101FA000C0F30D001C490C541A480088401C194904
:101FB000088008460088C72801DD0020088010BD81
:101FC00010B51448008802281ED10020114908804D
:101FD00012A1114802F0FCFA18B9022011498871C7
:101FE00012E011A10C4802F0F3FA18B904200D49CF
:101FF000887109E00EA1084802F0EAFA18B9012038
:102000000849887100E010BD00BFFCE700380140BE
:102010000008014068020020302000204053746115
:1020200072740000000000204053746F70000000C4
:1020300040456E6400000000094880470948004799
:10204000FEE7FEE7FEE7FEE7FEE7FEE7FEE7FEE768
:10205000FEE7FEE704480549054A064B70470000C5
:10206000870400083101000858210020582700206B
:10207000582300205823002031490143314A116080
:10208000704770B5002100230F22C47804B32D4C93
:10209000246804F4E064C4F5E064210AC1F1040397
:1020A000CA40447804FA03F18478144021430901BA
:1020B000254C0678A155047804F01F050124AC4096
:1020C00005786D11AD0005F1E025C5F8004109E086
:1020D000047804F01F050124AC401C4D06787611ED
:1020E00045F8264070BD1A4A0A400243154B1B1F93
:1020F0001A60704739B1134A121D12680243114B1E
:102100001B1D1A6006E00F4A121D126882430D4B18
:102110001B1D1A607047042808D14FF0E02109699F
:1021200041F004014FF0E022116107E04FF0E0219F
:10213000096921F004014FF0E022116170470000AD
:102140000000FA050CED00E000E400E080E100E0B2
:1021500080FFFF1F10B50446CC48844208D10121FE
:10216000042000F02DFB0021042000F029FB46E0B4
:10217000C748844208D10121082000F021FB00213A
:10218000082000F01DFB3AE0C248844208D101213A
:10219000102000F015FB0021102000F011FB2EE0B4
:1021A000BD48844208D10121202000F009FB002114
:1021B000202000F005FB22E0B848844208D101212C
:1021C000402000F0FDFA0021402000F0F9FA16E06E
:1021D000B348844208D10121802000F0F1FA0021A7
:1021E000802000F0EDFA0AE0AE48844207D10121D8
:1021F000801500F0E5FA0021A01500F0E1FA10BD0D
:1022000010B50121084600F0DBFA0021012000F0A2
:10221000D7FA10BD2DE9F041024600250026002026
:1022200000230024002791F803C00CF00F0591F85B
:1022300003C00CF0100CBCF1000F03D091F802C0E9
:102240004CEA050591F800C0BCF1000F31D01468CC
:1022500000202BE04FF0010C0CFA00F3B1F800C0A5
:102260000CEA03069E4220D183004FF00F0C0CFABB
:1022700003F7BC4305FA03FC4CEA040491F803C0DD
:10228000BCF1280F06D14FF0010C0CFA00FCC2F88B
:1022900014C00AE091F803C0BCF1480F05D14FF01B
:1022A000010C0CFA00FCC2F810C0401C0828D1D365
:1022B0001460B1F800C0BCF1FF0F34DD5468002099
:1022C0002EE000F1080C4FF0010808FA0CF3B1F809
:1022D00000C00CEA03069E4221D183004FF00F0C90
:1022E0000CFA03F7BC4305FA03FC4CEA040491F82A
:1022F00003C0BCF1280F05D100F1080C08FA0CF856
:10230000C2F8148091F803C0BCF1480F07D100F166
:10231000080C4FF0010808FA0CF8C2F81080401CB5
:102320000828CED35460BDE8F0814FF6FF710180DC
:10233000022181700421C170704702460020936819
:102340000B400BB1012000E0002070470146886877
:1023500080B2704702460020D3680B400BB10120C9
:1023600000E0002070470146C86880B270470161F4
:102370007047416170470AB1016100E041617047F7
:10238000C16070474FF480320A438261816182618B
:1023900082698269704702460020434B18684FF6F5
:1023A0008073184040EA021008433F4B18607047A2
:1023B0003E49C8617047F0B50A4600230024002159
:1023C000002500F00046B6F1004F02D1364EF1690B
:1023D00001E0354E7168C0F3034583B200F4401646
:1023E000B6F5401F08D121F070612F4E766826F0B7
:1023F00070662D4F7E6012E000F48016B6F5801FE7
:1024000006D1032606FA05F4A14341F0706106E007
:10241000460D360103FA06F6B14341F0706122B170
:10242000460D360103FA06F6314300F00046B6F1D8
:10243000004F02D11C4EF16101E01B4E7160F0BDF6
:1024400030B500228B071C0F0F2303FA04F2164B42
:1024500008338C1053F824309343134C08348D10F8
:1024600044F8253023468C1053F824308C07240F71
:1024700000FA04F423430C4C08348D1044F8253042
:1024800030BD0A49DC310860704700000008014097
:10249000000C0140001001400014014000180140F0
:1024A000001C0140002001400000014000002042CB
:1024B000DF48006840F00100DD49086008464068D8
:1024C000DC490840DA49486008460068DA490840B3
:1024D000D74908600846006820F480200860084654
:1024E000406820F4FE0048604FF41F008860704789
:1024F000CF49096821F48031CD4A1160114609683D
:1025000021F480211160B0F5803F03D0B0F5802F19
:102510000ED106E0C649096841F48031C44A116011
:1025200007E0C349096841F4A021C14A116000E0F5
:1025300000BF00BF704710B50146002200230020F5
:102540004A11012A02D1BA4C236806E0022A02D1BC
:10255000B74C236A01E0B64C636A01F01F02012404
:1025600094401C400CB1012000E0002010BD38B5A3
:10257000002000900024002500BF3120FFF7DBFF82
:1025800005460098401C00900098B0F5A06F01D05F
:10259000002DF2D03120FFF7CEFF08B1012400E07A
:1025A0000024204638BD01460020A14A106820F0D2
:1025B000F80040EAC10010607047A0490860704709
:1025C000024600209A4B586820F47C1042EA01032E
:1025D0001843974B58607047984908667047014602
:1025E0000020934A506820F0030008435060704771
:1025F0008F48406800F00C007047014600208C4A6C
:10260000506820F0F00008435060704701460020F9
:10261000874A506820F4E0600843506070470146E4
:102620000020834A506820F4605040EAC1005060A6
:10263000704729B17E4A527A02437D4B5A7204E0B8
:102640007B4A527A82437A4B5A7270477B49D8311F
:102650000860704701460020754A506820F44040E9
:102660000843506070470021714A20321170704A4F
:1026700082F82010012802D004280AD104E00121A8
:102680006B4A2032117005E00521694A2032117031
:1026900000E000BF00BF70476949086070476449A7
:1026A000096A0143624A116270476549443908600A
:1026B000704730B500210022002400235C4D6D6876
:1026C00005F00C0121B1042905D0082923D105E02A
:1026D0005C4D056022E05B4D05601FE0544D6D6868
:1026E00005F47012524D6D6805F48034022505EB37
:1026F00092421CB9544D554305600BE04C4D6D683A
:1027000005F400351DB1504D5543056002E04D4DB7
:102710005543056002E04B4D056000BF00BF444DCE
:102720006D6805F0F0010909484D6B5C0568DD40F6
:1027300045603F4D6D6805F4E061090A434D6B5CEF
:102740004568DD4085603A4D6D6805F46051C90A01
:102750003E4D6B5C4568DD40C560354D6D6805F4E8
:102760004041890B3A4D6B5CC568B5FBF3F50561DB
:1027700030BD29B12E4A526902432D4B5A6104E003
:102780002B4A526982432A4B5A61704729B1284A21
:1027900092690243264B9A6104E0254A926982437A
:1027A000234B9A61704729B1214AD2690243204BD9
:1027B000DA6104E01E4AD26982431D4BDA61704738
:1027C00029B11B4AD2680243194BDA6004E0184A67
:1027D000D2688243164BDA60704729B1144A1269F5
:1027E0000243134B1A6104E0114A12698243104BF1
:1027F0001A61704712494039086070470F49C86430
:1028000070470B49C87170470948406A40F08070B2
:1028100007494862704701460020054A92680A400D
:102820000AB1012000E0002070470149887270471A
:10283000001002400000FFF8FFFFF6FE00004242D9
:102840008004424200127A0000093D006B02002021
:102850007B02002010B50446FB48844209D10121C7
:102860008803FFF7ADFF00214FF48040FFF7A8FF7A
:1028700032E0F648844209D101214804FFF7ADFF58
:1028800000214FF40030FFF7A8FF25E0F048844214
:1028900009D101218804FFF7A0FF00214FF4802017
:1028A000FFF79BFF18E0EB48844209D10121C804DF
:1028B000FFF793FF00214FF40020FFF78EFF0BE09E
:1028C000E548844208D101210805FFF786FF002171
:1028D0004FF48010FFF781FF10BD2DE9F04786B05F
:1028E00005460E460024A24600BFA1460027B08937
:1028F00000B100BF2F462C8A4CF6FF700440F088D0
:1029000004432C82AC894EF6F3100440B088318920
:102910000843718908430443AC81AC8A4FF6FF40F9
:102920000440B0890443AC8201A8FFF7C2FEC64848
:10293000874202D1DDF810A001E0DDF80CA0A889E3
:1029400000F4004040B10AEBCA0000EB0A10316805
:102950004900B0FBF1F807E00AEBCA0000EB0A10EF
:1029600031688900B0FBF1F86420B8FBF0F0040195
:102970002009642101FB1089A88900F4004040B1BE
:10298000322000EBC900B0FBF1F000F00700044377
:1029900008E0322000EB09106421B0FBF1F000F0F8
:1029A0000F0004432C8106B0BDE8F0874FF41651A8
:1029B000016000218180C18001810C2141810021C1
:1029C0008181704710B502460020108A4FF2FF0344
:1029D00018400B884C8823438C882343CC8823439E
:1029E0001843108210BD0021018041808180C18088
:1029F000704721B1828942F40052828104E08289C9
:102A00004DF6FF731A4082817047F0B503460024EB
:102A100000260025002040F66A17B94200D100BF09
:102A20001846C1F3421401F01F06012707FA06F504
:102A3000012C01D10C3004E0022C01D1103000E057
:102A400014301AB107682F43076002E00768AF43EC
:102A50000760F0BD1AB1838A0B43838202E0838A48
:102A60008B4383827047028A4FF6F0731A400282CA
:102A7000028A0A430282704782894FF2FF731A402A
:102A8000828182890A438281704721B1828942F022
:102A90000202828104E082894FF6FD731A4082812E
:102AA0007047028A4FF6DF731A400282028A0A4395
:102AB0000282704721B1028A42F48042028204E01D
:102AC000028A4BF6FF731A4002827047C1F3080274
:102AD0008280704701468888C0F30800704781896A
:102AE00041F0010181817047028BD2B20283028BD7
:102AF00042EA012202837047028B02F47F42028382
:102B0000028B0A430283704721B1828A42F020027D
:102B1000828204E0828A4FF6DF731A408282704715
:102B200021B1828A42F01002828204E0828A4FF64A
:102B3000EF731A408282704721B1828A42F0080204
:102B4000828204E0828A4FF6F7731A4082827047CD
:102B500021B1828942F40042828103E08289C2F37A
:102B60000E028281704721B1828A42F40062828221
:102B700004E0828A4FF2FF731A4082827047828A91
:102B80004FF6FB731A408282828A0A438282704720
:102B900021B1828A42F00202828204E0828A4FF6E8
:102BA000FD731A408282704702460020B1F5007F13
:102BB00000D100BF13880B400BB1012000E00020C2
:102BC000704701F40072B2F5007F00D100BFCA4324
:102BD0000280704770B502460024002300250020C3
:102BE00040F66A16B14200D100BFC1F3421501F0B0
:102BF0001F03012606FA03F3012D02D19689334003
:102C000006E0022D02D1168A334001E0968A334055
:102C10000C12012606FA04F41688344013B10CB1E4
:102C2000012000E0002070BD10B50022002340F616
:102C30006A14A14200D100BF0A1201249440A3B239
:102C4000DC43048010BD0000003801400044004017
:102C500000480040004C00400050004010B50446C1
:102C6000FE48844208D10121C014FFF7A9FD0021CC
:102C7000E014FFF7A5FDC4E0B4F1804F08D10121B5
:102C80000846FFF7AAFD00210120FFF7A6FDB8E0E6
:102C9000F348844208D101210220FFF79EFD002164
:102CA0000220FFF79AFDACE0EE48844208D10121F2
:102CB0000420FFF792FD00210420FFF78EFDA0E025
:102CC000E948844208D101210820FFF786FD002150
:102CD0000820FFF782FD94E0E448844208D10121F6
:102CE0001020FFF77AFD00211020FFF776FD88E025
:102CF000DF48844208D101212020FFF76EFD00212A
:102D00002020FFF76AFD7CE0DA48844208D10121E7
:102D10004014FFF755FD00216014FFF751FD70E0EE
:102D2000D548844209D10121C804FFF749FD00219B
:102D30004FF40020FFF744FD63E0D048844209D1FE
:102D400001210805FFF73CFD00214FF48010FFF73B
:102D500037FD56E0CA48844209D101214805FFF7F2
:102D60002FFD00214FF40010FFF72AFD49E0C54870
:102D7000844208D101214020FFF72FFD002140208F
:102D8000FFF72BFD3DE0C048844208D1012180209F
:102D9000FFF723FD00218020FFF71FFD31E0BB4836
:102DA000844208D101218015FFF717FD0021A015ED
:102DB000FFF713FD25E0B648844209D1012108043C
:102DC000FFF7FEFC00214FF48030FFF7F9FC18E01C
:102DD000B048844209D101214804FFF7F1FC0021E9
:102DE0004FF40030FFF7ECFC0BE0AB48844208D115
:102DF00001218804FFF7E4FC00214FF48020FFF755
:102E0000DFFC10BD00220288944B98420ED0994BF3
:102E100098420BD0B0F1804F08D0914B984205D02A
:102E2000904B984202D0904B984204D14FF68F734A
:102E30001A404B881A438D4B984207D08C4B9842CE
:102E400004D04FF6FF431A40CB881A4302808B8888
:102E500083850B880385814B98420BD0854B984224
:102E600008D08B4B984205D08A4B984202D08A4BAF
:102E7000984201D10B7A038601238382704770B593
:102E8000002400220023058C4FF6FE763540058491
:102E9000028C8388048B4FF68F752C40B51E2C4016
:102EA0000D882C43751E2A400D892A434D882A43DC
:102EB0006A4DA8420BD06F4DA84208D0744DA8426D
:102EC00005D0744DA84202D0734DA84213D14FF6DD
:102ED000F7752A404D892A434FF6FB752A408D88A5
:102EE0002A434FF6FF652B404FF6FF552B408D8947
:102EF0002B43CD892B4383800483CD888586028430
:102F000070BD70B5002400220023058C4FF6EF76CB
:102F100035400584028C8388048B48F6FF752C406D
:102F20004FF6FF452C400D884FF6FF7606EA052543
:102F30002C434FF6DF752A400D8906EA05152A4312
:102F40004D8806EA05152A43444DA84202D0494D52
:102F5000A8421DD14FF67F752A404D894FF6FF7666
:102F600006EA05152A434FF6BF752A408D8806EA02
:102F700005152A434FF6FF352B404FF2FF752B40C6
:102F80008D8906EA85052B43CD8906EA85052B4305
:102F900083800483CD880587028470BD70B50024CA
:102FA00000220023058C4FF6FF6635400584028C15
:102FB0008388848B4FF68F752C404FF6FC752C4020
:102FC0000D882C434FF6FF552A400D894FF6FF76AA
:102FD00006EA05252A434D8806EA05252A431F4DA2
:102FE000A84202D0234DA8421DD14FF2FF752A40BE
:102FF0004D894FF6FF7606EA05252A434FF6FF3541
:103000002A408D8806EA05252A434EF6FF752B4097
:103010004DF6FF752B408D8906EA05152B43CD89AA
:1030200006EA05152B4383808483CD888587028437
:1030300070BD70B5002200230024058C4EF6FF768B
:1030400035400584038C8488828B48F6FF752A40BE
:103050004FF6FF452A400D8820E00000002C01407B
:103060000004004000080040000C00400010004038
:103070000014004000340140004C01400050014069
:103080000054014000180040001C00400020004097
:103090000040014000440140004801404FF6FF76E7
:1030A00006EA05252A434DF6FF752B400D8906EAF1
:1030B00005352B434D8806EA05352B43FA4DA842CA
:1030C00002D0FA4DA84208D14BF6FF752C408D89ED
:1030D0004FF6FF7606EA85152C4384808283CD88DF
:1030E000A0F84050038470BD828B4FF2FF331A402A
:1030F0008283828B4FF6FF7303EA01231A43828394
:103100007047F0B50C461546002200210026078CBA
:103110004EF6FF7C07EA0C070784828B018C4FF682
:10312000FF7707EA043640F6FF473A404FF6FF774D
:1031300007EA05273A434FF6FF7707EA03373A4392
:10314000D94FB8420ED0D94FB8420BD0B0F1804F12
:1031500008D0D74FB84205D0D64FB84202D0D64F8C
:10316000B84206D14DF6FF77394046F480573943CF
:1031700005E047F6FF57394044F4805739438283CE
:103180000184F0BD828B4FF6F3731A408283828BE9
:103190000A4382837047F0B50C4615460022002191
:1031A0000026078C4FF6FF6C07EA0C070784828B1A
:1031B000018C4FF6FF7707EA04264FF60C773A406A
:1031C0004FF6FF7707EA03172F433A43B64FB8424B
:1031D0000ED0B64FB8420BD0B0F1804F08D0B44FEC
:1031E000B84205D0B34FB84202D0B34FB84206D16F
:1031F0004FF6FF57394046F48077394305E04FF2E8
:10320000FF57394044F48077394382830184F0BD0D
:10321000028B4FF2FF331A400283028B4FF6FF738B
:1032200003EA01231A4302837047F0B50C461546A2
:10323000002200210026078C4FF6EF7C07EA0C07DE
:103240000784028B018C4FF6FF7707EA041640F6DD
:10325000FF473A404FF6FF7707EA03373A434FF606
:10326000FF7707EA05273A438F4FB8420ED08F4FBA
:10327000B8420BD0B0F1804F08D08D4FB84205D086
:103280008C4FB84202D08C4FB84206D14FF6DF7750
:10329000394046F01007394305E04FF65F77394073
:1032A00044F01007394302830184F0BD028B4FF6CE
:1032B000F3731A400283028B0A4302837047F0B50E
:1032C0000C46154600220021068C4FF6FE773E4044
:1032D0000684028B018C4FF60C7632407E1C06EA87
:1032E00003162E433243704EB0420ED06F4EB042A2
:1032F0000BD0B0F1804F08D06D4EB04205D06D4E6E
:10330000B04202D06C4EB04206D14FF6FD7631404D
:1033100044F00106314305E04FF6F576314044F0C4
:103320000106314302830184F0BD70B505460C46A9
:103330005D4885420ED05D4885420BD0B5F1804F87
:1033400008D05B48854205D05A48854202D05A4889
:10335000854200D100E000BF208850B92389A288AF
:1033600061882846FFF7ABFFE1882846FFF79EFFFC
:1033700025E0208804280AD12389A288618828466C
:10338000FFF753FFE1882846FFF742FF17E0208848
:1033900008280AD12389A28861882846FFF7FBFE06
:1033A000E1882846FFF7EEFE09E02389A2886188BC
:1033B0002846FFF7A6FEE1882846FFF795FE70BD78
:1033C0002DE9F04105460C4600260127608808B922
:1033D000022600E00026A088012801D1022700E093
:1033E00001272088A0B92389A28861882846FFF791
:1033F00066FFE1882846FFF759FF23893A463146A0
:103400002846FFF712FFE1882846FFF701FF13E087
:103410002389A28861882846FFF707FFE1882846AC
:10342000FFF7F6FE23893A4631462846FFF747FF65
:10343000E1882846FFF73AFFBDE8F0810A884B880B
:103440001A438B881A43CB881A430B891A434B893A
:103450001A438B891A43A0F8442070474FF6FF7136
:10346000818000210180C18041800172704700216C
:10347000018041808180C180018141818181C18140
:103480007047002101804180012181800021C1809D
:10349000018170470021018041808180C1800181CC
:1034A0004181818170470000002C014000340140BF
:1034B0000004004000080040000C004021B10288D8
:1034C00042F00102028004E002884FF6FE731A40C7
:1034D0000280704731B1B0F8442042F40042A0F8B5
:1034E000442005E0B0F84420C2F30E02A0F84420C6
:1034F00070471AB183890B43838102E083898B4330
:10350000838170478182704741EA0203A0F8483006
:1035100070471AB183890B43838102E083898B430F
:103520008381704701894FF6F8721140018170471D
:103530000A46002101894FF68F731940114301811A
:10354000704730B504460D4629462046FFF7F0FF88
:10355000208940F00700208130BD2DE9F04104466C
:103560000D4616461F46602D06D13B4601223146C8
:103570002046FFF75AFE05E03B4601223146204631
:10358000FFF79DFE29462046FFF7D2FF208940F035
:1035900007002081BDE8F08130B50C46002101898B
:1035A000C9B24FF6FF7505EA0325154325432943A4
:1035B000018130BD2DE9F04105460E46174698467B
:1035C000002443463A4631462846FFF7E5FF2C895A
:1035D0004FF6F870044044F007044FF68F70044033
:1035E00044F070042C81BDE8F081F0B504460D462E
:1035F00016461F463B46324629462046FFF7CCFF7B
:10360000208940F480402081F0BD0185828270478E
:103610000A46002101884FF68F731940114301803B
:103620007047F0B50C4615461E46002100220023C7
:103630000189028B038C4FF6F877394021434FF60E
:10364000FC473A4040F201173A434FF6DD773B40E2
:103650004FF6FF7707EA06172F433B4301810283AA
:103660000384F0BD0A460021018B4FF68F73194089
:103670001143018370470A460021018B48F6FF730E
:1036800019404FF6FF7303EA022319430183704781
:103690000A460021818B4FF68F73194011438183B5
:1036A00070470A460021818B48F6FF7319404FF698
:1036B000FF7303EA022319438183704721B1028813
:1036C00042F08002028004E002884FF67F731A40C5
:1036D0000280704721B1828842F00402828004E0B7
:1036E00082884FF6FB731A408280704721B182882E
:1036F00042F00802828004E082884FF6F7731A4095
:103700008280704721B1828842F00102828004E009
:1037100082884FF6FE731A40828070470A46002165
:10372000018B4FF6F77319401143018370470A4626
:103730000021018B4FF2FF7319404FF6FF7303EA2C
:1037400002231943018370470A460021818B4FF6FB
:10375000F77319401143818370470A460021818B1A
:103760004FF2FF7319404FF6FF7303EA0223194328
:10377000818370470A460021018B4FF6FB73194085
:103780001143018370470A460021018B4FF6FF3336
:1037900019404FF6FF7303EA022319430183704770
:1037A0000A460021818B4FF6FB7319401143818338
:1037B00070470A460021818B4FF6FF3319404FF6C0
:1037C000FF7303EA02231943818370470A460021ED
:1037D000018B4FF67F7319401143018370470A46EE
:1037E0000021018BC1F30E014FF6FF7303EA0223A0
:1037F0001943018370470A460021818B4FF67F737E
:1038000019401143818370470A460021818BC1F31F
:103810000E014FF6FF7303EA0223194381837047B9
:103820000A460021018C4FF6FD73194011430184B3
:1038300070470A460021018C4FF6F7731940114377
:10384000018470470A460021018C4FF6DF7319404E
:103850004FF6FF7303EA02131943018470470A46C7
:103860000021018C4FF67F7319404FF6FF7303EA76
:1038700002131943018470470A460021018C4FF658
:10388000FF5319404FF6FF7303EA022319430184E3
:1038900070470A460021018C4FF2FF7319404FF622
:1038A000FF7303EA02231943018470470A4600218B
:1038B000018C4DF6FF7319404FF6FF7303EA023394
:1038C00019430184704730B5002301248C40A3B212
:1038D000048C9C430484048C02FA01F5ADB22C43A1
:1038E000048430BD30B5002304248C40A3B2048C82
:1038F0009C430484048C02FA01F5ADB22C43048489
:1039000030BD70B50346002000241846183001254C
:103910008D40ACB21D8CA5431D8409B1082909D185
:1039200000EB6100056825F070050560056815432A
:1039300005600EE00D1FC5F34E052844056825F40B
:10394000E045056005684FF6FF7606EA0226354336
:10395000056070BD21B1028842F00202028004E0DD
:1039600002884FF6FD731A400280704721B1028829
:1039700042F00402028004E002884FF6FB731A4012
:103980000280704721B1828842F08002828004E088
:1039900082884FF67F731A408280704702884FF604
:1039A000F7731A40028002880A43028070478288B7
:1039B0004FF68F731A40828082880A438280704754
:1039C00002894FF6F8731A40028102890A43028184
:1039D000704702894FF67F731A40028102890A43B9
:1039E0000281704781847047818570478186704766
:1039F0000187704781877047A0F8401070470288A0
:103A00004FF6FF431A40028002880A430280704743
:103A10000146888E70470146088F70470146888F9F
:103A200070470146B1F8400070470146888C7047E6
:103A30000146088D704702460020138A0B400BB1E7
:103A4000012000E000207047CA430282704730B571
:103A50000246002000230024158A05EA0103958907
:103A600005EA010413B10CB1012000E0002030BDD3
:103A7000CA4302827047000010B50446FA488442E7
:103A800008D101214015FEF79BFE00216015FEF7CD
:103A900097FE17E0F548844208D101210015FEF792
:103AA0008FFE00212015FEF78BFE0BE0F0488442CC
:103AB00008D10121C803FEF783FE00214FF4004026
:103AC000FEF77EFE10BD30B5024600200023506890
:103AD000E84C20400D790C6844EA052420435060EE
:103AE0009068E54C2040D1E902542C434D7944EADA
:103AF000450420439060D06A20F470000C7C641E62
:103B0000E4B2234340EA0350D06230BD002101609B
:103B1000017141718160C16001210174704721B15F
:103B2000826842F00102826003E0826822F00102B2
:103B30008260704721B1826842F48072826003E043
:103B4000826822F480728260704710B50023CBB285
:103B50001AB144681C43446002E044689C434460DA
:103B600010BD816841F00801816070470146002066
:103B70008A6802F008020AB1012000E000207047C4
:103B8000816841F0040181607047014600208A6825
:103B900002F004020AB1012000E00020704721B1C8
:103BA000826842F4A002826003E0826822F4A002EC
:103BB00082607047014600208A6802F480020AB1E0
:103BC000012000E00020704710B50A4600210023C4
:103BD000416821F46041531E41EA4331416010BD08
:103BE00021B1426842F40062426003E0426822F47C
:103BF000006242607047F0B504460D460020002187
:103C0000092D11DDE068A5F10A0606EB4607072637
:103C100006FA07F18843A5F10A0606EB460603FA01
:103C200006F10843E0600CE0206905EB4507072634
:103C300006FA07F1884305EB450603FA06F1084347
:103C40002061072A0FDA606B561E06EB86071F26D7
:103C500006FA07F18843561E06EB860605FA06F1BA
:103C60000843606322E00D2A0FDA206BD61F06EBB3
:103C700086071F2606FA07F18843D61F06EB86063D
:103C800005FA06F10843206310E0E06AA2F10D0690
:103C900006EB86071F2606FA07F18843A2F10D06F8
:103CA00006EB860605FA06F10843E062F0BD21B195
:103CB000826842F48012826003E0826822F48012FB
:103CC000826070470146C86C80B2704766484C30CD
:103CD0000068704721B1426842F48062426003E0AC
:103CE000426822F480624260704721B1426842F427
:103CF0008052426003E0426822F480524260704782
:103D00000A460021816821F4E04111438160704737
:103D100021B1826842F40042826003E0826822F4AA
:103D200000428260704721B1826842F402128260D0
:103D300003E0826822F4021282607047014600208C
:103D40008A6802F400120AB1012000E000207047E6
:103D5000F0B504461546002000220026092911DD91
:103D6000E068A1F10A0707EB470C072707FA0CF2F6
:103D70009043A1F10A0707EB470703FA07F2104344
:103D8000E0600CE0206901EB410C072707FA0CF218
:103D9000904301EB410703FA07F210432061A06B47
:103DA000C0F30156EF1C06F1010CA7EB0C0707EB63
:103DB000870C1F2707FA0CF29043EF1C06F1010C49
:103DC000A7EB0C0707EB870701FA07F21043A06384
:103DD000F0BD10B50A4600210023816B21F440118B
:103DE000531E41EA0351816310BD08B500230093BF
:103DF0000090009B0B440093009B1A6008BD08B51F
:103E0000024600200090009201F12800009B184417
:103E100000900098006880B208BD0A460021416801
:103E2000164B1940114341607047416282627047EE
:103E30000A460021416821F01F011143416070478B
:103E400040B109490831096841F40001064A0832C5
:103E5000116007E004490831096821F40001024AB1
:103E60000832116070470000002401400028014022
:103E7000003C0140FFFEF0FFFDF7F1FFFFFD3FFFBB
:103E80000246002013680B400BB1012000E0002027
:103E90007047CA430260704770B502460020002395
:103EA00000240B125568CEB205EA060415681D40C1
:103EB00015B10CB1012000E0002070BD00220A12F3
:103EC000D34303607047000001460020FE4A10689B
:103ED00000F03800084310607047FB49096821F082
:103EE0000801F94A116011460968014311607047E1
:103EF000F549096821F01001F34A1160114609687B
:103F0000014311607047F148EF494860F04848604C
:103F10007047EE48EC494860ED4848607047EA4811
:103F2000006940F08000E84908617047E648006990
:103F300040F08000E449086170470420E249C96804
:103F400001F0010109B101200EE0DF49C96801F06B
:103F5000040109B1022007E0DB49C96801F0100142
:103F600009B1032000E00420704700B50246042395
:103F7000FFF7E3FF034603E0FFF7DFFF0346521EB0
:103F8000012B01D1002AF7D102B90523184600BD43
:103F900030B5044604254FF43020FFF7E6FF054610
:103FA000042D17D1C848006940F00200C6490861D5
:103FB00008464461006940F0400008614FF4302039
:103FC000FFF7D3FF0546C048006941F6FD71084080
:103FD000BD490861284630BD10B504244FF4302097
:103FE000FFF7C3FF0446042C16D1B748006940F020
:103FF0000400B54908610846006940F040000861C6
:104000004FF43020FFF7B1FF0446AF48006941F696
:10401000FB710840AC490861204610BD00B502465E
:104020000423FFF78AFF034603E0FFF786FF0346FA
:10403000521E012B01D1002AF7D102B905231846DF
:1040400000BD10B504244FF43020FFF7E7FF04460D
:10405000042C16D19C48006940F004009A4908617C
:104060000846006940F0400008614FF43020FFF737
:10407000D5FF04469448006941F6FB710840924917
:104080000861204610BD00208F49C96901F0020176
:1040900009B1012000E00020704730B5A5250424B7
:1040A000FFF7F1FF00B100254FF43020FFF75DFF6F
:1040B0000446042C3AD18548834988608448886046
:1040C0000846006940F0200008610846006940F099
:1040D000400008614FF43020FFF747FF0446042CEE
:1040E0001BD17948006941F6DF71084076490861C3
:1040F0000846006940F01000086176480580E0023B
:10410000FFF733FF0446052C10D06F48006941F6D5
:10411000EF7108406C49086108E0052C06D06A4838
:10412000006941F6EF71084067490861204630BDDB
:1041300078B506460C46042500200090E802FFF7FB
:1041400014FF0546042D24D15F48006940F00100AA
:104150005D4908613480E802FFF707FF0546042D3A
:1041600010D1B01C0090200C00990880E802FFF7E5
:10417000FCFE05465448006941F6FE71084052496C
:10418000086106E05048006941F6FE7108404E495A
:104190000861284678BD70B504460D460426F00235
:1041A000FFF7E3FE0646042E11D14748006940F0B0
:1041B0000100454908612580F002FFF7D6FE06465A
:1041C0004148006941F6FE7108403F4908613046A8
:1041D00070BD70B505460E460424E002FFF7C5FE2B
:1041E0000446042C17D1394837498860384888601C
:1041F0000846006940F0100008612E80E002FFF7D9
:10420000B4FE0446052C06D02F48006941F6EF7134
:1042100008402D490861204670BD2DE9F043044651
:104220004FF6FF763746B046B1460425E443E6B282
:10423000C4F30727C4F307484FEA1469E802FFF7FD
:1042400094FE0546042D49D120481F498860204826
:1042500088600846006940F010000861FF2E06D013
:104260001C4808300680E802FFF77FFE0546042D53
:1042700008D1FF2F06D017480A300780E802FFF761
:1042800074FE0546042D0AD1B8F1FF0F07D011487E
:104290000C30A0F80080E802FFF767FE0546042D09
:1042A0000AD1B9F1FF0F07D00A480E30A0F80090EC
:1042B000E802FFF75AFE0546052D0FD002480069B7
:1042C00041F6EF71084007E00020024023016745F6
:1042D000AB89EFCD00F8FF1F664908612846BDE8AD
:1042E000F08330B5054604244FF43020FFF73DFE3F
:1042F0000446042C41D160485E4988605F4888606C
:104300000846006940F0200008610846006940F056
:10431000400008614FF43020FFF727FE0446042CCC
:1043200022D15448006941F6DF71084051490861C3
:104330000846006940F0100008611DB10020504996
:10434000088002E0A5204E4908804FF43020FFF796
:104350000CFE0446052C10D04648006941F6EF716A
:1043600008404449086108E0052C06D0414800692E
:1043700041F6DF7108403F490861204630BDF0B585
:1043800005460E46174604243B483A4988603B4898
:104390008860E002FFF7E9FD0446042C19D1354896
:1043A000006940F010003349086147F0F8003043DD
:1043B00028433349891C0880E002FFF7D6FD0446F4
:1043C000052C06D02B48006941F6EF7108402949B9
:1043D00008612046F0BD2748C0698008704725481D
:1043E000006A704700202349096801F0200109B1E3
:1043F000012000E00020704729B11E4A12690243E3
:104400001C4B1A6104E01B4A12698243194B1A6162
:10441000704701460020012908D1164AD26902F0EE
:1044200001020AB1012008E0002006E0114AD2682A
:104430000A400AB1012000E0002070470D49C86021
:10444000704704200B49C96801F0010109B101203E
:104450000EE00849C96801F0040109B1022007E033
:104460000449C96801F0100109B1032000E00420EB
:10447000704700000020024023016745AB89EFCD63
:1044800000F8FF1F704700000FB4044910B503AADD
:10449000029800F03BF910BC5DF814FB64020020A8
:1044A0002DE9F0410E460446002020622046E168D6
:1044B000884730B3252805D0D4E901219047206AE8
:1044C000401CF2E7E168204600278847050018D025
:1044D000A5F14100192802D820354FF40067324673
:1044E000294620462760FBF77DFE40B1012804D015
:1044F000F61D26F007060836D8E7361DD6E728460B
:10450000DAE7206ABDE8F0812DE9F0410646002493
:1045100010687529314616A510D0AFF30080002829
:1045200002DA404213A507E031688A0701D512A5D7
:1045300002E0490704D511A5012401E0AFF3008092
:1045400000210A2206F1240709E0B0FBF2FCB0FBCF
:10455000F2F302FB1C00303078541846491C002846
:10456000F3D123462A463046BDE8F04100F074B846
:10457000000000002D0000002B00000020000000C3
:104580004FF0000200B5134694469646203922BFEC
:10459000A0E80C50A0E80C50B1F12001BFF4F7AF37
:1045A000090728BFA0E80C5048BF0CC05DF804EB19
:1045B000890028BF40F8042B08BF704748BF20F887
:1045C000022B11F0804F18BF00F8012B704700003C
:1045D0004FF0013C50F8042B51F8043B9A4221D192
:1045E000A2EB0C03934313EACC1317D150F8042B1E
:1045F00051F8043B9A4215D1A2EB0C03934313EA02
:10460000CC130BD150F8042B51F8043B9A4209D13A
:10461000A2EB0C03934313EACC13DBD04FF0000062
:10462000704700BFD01A01BAB1FA81F101F0180148
:1046300022FA01F0CB40C1F12001DBB2C0B2C01AB6
:104640002CFA01F3D11A914311EAC311E6D1704754
:1046500070477047704770472DE9F0470D469946FF
:104660009246044600F124080168880604D5E069F2
:1046700021F01001216000E00120A84201DD471B6C
:1046800000E00027A1697A1902EB0900081AA0616D
:104690002078C00602D42046AFF30080002608E050
:1046A000D4E901211AF806009047206A401C761CC4
:1046B00020624E45F4DB2078C0060AD52046AFF3D1
:1046C000008006E0D4E9012130209047206A401C98
:1046D0002062381EA7F10107F4DC07E0D4E90121CC
:1046E00018F805009047206A401C2062281EA5F19A
:1046F0000105F3DC2046AFF300802078000602D5E8
:104700000220BDE8F0870120FBE70000074B70B5F1
:104710000D467B4400F011F80446284600F020F8CE
:1047200010B14FF0FF3070BD204670BD81D7FFFF44
:1047300001694A1C02610878704700B58FB0CDE965
:1047400001310021059105497944CDE90310114655
:104750006846FFF7A5FE0FB000BD0000E5FFFFFFB4
:10476000007B00F080007047754600F029F8AE46E7
:1047700005006946534620F00700854618B020B56D
:10478000FDF768FCBDE820404FF000064FF0000741
:104790004FF000084FF0000B21F00701AC46ACE8E9
:1047A000C009ACE8C009ACE8C009ACE8C0098D4656
:1047B00070470446AFF300802046FBF725FD00005C
:1047C00000487047F82000202DE9C04130B4DFF8E0
:1047D000A0C23CEA111418BF3CEA131400F0EC80AC
:1047E00081EA03051CEA111444EAD57418BF1CEAD7
:1047F000131500F0C780A4EB05044FF0004545EA0F
:10480000C12145EAC32341EA505143EA525304F11E
:104810007F74994204F500344FEAC0204FEAC22267
:1048200008BF904200F09C804FEA13650FF24016DB
:10483000765D4FEA134506FB05F7C7F1807706FB67
:1048400007F74FEAD737A7FB03687642C8F58038E9
:10485000A7FB06CE38BFA8F1010807FB08E64FF01A
:10486000000EA6FB028CE6FB03CEDCF1000CCEF1C1
:10487000004E38BFAEF1010EA6FB0C584FF00007FA
:104880004FF00005E6FB0E87A1FB08C6A0FB07CE94
:1048900016EB0E0645F10005E1FB076515F1E04E4C
:1048A0007EBFA4F580345FEA46066D4116F18007AD
:1048B00045F100054FEA17274FEA066647EA056704
:1048C000A6F1DE46B6F1805F4FEA15251FD93846BE
:1048D00024F0010C05EBC471BCF1FE6F01EB0C116F
:1048E00002D8F0BCBDE8008124425CBF01F5801E07
:1048F0009EEAC47F02D4F0BCBDE80081244238D4D3
:10490000F0BCA1F1C041BDE8004100F0EDB94FEAB3
:10491000D22242EA43524FEAD323A7FB02864FEA50
:10492000D02040EA415007FB03661EEA0E0F4FEA13
:10493000D12105FB026658BFA6EB0056B6EB005628
:104940004FEA520E4EEAC37E18EB0E0E56EB530E94
:10495000BDD518EB02085E417F1C55F10005B6E796
:104960004FF480154FF000074FF000064FF000089D
:10497000ADE7F0BC4FF0000001F1C04101F0004193
:10498000BDE8008111EA0C1F0CEA131500D00CE001
:1049900013EA0C1F00F025804FF00000F0BC81EA04
:1049A000030101F00041BDE80081F0BCBDE8004119
:1049B00081EA030100F098B9F0BCBDE8004170B590
:1049C00000F044F9097EFC3E00F007B881EA0301DB
:1049D0004FF0000001F00041704781EA030100F050
:1049E00083B9F0BCBDE800414FF000002149704799
:1049F000FFFDFBF9F7F5F4F2F0EEEDEBE9E8E6E4A4
:104A0000E3E1E0DEDDDBDAD8D7D5D4D3D1D0CFCD2A
:104A1000CCCBCAC8C7C6C5C4C2C1C0BFBEBDBCBB63
:104A2000BAB9B8B7B6B5B4B3B2B1B0AFAEADACAB5E
:104A3000AAA9A8A8A7A6A5A4A3A3A2A1A09F9F9E38
:104A40009D9C9C9B9A9999989797969595949393EA
:104A5000929191908F8F8E8E8D8C8C8B8B8A898981
:104A60008888878786858584848383828281818004
:104A70000000FF070000F87F4FEA1153A3F58063A1
:104A8000D3F11E03A8BFD3F1200C08DB4FF0004286
:104A900042EAC12252EA505232FA03F07047094208
:104AA0000BD4102BC4BF0020704703F5787CBCF1F9
:104AB000FF3F05D04FF0FF3070474FF000007047C8
:104AC00070B500F0C3F800BF499224800020704701
:104AD000F0E7B0FA80F310FA03F10AD0C3F11D0336
:104AE00003F580634FEA41504FEA035202EBD121B4
:104AF00070474FF000007047DFF848C170B51CEAFE
:104B0000111E1EBF1CEA13159EEA0C0F95EA0C0F2E
:104B100000F06F8081EA030423EA4C134EEAD47E4E
:104B200021EA4C1141F4801143F48013AE44A1FBFF
:104B3000024CA0FB0365AEF17F7E361955EB0C05E8
:104B4000A1FB034C4CF10003A0FB021C16EB0C066E
:104B5000654153F10003094218BF46F0010613F402
:104B6000007F0BD14FEA03314FEA0530340341EAAD
:104B7000155140EA16506FF003020AE04FEAC321D4
:104B80004FEAC520F40241EA555140EA56506FF011
:104B9000020202EB2E4201EB025585EACE710AD0E9
:104BA0005FEA440C18BF24F0004450F1000041F1CA
:104BB000000120EAD47040F2FE7C624500D270BD54
:104BC000A84214BF4FF080444FF04044002E08BF6D
:104BD0000024BEF1806FA8BFA1F1C041BDE87040C4
:104BE00080F282804FF0000001F1C04101F00041ED
:104BF00070479EEA0C0F0CEA131518BF95EA0C0FCC
:104C000006D04FF0000081EA030E0EF0004170BDA7
:104C100000F01CF88900013E00F007B800F009B868
:104C20004FEA430C5FEA5C5C08D081EA030100F0C4
:104C30005BB84FEA410C5FEA5C5CF6D14FF00000D4
:104C4000014970470000FF070000F87F0EF1020ED7
:104C50002EF0030E5EF8046B364205D4012A43EBB6
:104C6000030515F5001F12D8012841EB010C1CF5B6
:104C7000001F0CD80ED14FEAD17C15F5001F0CEBAC
:104C80004C0C0CF1020C08BF4CEBD37C04E04FF051
:104C9000080C01E04FEAD37C0CEB4C0526FA05F634
:104CA00006F00706B6F1040C06D20EEB860CBDE842
:104CB00070404CF0010C6047DFE80CF0090B020279
:104CC0004FF000414FF00000A1F5002170BD1946E2
:104CD0001046012851EB010418BFD4F5001484BF1D
:104CE000002001F0004170BD0808A0F500114FEA56
:104CF0003101704790EA010F48BF81F0004100F197
:104D00007081421A3CBF801A89184FEAD0524FF086
:104D10007F4C1CEA410FA2EBD15318BF9CEA026FF3
:104D200000F03B804FF0004C4CEA00204CEA01219F
:104D300021FA03FC10EB0C0C1ED202F1FF325FEAE9
:104D40001C2040EBC25038BF70471CF07F0F4FEA69
:104D5000400C18BFBCF17F4F38BF7047C3F1200330
:104D6000994008BF20F00100BCF17F4F38BF704769
:104D7000A0F1C04000F01FB94FEA3C00000A40EB30
:104D8000C25028BF1CF0FF0F4FEA400CE6D018BFFE
:104D9000BCF17F4F38BF7047EAE79CEA026F05D04D
:104DA00010EA5C0F08BF00F00040704710B500F03B
:104DB000BCF800BF64FBBE3EC10DD1F19E0206DB14
:104DC0004FEA002343F0004323FA02F07047004209
:104DD00007D54FEA4001B1F1FE4F02D24FF000007B
:104DE000704710B500F0A1F8499224800020704768
:104DF0006FEA20007047000010F0004148BF4042B9
:104E0000B0FA80F310FA03F2C3F19D030BD051EA1C
:104E1000C35101EB1220530638BF704700F1010067
:104E200008BF20F0010070474FF47F0C1CEAD0123D
:104E30001EBF1CEAD11392EA0C0F93EA0C0F00F08C
:104E4000478090EA010F48BF42F480724FF0004C57
:104E50004CEA00204CEA012102EB0302A0FB011303
:104E6000A2F50002002918BF43F001035B0028BF30
:104E70004FEA330342EB22425FEA132C4CEBC25061
:104E80002EBFBCEB436FB2F57C0F70474FEA036C4B
:104E9000BCF1004F08BF20F00100B2F57C0F38BF15
:104EA00070470BD582F0FF0212F5803FC8BF7047F4
:104EB00000F1C040D8BF00F00040704700F5000C82
:104EC0005FEA4C0C48BF7047B0F1C04000F073B8C7
:104ED00090EA010F0CEAD11348BF42F48072624598
:104EE00038BF634504D280EA010000F000407047FB
:104EF00010B500F01AF800BF8900013E00F007B8B5
:104F000000F009B85FEA410C5FEA1C6C08D080EA47
:104F1000010000F050B85FEA400C5FEA1C6CF6D16B
:104F20004FF00040A0F5800070470EF1020E2EF009
:104F3000030E5EF8044B244204D44FEA4102B2F15E
:104F40007F4F11D84FEA4003B3F17F4F0CD80ED1F9
:104F50004FEAD07CB2F17F4F0CEB4C0C0CF1020C01
:104F600008BF4CEBD17C04E04FF0080C01E04FEAA5
:104F7000D17C0CEB4C0324FA03F404F00704B4F1E5
:104F8000040C06D20EEB840CBDE810404CF0010C72
:104F90006047DFE80CF0070802024FF00040A0F580
:104FA000800010BD0846420018BFD2F1807288BF51
:104FB00000F0004010BDFF2141EAD050C00570470D
:104FC00080F0004090EA010F7FF59BAE81F0004138
:104FD00000F007B890EA010F48BF81F000413FF5AB
:104FE00090AE421A04D882F00042A0EB02001144B5
:104FF0004FEAD0524FF07F4C1CEA410FA2EBD15345
:1050000018BF9CEA026F4AD04FF0004C4CEA0020D7
:105010004CEA012121FA03FCB0EB0C0C0FD412F086
:10502000FE0F36D05FEA4C001DD5001240EBC25097
:1050300038BF70471CF03F0F18BF70470BE0A2F15C
:1050400001025FEA1C2040EBC25038BF70471CF0E1
:105050007F0F18BF7047C3F12003994014BF401E53
:1050600020F00100704780084FEA122308BF704704
:10507000B0FA80FCA2EB0C02CCF1280C60FA0CF028
:1050800093EA122F04BF00EBC25070474FEAC3707F
:105090007047130A5FEADC1008BF7047F6E79CEA26
:1050A000026F04D010EA5C0F08BF0020704710B5F3
:1050B000FFF73BFF40DFF63E81F000407047000005
:1050C000E050000800000020800200006C01000891
:1050D0003452000880020020D8240000C8010008D3
:1050E00081126453F40184A24A04480901020304B2
:1050F0000607080919011F1AC2267A013B11280860
:10510000C1814001C0804104690C2908E918A91C2B
:10511000091A30091638093660092E70092F600007
:10512000FF00C0C101C30302C2C60607C705C5C44C
:1051300004CC0C0DCD0FCFCE0E0ACACB0BC909087B
:10514000C8D81819D91BDBDA1A1EDEDF1FDD1D1CBB
:10515000DC14D4D515D71716D6D21213D311D1D04B
:1051600010F03031F133F3F23236F6F737F53534EB
:10517000F43CFCFD3DFF3F3EFEFA3A3BFB39F9F8BB
:105180003828E8E929EB2B2AEAEE2E2FEF2DEDEC5B
:105190002CE42425E527E7E62622E2E323E121208B
:1051A000E0A06061A163A3A26266A6A767A565648B
:1051B000A46CACAD6DAF6F6EAEAA6A6BAB69A9A8FB
:1051C0006878B8B979BB7B7ABABE7E7FBF7DBDBC3B
:1051D0007CB47475B577B7B67672B2B373B17170CB
:1051E000B05090915193535292965657975595942B
:1051F000549C5C5D9D5F9F9E5E5A9A9B5B9959583B
:1052000098884849894B8B8A4A4E8E8F4F8D4D4CDA
:105210008C4484854587474686824243834181800A
:105220000218402D010203040410090607080902B0
:045230000406080068
:0400000508000131BD
:00000001FF
