:020000040800F2
:10000000F0250020AD2700080103000803030008C5
:10001000070300080B0300080F030008000000009E
:1000200000000000000000000000000013030008B2
:10003000150300080000000017030008190300085A
:10004000C7270008C7270008C7270008C7270008D8
:10005000C7270008C7270008C7270008C7270008C8
:10006000C7270008C7270008C7270008C7270008B8
:10007000C7270008C7270008C7270008C7270008A8
:10008000C7270008C7270008C7270008C727000898
:10009000C7270008C7270008C7270008C727000888
:1000A000C7270008C7270008C7270008C727000878
:1000B000C7270008C727000815070008C72700083A
:1000C000C7270008C7270008C7270008C727000858
:1000D000C7270008BB260008811A0008C7270008A8
:1000E000C7270008C7270008C7270008C727000838
:1000F000C7270008C7270008C7270008C727000828
:10010000C7270008C7270008C7270008C727000817
:10011000C7270008C7270008C7270008E11A0008FA
:10012000C7270008C7270008C7270008C7270008F7
:1001300000F002F800F05FF80AA090E8000C82449A
:100140008344AAF10107DA4501D100F054F8AFF277
:10015000090EBAE80F0013F0010F18BFFB1A43F0A5
:1001600001031847CC490000EC4900000A444FF055
:10017000000C10F8013B13F0070408BF10F8014B06
:100180001D1108BF10F8015B641E05D010F8016B4B
:10019000641E01F8016BF9D113F0080F1EBF10F8AF
:1001A000014BAD1C0C1B09D16D1E58BF01F801CBD2
:1001B000FAD505E014F8016B01F8016B6D1EF9D555
:1001C0009142D6D37047000000230024002500266A
:1001D000103A28BF78C1FBD8520728BF30C148BFAA
:1001E0000B607047642904F02183002070471FB51D
:1001F0001FBD10B510BD04F06BFC1146FFF7F7FFF3
:1002000000F025F804F089FC03B4FFF7F2FF03BC0B
:1002100002F0F8F910B502F085F902F0EDF9472186
:1002200040F2E73000F04AFA01F07FFB4FF4E13092
:1002300002F0F7F900F062F900F0F8F90222204923
:10024000204802F0E3F820A004F0B0FA10BDFFF758
:10025000E1FF34E02248007848B1002020490870CE
:1002600001F0FBFF1F480068401C1E4908601E4843
:10027000007810B100201C4908701C48007820B19B
:1002800000201A49087001F0DCF91948007810B113
:100290000020174908701748007820B10020154940
:1002A000087000F060FB1448007810B1002012497B
:1002B00008701248007810B1002010490870C9E792
:1002C000901200200000070853797374656D20694F
:1002D0006E696E7420737563657373210A00000084
:1002E0001E000020340000201F00002020000020FD
:1002F00021000020220000202300002024000020F4
:10030000704700BFFEE700BFFEE700BFFEE700BF8B
:10031000FEE7704770477047704700000CB500203B
:10032000019000906C48006840F480306A49086091
:1003300000BF6948006800F4003000900198401C3C
:100340000190009818B90198B0F5A06FF1D16248FA
:10035000006800F4003010B10120009001E000209E
:1003600000900098012843D15C48006840F01000DC
:100370005A4908600846006820F0030008600846F3
:10038000006840F0020008605348406852494860E5
:100390000846406848600846406840F4806048600D
:1003A0000846406820F47C1048600846406840F4E5
:1003B000E81048600846006840F08070086000BFA0
:1003C0004548006800F000700028F9D042484068B5
:1003D00020F00300404948600846406840F00200B1
:1003E000486000BF3C48406800F00C000828F9D184
:1003F0000CBD10B5FFF792FF10BD10B53648006870
:1004000040F001003449086008464068344908401B
:100410003149486008460068324908402E49086062
:100420000846006820F4802008600846406820F4F0
:10043000FE0048604FF41F008860FFF7DAFF4FF0BE
:1004400000602949086010BD10B50021002000227D
:10045000214B5B6803F00C0121B1042906D0082967
:1004600028D107E0214B224C236027E01F4B204C72
:10047000236023E0184B5B6803F47010164B5B6835
:1004800003F48032022303EB904022B9194B43431B
:10049000174C23600DE0104B5B6803F4003323B16D
:1004A000144B4343124C236003E0104B4343104C66
:1004B000236003E00D4B0E4C236000BF00BF064BD2
:1004C0005B68C3F303130C4CE15C094B1B68CB4026
:1004D000074C236010BD00000010024000200240C5
:1004E0000000FFF8FFFFF6FE08ED00E000127A00C2
:1004F0000800002000093D000C00002008B5012183
:100500005C2002F0FDFC0120ADF8000010208DF809
:10051000030003208DF8020069463C4802F034FADB
:100520000220ADF8000010208DF8030003208DF8A4
:1005300002006946364802F027FA4AF22500ADF873
:10054000000010208DF8030003208DF8020069469A
:10055000304802F019FA42F6D420ADF8000010201D
:100560008DF8030003208DF8020069462A4802F046
:100570000BFA0121254802F0B6FA0221244802F0C4
:10058000B2FA4AF22501234802F0ADFA42F6D4212C
:10059000214802F0A8FA08BD20480078401C1F49F5
:1005A0000870084600780B2809DA01201C49086009
:1005B00000201C49C1F89C011B4908600FE0174846
:1005C0000078142803DD00201449087007E000209B
:1005D000134908601349C1F89C011349086070472A
:1005E00000200F49086001200E49C1F89C0100203D
:1005F0000D49086070470020094908600949C1F8A1
:100600009C01012008490860704700000008014073
:10061000000C014000100140001801401C000020A7
:10062000A4012342000023428481214208B5012114
:100630007C2002F065FC4FF4A240ADF80000482099
:100640008DF803006946184802F09EF945F25060A3
:10065000ADF8000048208DF803006946134802F009
:1006600093F94FF4AA50ADF8000048208DF803002C
:1006700069460F4802F088F945F2AA50ADF800002B
:1006800048208DF8030069460A4802F07DF945F2DA
:100690000240ADF8000048208DF803006946064886
:1006A00002F072F908BD000000080140000C014092
:1006B0000010014000140140001801407FB50546BC
:1006C0000C460121042002F028FCADF80850ADF8DA
:1006D00004400020ADF80A00ADF8060001A97548F5
:1006E00002F04AFF01221146724803F0BCFA1E20B4
:1006F0008DF8000000208DF8010001208DF8020027
:100700008DF80300684602F076F80121694803F08D
:100710008FFA7FBD10B50121664803F052FD002815
:1007200052D00121634803F05DFD63480088401CFE
:10073000614908800120614908705F4800880A21EA
:1007400090FBF1F201FB120010B901205C49087026
:1007500059480088052190FBF1F201FB120010B905
:1007600001205849087054480088142190FBF1F288
:1007700001FB120010B90120534908704E4800884F
:10078000642190FBF1F201FB120010B901204F49E6
:100790000870494800884FF4FA7190FBF1F201FBB0
:1007A000120010B901204A490870434800884FF4EC
:1007B0007A7190FBF1F201FB120028B90120454942
:1007C000087000203C49088010BD30B589B005464E
:1007D0000C460121022002F0A0FB0121112002F0B1
:1007E0008FFB01213C4802F0A0F94FF47070ADF886
:1007F000200018208DF8230003208DF8220008A97E
:10080000364802F0C1F8ADF81850ADF81440002099
:10081000ADF81A00ADF8160005A9314802F0ACFE9B
:100820007020ADF804000120ADF806000020ADF8FE
:100830000A00ADF80C0001A9294802F0DAFE01A96E
:10084000274802F018FF01A9254802F061FF01A91D
:10085000234802F0A8FF0121214803F0F5F90821FF
:100860001F4803F015FB08211D4803F01AFB08215F
:100870001B4803F023FB0821194803F028FB012142
:10088000174803F0D5FA0121154803F0D1F90021EA
:10089000134803F065FC0021114803F063FC0021BC
:1008A0000F4803F061FC00210D4803F05FFC09B024
:1008B00030BD000000080040260000201E0000207F
:1008C000200000201F000020210000202200002026
:1008D0002300002024000020000C1A00001001401A
:1008E0000004004010B5FA48007800283AD0F848D3
:1008F000007808281BD2DFE800F01A04080C101456
:1009000018190120F349086012E00120F14908603C
:100910000EE00120EF4948600AE00120ED494860FF
:1009200006E00120EB49886002E001E000E000BF42
:1009300000BFE7480078E849C881FFF72DFE002096
:10094000E6490870E6490870E64908600120E14977
:1009500088610020E4490870E44908600021E4A0AF
:1009600003F024FF10BD10B5FFF7BCFFE648006898
:10097000006838B9E4484068006818B10020D649DA
:10098000C8800EE0E0480068006838B1DE48406882
:10099000006818B90120D049C88002E00220CE4981
:1009A000C880D9488068006838B9D748C0680068EE
:1009B00018B10020C84908810EE0D348806800685B
:1009C00038B1D148C068006818B90120C24908810F
:1009D00002E00220C0490881CB480069006838B9AC
:1009E000C9484069006818B10020BB4948810EE041
:1009F000C5480069006838B1C3484069006818B943
:100A00000120B549488102E00220B3494881BE482F
:100A10008069006838B9BC48C069006818B1002016
:100A2000AD4988810EE0B8488069006838B1B648A1
:100A3000C069006818B90120A749888102E0022036
:100A4000A5498881B048006B0068AF49496B0968C7
:100A5000084310B101209F49C860AB48806B006813
:100A600010B101209B490861A748C06B006810B114
:100A70000120984948619C48007850B1012099496B
:100A8000083908600020A149C1F88001FFF7B3FDD3
:100A90000CE08F48007808B9FFF7A2FD00209149CB
:100AA0000839086001209949C1F8800110BD9848B3
:100AB000007830B1012805D002282ED003284FD16C
:100AC0003CE04DE08848007810B99248007890B139
:100AD0008D48006B0068F8B900208E49087001202D
:100AE0008049086002208A4908708B480078401CC1
:100AF0008949087010E07948007868B1002077498A
:100B000008700120774908600220814908708248F6
:100B10000078401C8049087022E07B48C06D006866
:100B200030B903207A49087000207B49087004E03E
:100B300079480078401C7849087011E07248C06D0F
:100B4000006838B10020674908607149087072492F
:100B5000087004E070480078401C6F49087000BFBE
:100B600000BF6D480078C82809DD00206A49087078
:100B70005C4908601420664908700A20704700200C
:100B8000FCE761480068006840B95F484068006859
:100B900020B1012053492C3908600EE05A48006802
:100BA000006840B158484068006820B900204D49AD
:100BB0002C39086001E0012070470020FCE7524812
:100BC0008068006840B95048C068006820B10020C3
:100BD0004449243908600EE04B488068006840B101
:100BE0004948C068006820B901203E49243908609E
:100BF00001E0022070470020FCE748480078062802
:100C000004D2DFE800F00304203FC9E3F5E03E48EA
:100C1000C068006870B93C488068006850B1012025
:100C200030492439086000203D49087002203B49C2
:100C3000087007E002203B49087039480078401CE2
:100C400037490870D9E03048806B0068C8B92E4831
:100C50008068006868B92C48C068006848B1002006
:100C60002049243908602E49087003202B49087058
:100C700007E002202B49087029480078401C2849C9
:100C80000870BAE01848007800B31F48C0680068D0
:100C900000281AD11C488068006800287BD01C48B6
:100CA0000078002877D118480068006878B916489D
:100CB0004068006858B101200A492C3908600020BA
:100CC0001749087004201549087064E035E02BE0EE
:100CD0002E00002008130020901200203100002078
:100CE0003A000020B40123422C000020B81200205A
:100CF000E6B094E7BCB825642D2DE58F91E7949F6D
:100D0000E69585E99A9C0A005813002000002242CB
:100D10002F0000203000002044000020320000207E
:100D200045000020460000200120F8490870F848DE
:100D30000078401CF64908702DE0F648007808BBA2
:100D4000F548C0680068F0B9F34880680068D0B121
:100D5000F1480068006868B9EF484068006848B129
:100D60000120EE4908600020E94908700420EC49A0
:100D7000087010E00120E5490870E5480078401C43
:100D8000E349087007E00220E0490870E048007875
:100D9000401CDF49087030E0DF484068006860B9F7
:100DA000DD480068006840B10020DC490860D8498F
:100DB00008700520DA49087007E00120D34908705F
:100DC000D3480078401CD249087016E0D248006829
:100DD000006848B9D0484068006828B10020CC4974
:100DE0000870CF49087007E00120C8490870C8485A
:100DF0000078401CC649087000BF00BFC448007896
:100E0000642808DD0020C24908701420C449087015
:100E1000BE48007870470020FCE7BF4800690068C2
:100E200040B9BD484069006820B10120BB4910317C
:100E300008600EE0B8480069006840B1B6484069F3
:100E4000006820B90020B5491031086001E0032096
:100E500070470020FCE7B0488069006838B9AE48A8
:100E6000C069006818B10020AE4908600DE0AA48CA
:100E70008069006838B1A848C069006818B90120C5
:100E8000A849086001E0032070470020FCE7A6485D
:100E90000078062804D2DFE800F003041F3D9AB56D
:100EA000C7E09D48C069006868B99B4880690068D0
:100EB00048B101209B49086000209C49087002202D
:100EC0009949087007E0042099490870974800780C
:100ED000401C96490870ACE08F48C06B0068C0B9F0
:100EE0008D488069006860B98B48C069006840B16E
:100EF00000208C4908608D49087003208A490870D9
:100F000007E004208A49087088480078401C874917
:100F100008708EE08748007848B37F48C069006851
:100F2000002853D17C488069006800284ED0794859
:100F3000007800284AD178480069006870B976487E
:100F40004069006850B101207449103108600020E8
:100F50007649087004207449087037E0032074490A
:100F6000087072480078401C704908702EE069488B
:100F7000007810BB6848C0690068F8B966488069A5
:100F80000068D8B164480069006870B96248406977
:100F9000006850B1012061491031086000206349A8
:100FA000087004206049087010E003206049087050
:100FB0005E480078401C5D49087007E004205C49E9
:100FC00008705A480078401C5849087031E052486F
:100FD0004069006868B950480069006848B100205D
:100FE0004E49103108605149087005204E4908707B
:100FF00007E003204E4908704C480078401C4B49DC
:10100000087016E044480069006848B942484069E1
:10101000006828B10020454908704349087007E07E
:1010200003204349087041480078401C3F4908703C
:1010300000BF00BF3D480078C82808DD00203B49BC
:10104000087014203849087039480078704700202B
:10105000FCE7344808300068C0433749C1F8BC0198
:1010600070473648007830B1012805D002281CD0DE
:10107000032871D13CE070E02748006A006870B92D
:101080002548406A006850B10120264908310860AF
:1010900002202A49087000202949087004E02848E5
:1010A0000078401C2649087057E01B48406A0068D9
:1010B000C0B91948006A0068A0B122480078401CF5
:1010C00020490870084600781B2810DD00201C49C4
:1010D00008701C490870134908310860032017493B
:1010E000087004E016480078401C1549087034E088
:1010F0000948006A006840BB0748406A006820B39E
:1011000000200E4908700E49087024E046000020B7
:10111000450000202F0000205813002088012342A2
:1011200032000020B4012242380000204700002095
:10113000480000202C00002000002242390000203E
:10114000490000204A00002006E0FFE7FC48007844
:10115000401CFB49087000E000BF00BFF848007861
:10116000C82807DD0020F64908701420F5490870EA
:10117000052070470020FCE710B55021F24803F02D
:10118000B3FB0020F1490860F149C1F89001EF4933
:1011900010310860EF490860EE4908310860ED49F8
:1011A00034390860EB4908310860E8492C3108609F
:1011B000E9490870E9490870E9490870E949087087
:1011C000E9490870E9490870DE490870E849C881B2
:1011D000E8490870E8490860E84908700120E849D2
:1011E000087010BD10B5E748006870B1E648007897
:1011F000401CE549087008460078142808DD1420D2
:1012000008700D20DB49087002E00020DE490870FC
:10121000CE4860380068A0B9D948007888B9DB4862
:101220000078401CD949087008460078142824DD4D
:10123000142008700020D64908700120CE490860AB
:101240001BE0C2485838006890B9D1480078401C6B
:10125000CF4908700846007814280EDD0020CB49DD
:1012600008701420CA4908700020C349086004E0CF
:101270000020C6490870C6490870B4485038006854
:10128000A0B9C4480078401CC249087008460078DC
:1012900014280EDD14200870B948007810B9FFF743
:1012A0006BFF06E00020BB49087002E00020B9494E
:1012B0000870012407E0B04850F8240008B1204627
:1012C00010BD601CC4B2142CF5DBAB480068B249F9
:1012D0000978884208D0AA48007828B9A64800783A
:1012E000AD4908700020EBE71420E9E7A448007836
:1012F00001283DD1A9480078401CA849087008463B
:101300000078322834DD00209D490870A349087018
:10131000A348C068006890B9A1488068006870B1AF
:101320009F480068006850B99D484068006830B127
:101330009348007840F002009149087004E00020D2
:101340008F490870022070479548006A006850B9BC
:101350009348406A006830B18948007840F008003E
:101360008749087004E00020854908700520EAE7F5
:101370008348007800F00A00002879D07748007888
:10138000082876DA76480078002871D1724800780B
:101390000028FAD17148007801286CD18148007882
:1013A00020B101280BD0022851D12AE00120674941
:1013B00008606749C1F898017A49087048E07848A0
:1013C00000680068B8B176484068006898B9744809
:1013D0000069006878B172484069006858B9002017
:1013E00071490870594908605949C1F898010220AB
:1013F0006C49087004E06C480078401C6A49087029
:1014000026E0674800680068D8B965484068006809
:10141000B8B163480069006898B9614840690068DC
:1014200078B10020604908705E49087001204D497C
:1014300008704B49087049480078401C47490870BB
:1014400004E059480078401C5749087000E000BF8C
:1014500000BF55480078642820DD002051490870FD
:10146000474908703D4908704F4908700D206AE7E8
:1014700014E00EE0FFE700204A49087001203949D6
:1014800008703749087035480078401C33490870A7
:1014900004E000203A49087030490870002052E703
:1014A00038B504460025002000900C2C47D2DFE818
:1014B00004F0060B1A232C39838D97A1B0BA2E485D
:1014C000007825490870B9E00020384908602849AB
:1014D0000880488002226946354800F0A8FF0020B5
:1014E00025494860AAE02648007808B9FFF744FE7D
:1014F000002021498860A1E001202E490870184988
:10150000087000201C49C86098E01748007828B986
:101510001148007810B901201349087000201649BD
:1015200008618BE01148007828B90B48007810B9A1
:1015300001200E49087000200F4948617EE07CE0E0
:1015400049000020390000200813002088012342B0
:1015500000002342B40122422C0000203B00002066
:101560002F00002031000020320000203800002031
:10157000901200202E000020B81200202D00002024
:101580003A000020288121424C0000204E0000201B
:101590004F0000204D0000204B0000205100002093
:1015A0005813002052000020500000202800002086
:1015B00000000708300000206B48007810B90120B7
:1015C0006A49087000206A49886137E066480078F7
:1015D00010B9FFF7F4FA054600206549C8612DE00F
:1015E0006148007810B9FFF736FC054600206049D5
:1015F000086223E05F48007838B95B48007820B97A
:1016000001205D4908705B49087000205849486214
:1016100014E05548007810B9FFF7B3FA05460020EA
:10162000534988620AE05048007810B9FFF7F5FB8B
:10163000054600204E49C86200E000BF00BF2846B2
:1016400038BD70B50024FFF7CDFD0546FFF728FF34
:1016500004460CB1494804704848007800B170BD98
:10166000FFF7CBFA04460CB144480470FFF71FFAA9
:1016700004460CB141480470FFF709FC04460CB164
:101680003E480470FFF7EDFC04460CB13B48047083
:10169000FFF72CFE04460CB138480470324800783D
:1016A00000285FD03348007880BB3048007868BBA2
:1016B0003348007850BB0120314908703148007828
:1016C000052823DD0120294908702F480068401CA7
:1016D0002D490860084600882C4908802A4800687F
:1016E0004FF6FF7101EA10402849488028480088D9
:1016F00028490988401A25498880254800682549D5
:10170000086002222149244800F091FE194800781F
:1017100040BB2248007828BB2148007810BB1848FD
:101720000078F8B111480078E0B900201449087039
:1017300001201049087013480078062804DA11487F
:101740000078401C0F4908700E480078012802DD1F
:101750000120124908700B480078032802DD01209F
:101760000F49087000BF7AE72C00002039000020E4
:10177000B81200202F000020310000202E00002091
:10178000530000202D00002028000020901200208F
:101790003400002054000020000007083200002020
:1017A0003800002070B502460C46FF25FF2309E0F3
:1017B00012F8010B80EA0501FE48405C80EA03054F
:1017C000FD48435C2000A4F10106F4B2F0D143EAE5
:1017D000052070BD10B55021F84803F085F8F84891
:1017E000F8490860F8484860F7480C388860F648BF
:1017F0001438C860F5480861F44808384861F3486F
:1018000010388861F1481838C861F1480862F0481A
:1018100008384862EF488862EE480838C862ED48E8
:1018200018380863EA4810384863E948183888636C
:10183000E6481C30C863E1480864001D4864001D88
:101840008864001DC864001D0865001D4865001DF2
:101850008865DE481430C8655021DF4803F044F83D
:10186000DD48DE490860001D4860001D8860001DDD
:10187000C860001D0861001D4861001D8861001DD1
:10188000C861001D0862001D4862001D8862001DBD
:10189000C8620020D24948808880C8800881488179
:1018A0008881C8810846CF490860801C4860801C38
:1018B0008860801CC860801C0861801C4861801C96
:1018C0008861801CC86110BD1FB50121202001F076
:1018D00024FBC548008800EB80004FF6FF7101EA49
:1018E0004000ADF808004FF4E150ADF804000020CE
:1018F000ADF80A00ADF8060001A9BC4801F03CFEB5
:1019000001221146B94802F0AEF937208DF80000E7
:1019100002208DF8010003208DF8020001208DF8CF
:101920000300684600F067FF1FBD00B587B00121C6
:101930004FF4827001F0E4FA0121480401F0EDFA5D
:101940000420ADF8180018208DF81B0003208DF836
:101950001A0006A9A64801F017F80421A44801F0CE
:10196000C0F80820ADF8180048208DF81B0006A923
:101970009F4801F009F84FF40070ADF818001020EE
:101980008DF81B0006A99B4800F0FEFF4FF4007184
:10199000984801F0A8F8984801F016FB97480068AD
:1019A00002900020ADF81400ADF80C00ADF80E0068
:1019B0000C20ADF812009248007820B1012806D022
:1019C00002280ED108E00020ADF8100009E04FF425
:1019D000C060ADF8100004E04FF48060ADF8100076
:1019E00000BF00BF02A9844801F031FB40F225513D
:1019F000814801F0D3FC012240F225517E4801F0DC
:101A0000BEFB26208DF8040002208DF805008DF81D
:101A1000060001208DF8070001A800F0ECFE01216E
:101A2000754801F0A0FB00207649087028216C4819
:101A300002F038FFFFF748FFFFF7CCFE07B000BD0C
:101A400070B504460D4601206E4908700BE000BFDA
:101A50008021694801F062FC0028F9D014F8011BCC
:101A6000654801F0EDFB2800A5F10101CDB2EED1F2
:101A700000BF4021604801F051FC0028F9D070BD42
:101A800070B540F225515C4801F05EFC38B3072187
:101A9000594801F043FC08B1012400E000245648F5
:101AA00001F0D2FBC5B25848008840F2FF7188426D
:101AB00015DAA4B955485449098845545248008854
:101AC000401C514908800121484802F08BFB00214D
:101AD000464802F041FB0121444802F0A9F870BDDC
:101AE00010B50121414802F06CFB60B101213F4873
:101AF00002F078FB00213D4802F09AF801204149AC
:101B000008704349087010BD10B5404840793F49FE
:101B1000097940EA01203F4908803F480088098848
:101B20000844B0F57A7F44DA002422E0082000EB74
:101B300044003649085C384909882144294A52F84A
:101B400021100880344800882044114651F82000B4
:101B50000088072101EB44012C4A515C40EA012036
:101B60002D49098821441F4A52F821100880601C21
:101B7000C4B2284800888442D8DB2448007827492A
:101B800008702248407848702048807888701F4844
:101B9000C078C8701D48007908711C4840794871A8
:101BA00006211E48FFF7FEFD1D4908800846007803
:101BB00038E042E0670000206701002008130020A1
:101BC0000401234258130020248121421C81224217
:101BD0003001224238012142B8120020E8140020CE
:101BE00090120020781600205E00002000140040B3
:101BF000000801400020014000440040580000203F
:101C00005C000020660000206000002090020020A0
:101C1000620000206A02002068020020900A002072
:101C20006C020020FE49C871FE480088000A8871D5
:101C30000821FB48FFF704FF0EE0FB480078F84955
:101C40000870F948407840F08000487002208870A1
:101C50000321F348FFF7F4FE10BD10B5F2484079B8
:101C6000F249F34A128851F822100880EF48F049EF
:101C7000098850F821000088EB49097940EA0120E1
:101C8000EA49EB4A128851F822100880E6480078A9
:101C9000E3490870E44840784870E34880788870E9
:101CA000E148C078C870E04800790871DE484079A2
:101CB00048710621DA48FFF775FDDA4908800846C1
:101CC0000078D749C871D7480088000A8871082170
:101CD000D348FFF7B5FE10BD10B5D3484079D249BF
:101CE000097940EA0120D3490880D1480088098851
:101CF0000844B0F57A7F53DACB480078C8490870B9
:101D0000C94840784870CB4800784006000E88707B
:101D1000002419E0C64800882044C44951F8200036
:101D20000078042101EB4401BD4A5054C0480088AA
:101D30002044BE4951F820000088000A032101EB2D
:101D400044015054601CC4B2BA4800888442E1DBAC
:101D5000B8480078032202EB4000C1B2B048FFF758
:101D600021FDB049088008460178B2480088042265
:101D700002EB4000AA4A1154AA480088010AAD4863
:101D80000088032202EB4000A54A1154A9480078BC
:101D9000052202EB4000C1B2A148FFF751FE0EE060
:101DA000A14800789E4908709F48407840F0800024
:101DB00048700220887003219948FFF741FE10BD4A
:101DC00010B5994840799849097940EA0120994924
:101DD00008809748008809880844642858DA002455
:101DE0002CE0E11704EB5171C910C91D8E4A515CFA
:101DF00001F0010141B101208D49098821448E4A39
:101E000052F82110086007E0002089490988214420
:101E1000894A52F821100860E11704EB5171C9108A
:101E2000C91D814A515C4A102046E11704EB5171EB
:101E3000C910C91D7C4B5A54601C84B27D4800886F
:101E40008442CEDB7848007875490870764840783F
:101E500048707548807888707348C078C870724838
:101E60000079087170484079487106216C48FFF785
:101E700099FC6C490880084600786949C87169482E
:101E80000088000A887108216548FFF7D9FD0EE037
:101E900065480078624908706348407840F08000E7
:101EA00048700220887003215D48FFF7C9FD10BD0E
:101EB00010B55F48008864283CDA5B480079FF2849
:101EC00003D059484079FF2807D101205A49584A80
:101ED000128851F82210086006E000205649544A42
:101EE000128851F8221008604F4800784C49087059
:101EF0004D48407848704C48807888704A48C0788F
:101F0000C8704948007908714748407948710621EE
:101F10004348FFF747FC434908800846007840499A
:101F2000C87140480088000A887108213C48FFF7C2
:101F300087FD0EE03C480078394908703A484078FF
:101F400040F0800048700220887003213448FFF779
:101F500077FD10BD70B5344840793349097940EABE
:101F600001203449088032480088098808446428E0
:101F70007EDA2D4800782A4908702B48407848704E
:101F80002C490888C11700EB5171CD1029490888E8
:101F9000C11700EB5171C910A0EBC10109B1681C58
:101FA00085B21F498D70002472E0E11704EB517176
:101FB000C910A4EBC10141B900222046E11704EB8E
:101FC0005171C910C91C164B5A54E11704EB5171D9
:101FD000C910C91C124A515C4A102046E11704EB93
:101FE0005171C910C91C0E4B5A54E11704EB5171C1
:101FF000C910C91C1A46515C0D4A128822440E4B66
:1020000053F822201268802303EAC2121143E21718
:1020100004EB5272D210D21C014B995405480DE0CA
:10202000900A00206C020020900200207816002008
:10203000680200206A020020E81400200088401E88
:10204000A04223D1DC490888C11700EB5171C910A7
:10205000A0EBC101D1B1E21704EB5272D210D21C35
:102060009A5CD54B1988CB1701EB5373DB1000E05A
:1020700029E0A1EBC303C3F108031A412046E3178B
:1020800004EB5373DB10DB1CCC4EF254601C84B2A7
:10209000C9480088844288DBE81CC1B2C748FFF702
:1020A00081FBC749088008460178C44A281D11549D
:1020B000C3480088010AE81C1154681DC1B21046CB
:1020C000FFF7BEFC0EE0BF480078BC490870BD4871
:1020D000407840F080004870022088700321B748A3
:1020E000FFF7AEFC70BD70B5B6484079B5490979C7
:1020F00040EA0120B0490880B348008809880844B4
:1021000064287DDAAF480078AC490870AD48407863
:102110004870A9490888C11700EB5171CD10A64934
:102120000888C11700EB5171C910A0EBC10109B1BA
:10213000681C85B2A1498D70002463E0E11704EBAF
:102140005171C910A4EBC10141B900222046E11729
:1021500004EB5171C910C91C984B5A54E11704EB98
:102160005171C910C91C954A515C4A102046E117AB
:1021700004EB5171C910C91C904B5A54E11704EB80
:102180005171C910C91C1A46515C8F4A12882244E9
:102190008E4B53F822201268802303EAC2121143A7
:1021A000E21704EB5272D210D21C844B995482482D
:1021B0000088401EA04221D17F490888C11700EB4A
:1021C0005171C910A0EBC101C1B1E21704EB527209
:1021D000D210D21C9A5C784B1988CB1701EB537341
:1021E000DB10A1EBC303C3F108031A412046E31738
:1021F00004EB5373DB10DB1C704EF254601C00E0E8
:102200001BE084B26C480088844297DBE81CC1B2B2
:102210006A48FFF7C7FA6A49088008460178674AA2
:10222000281D115466480088010AE81C1154681DD5
:10223000C1B21046FFF704FC0EE0624800785F4927
:1022400008706048407840F0800048700220887034
:1022500003215A48FFF7F4FB70BD10B55C480078C5
:10226000012870D1574800785A490978884269D1C5
:1022700054484078012817D052484078022813D09B
:102280005048407803280FD04E48407805280BD09E
:102290004C484078062807D04A4840780F2803D099
:1022A00048484078102870D14648C0784549897818
:1022B00040EA01204449088008460088B0F57A7F4A
:1022C00052DA45480078801EC1B23E48FFF76AFAEC
:1022D0003B49088040480088401E3A49095C3E4816
:1022E0000088801E374A105C41EA00243448008888
:1022F000A04229D110464078052814D006DC0128D8
:102300000ED0022809D003281CD112E0062813D0D1
:102310000F280BD0102815D111E0FFF7E4FE11E0D3
:10232000FFF718FE0EE0FFF7C3FD0BE0FFF748FDD7
:1023300008E0FFF7D1FC05E0FFF78FFC02E0FFF7B4
:10234000E3FB00BF30E036E01E4800781B49087010
:102350001C48407840F080004870042088700321B9
:102360001648FFF76DFB1FE0164800781349087008
:102370001448407840F080004870022088700321A3
:102380000E48FFF75DFB0FE0FFE70E4800780B49B2
:1023900008700C48407840F0800048700120887038
:1023A00003210648FFF74CFB0020094908700A4941
:1023B00008800A49087010BD6A020020900A0020B7
:1023C0006C020020900200206802002058130020B8
:1023D000620000205D0000206000002066000020F8
:1023E0000146088870472DE9F04105460E4617461C
:1023F000002407E036F81410284602F05EF8AD1C01
:10240000601C84B2BC42F5DBBDE8F08130B5034608
:102410000C461546002207E01846FFF7E1FF24F8B6
:1024200012009B1C501C82B2AA42F5DB30BD2DE984
:10243000F05F80468A461746B8F1006F02D33748EE
:10244000804501D3BDE8F09F01F0EFFEA8F1006BDD
:102450004FEADB25CBF34909C9F58064A74200DCCC
:102460003C464DE04FF0006101EBC5204A142C4979
:10247000FFF7CCFF00260BE009EB0600284931F8F6
:1024800010004FF6FF71884200D003E0701C86B246
:10249000A642F1DB00BFA6421BDA4FF0006101EB60
:1024A000C52001F007FF002608E03AF8160006EB09
:1024B00009011B4A22F81100701C86B2A642F4DB07
:1024C0004FF0006101EBC5204A141549FFF78BFF5F
:1024D00004E0224651464046FFF785FFA74200D15F
:1024E0000FE06D1C4FF000090AEB440AA044381BB2
:1024F00087B2B7F5806F02DD4FF4806400E03C46A0
:10250000B0E700BF01F09DFE00BF9BE713B5044696
:10251000012201A92046FFF78AFF1CBD0000080820
:10252000C816002010B56FF0040000F0AEF92E4878
:1025300000682E49B0FBF1F02D490870084600787C
:1025400000EB4001C1EBC0104FF6FF7101EAC00083
:102550002849088010BD0146254A12784A434FF0A9
:10256000E0235A6100229A611A46126942F0010280
:102570001A6100BF4FF0E022106900F001021AB1A9
:1025800000F48032002AF5D04FF0E022126922F0E8
:1025900001024FF0E0231A6100229A617047014660
:1025A000144A12884A434FF0E0235A6100229A618C
:1025B0001A46126942F001021A6100BF4FF0E02290
:1025C000106900F001021AB100F48032002AF5D03F
:1025D0004FF0E022126922F001024FF0E0231A616D
:1025E00000229A61704700000800002000127A0063
:1025F000700200207202002010B54FF4A06000F0BD
:10260000F5F810BD014600BF704700BF5C4A128854
:1026100002F04002002AF9D0C2B2594B1B1D1A80A9
:10262000704710B586B00446012144F2040000F062
:1026300067FC4FF40070ADF8140003208DF816000D
:1026400018208DF8170005A94E4800F09DF94FF4A9
:102650008060ADF8140004208DF8170005A94948E2
:1026600000F092F925208DF8000003208DF801007C
:102670008DF8020001208DF80300684600F0BBF8D9
:1026800001940020ADF80800ADF80A00ADF80C0088
:10269000ADF810000C20ADF80E0001A9384800F08C
:1026A000D6FC012240F22551354800F068FD012199
:1026B000334800F058FD06B010BD10B540F225516A
:1026C0002F4800F041FE10B32D4800F0BDFDC4B20C
:1026D0002D48008800F40040C8B92B48008800F459
:1026E000804060B10A2C03D000202749088020E0F8
:1026F0002548008840F400402349088019E00D2C4B
:1027000006D12148008840F480401F49088010E02D
:102710001D480088C0F30D001C490C541A4800885D
:10272000401C1949088008460088C72801DD0020A0
:10273000088010BD10B51448008802281ED1002062
:102740001149088012A1114802F0F6F818B90220C8
:102750001149887112E011A10C4802F0EDF818B986
:1027600004200D49887109E00EA1084802F0E4F840
:1027700018B901200849887100E010BD00BFFCE7CE
:10278000003801400008014078020020C81E0020E7
:102790004053746172740000000000204053746F55
:1027A0007000000040456E6400000000094880474A
:1027B00009480047FEE7FEE7FEE7FEE7FEE7FEE723
:1027C000FEE7FEE7FEE7FEE704480549054A064B3B
:1027D00070470000FB03000831010008F01F0020D3
:1027E000F0250020F0210020F02100203149014394
:1027F000314A1160704770B5002100230F22C47860
:1028000004B32D4C246804F4E064C4F5E064210AA8
:10281000C1F10403CA40447804FA03F184781440F7
:1028200021430901254C0678A155047804F01F05C1
:102830000124AC4005786D11AD0005F1E025C5F827
:10284000004109E0047804F01F050124AC401C4D50
:102850000678761145F8264070BD1A4A0A400243B0
:10286000154B1B1F1A60704739B1134A121D1268AD
:102870000243114B1B1D1A6006E00F4A121D12681D
:1028800082430D4B1B1D1A607047042808D14FF07E
:10289000E021096941F004014FF0E022116107E0F5
:1028A0004FF0E021096921F004014FF0E0221161AD
:1028B000704700000000FA050CED00E000E400E0C5
:1028C00080E100E080FFFF1F10B50446CC48844241
:1028D00008D10121042000F02DFB0021042000F08C
:1028E00029FB46E0C748844208D10121082000F0B6
:1028F00021FB0021082000F01DFB3AE0C248844281
:1029000008D10121102000F015FB0021102000F05B
:1029100011FB2EE0BD48844208D10121202000F0A7
:1029200009FB0021202000F005FB22E0B84884428A
:1029300008D10121402000F0FDFA0021402000F0E4
:10294000F9FA16E0B348844208D10121802000F052
:10295000F1FA0021802000F0EDFA0AE0AE4884424E
:1029600007D10121801500F0E5FA0021A01500F043
:10297000E1FA10BD10B50121084600F0DBFA002194
:10298000012000F0D7FA10BD2DE9F04102460025E4
:102990000026002000230024002791F803C00CF03B
:1029A0000F0591F803C00CF0100CBCF1000F03D020
:1029B00091F802C04CEA050591F800C0BCF1000F87
:1029C00031D0146800202BE04FF0010C0CFA00F31A
:1029D000B1F800C00CEA03069E4220D183004FF0FC
:1029E0000F0C0CFA03F7BC4305FA03FC4CEA040491
:1029F00091F803C0BCF1280F06D14FF0010C0CFA7E
:102A000000FCC2F814C00AE091F803C0BCF1480F02
:102A100005D14FF0010C0CFA00FCC2F810C0401CAC
:102A20000828D1D31460B1F800C0BCF1FF0F34DD29
:102A3000546800202EE000F1080C4FF0010808FA5D
:102A40000CF3B1F800C00CEA03069E4221D18300CA
:102A50004FF00F0C0CFA03F7BC4305FA03FC4CEAE9
:102A6000040491F803C0BCF1280F05D100F1080C53
:102A700008FA0CF8C2F8148091F803C0BCF1480FB2
:102A800007D100F1080C4FF0010808FA0CF8C2F861
:102A90001080401C0828CED35460BDE8F0814FF66A
:102AA000FF710180022181700421C17070470246CC
:102AB000002093680B400BB1012000E0002070471C
:102AC0000146886880B2704702460020D3680B40F8
:102AD0000BB1012000E0002070470146C86880B2B9
:102AE000704701617047416170470AB1016100E0C0
:102AF00041617047C16070474FF480320A43826180
:102B00008161826182698269704702460020434B7D
:102B100018684FF68073184040EA021008433F4B94
:102B2000186070473E49C8617047F0B50A460023F7
:102B300000240021002500F00046B6F1004F02D12C
:102B4000364EF16901E0354E7168C0F3034583B23A
:102B500000F44016B6F5401F08D121F070612F4EE9
:102B6000766826F070662D4F7E6012E000F48016C5
:102B7000B6F5801F06D1032606FA05F4A14341F0FD
:102B8000706106E0460D360103FA06F6B14341F0E6
:102B9000706122B1460D360103FA06F6314300F0AA
:102BA0000046B6F1004F02D11C4EF16101E01B4E10
:102BB0007160F0BD30B500228B071C0F0F2303FAA4
:102BC00004F2164B08338C1053F824309343134C03
:102BD00008348D1044F8253023468C1053F82430E7
:102BE0008C07240F00FA04F423430C4C08348D1096
:102BF00044F8253030BD0A49DC31086070470000D8
:102C000000080140000C0140001001400014014088
:102C100000180140001C014000200140000001405C
:102C200000002042DF48006840F00100DD490860F4
:102C300008464068DC490840DA49486008460068B0
:102C4000DA490840D74908600846006820F4802027
:102C500008600846406820F4FE0048604FF41F00FA
:102C600088607047CF49096821F48031CD4A1160EE
:102C70001146096821F480211160B0F5803F03D02E
:102C8000B0F5802F0ED106E0C649096841F48031C5
:102C9000C44A116007E0C349096841F4A021C14A50
:102CA000116000E000BF00BF704710B50146002270
:102CB000002300204A11012A02D1BA4C236806E001
:102CC000022A02D1B74C236A01E0B64C636A01F0D4
:102CD0001F02012494401C400CB1012000E00020A0
:102CE00010BD38B5002000900024002500BF312021
:102CF000FFF7DBFF05460098401C00900098B0F5F8
:102D0000A06F01D0002DF2D03120FFF7CEFF08B127
:102D1000012400E00024204638BD01460020A14ADD
:102D2000106820F0F80040EAC10010607047A04928
:102D300008607047024600209A4B586820F47C10C7
:102D400042EA01031843974B586070479849086658
:102D5000704701460020934A506820F00300084362
:102D6000506070478F48406800F00C007047014683
:102D700000208C4A506820F0F000084350607047F3
:102D800001460020874A506820F4E0600843506004
:102D9000704701460020834A506820F4605040EAA2
:102DA000C1005060704729B17E4A527A02437D4B80
:102DB0005A7204E07B4A527A82437A4B5A727047C5
:102DC0007B49D8310860704701460020754A506839
:102DD00020F440400843506070470021714A20327F
:102DE0001170704A82F82010012802D004280AD1FC
:102DF00004E001216B4A2032117005E00521694A87
:102E00002032117000E000BF00BF704769490860C0
:102E100070476449096A0143624A11627047654913
:102E200044390860704730B5002100220024002397
:102E30005C4D6D6805F00C0121B1042905D008290D
:102E400023D105E05C4D056022E05B4D05601FE08D
:102E5000544D6D6805F47012524D6D6805F4803460
:102E6000022505EB92421CB9544D554305600BE019
:102E70004C4D6D6805F400351DB1504D554305604E
:102E800002E04D4D5543056002E04B4D056000BF2B
:102E900000BF444D6D6805F0F0010909484D6B5CB9
:102EA0000568DD4045603F4D6D6805F4E061090A45
:102EB000434D6B5C4568DD4085603A4D6D6805F4B7
:102EC0006051C90A3E4D6B5C4568DD40C560354DBB
:102ED0006D6805F44041890B3A4D6B5CC568B5FBE4
:102EE000F3F5056130BD29B12E4A526902432D4BDD
:102EF0005A6104E02B4A526982432A4B5A61704757
:102F000029B1284A92690243264B9A6104E0254A76
:102F100092698243234B9A61704729B1214AD26951
:102F20000243204BDA6104E01E4AD26982431D4B02
:102F3000DA61704729B11B4AD2680243194BDA6043
:102F400004E0184AD2688243164BDA60704729B110
:102F5000144A12690243134B1A6104E0114A1269C0
:102F60008243104B1A61704712494039086070471C
:102F70000F49C86470470B49C87170470948406AD7
:102F800040F0807007494862704701460020054ABA
:102F900092680A400AB1012000E000207047014910
:102FA00088727047001002400000FFF8FFFFF6FE35
:102FB000000042428004424200127A0000093D00B3
:102FC0007A0200208A02002010B50446FB488442A1
:102FD00009D101218803FFF7ADFF00214FF48040A4
:102FE000FFF7A8FF32E0F648844209D101214804E6
:102FF000FFF7ADFF00214FF40030FFF7A8FF25E0F9
:10300000F048844209D101218804FFF7A0FF002184
:103010004FF48020FFF79BFF18E0EB48844209D172
:103020000121C804FFF793FF00214FF40020FFF7B0
:103030008EFF0BE0E548844208D101210805FFF727
:1030400086FF00214FF48010FFF781FF10BD2DE9AE
:10305000F04786B005460E460024A24600BFA146B2
:103060000027B08900B100BF2F462C8A4CF6FF70B4
:103070000440F08804432C82AC894EF6F3100440DF
:10308000B08831890843718908430443AC81AC8A14
:103090004FF6FF400440B0890443AC8201A8FFF71B
:1030A000C2FEC648874202D1DDF810A001E0DDF87B
:1030B0000CA0A88900F4004040B10AEBCA0000EB64
:1030C0000A1031684900B0FBF1F807E00AEBCA00CA
:1030D00000EB0A1031688900B0FBF1F86420B8FBFE
:1030E000F0F004012009642101FB1089A88900F493
:1030F000004040B1322000EBC900B0FBF1F000F01D
:103100000700044308E0322000EB09106421B0FB03
:10311000F1F000F00F0004432C8106B0BDE8F08709
:103120004FF41651016000218180C18001810C2182
:10313000418100218181704710B502460020108A2C
:103140004FF2FF0318400B884C8823438C8823439D
:10315000CC8823431843108210BD00210180418098
:103160008180C180704721B1828942F400528281FE
:1031700004E082894DF6FF731A4082817047F0B5F2
:103180000346002400260025002040F66A17B942B5
:1031900000D100BF1846C1F3421401F01F060127F9
:1031A00007FA06F5012C01D10C3004E0022C01D104
:1031B000103000E014301AB107682F43076002E0B6
:1031C0000768AF430760F0BD1AB1838A0B4383825F
:1031D00002E0838A8B4383827047028A4FF6F07342
:1031E0001A400282028A0A430282704782894FF2A1
:1031F000FF731A40828182890A438281704721B11C
:10320000828942F00202828104E082894FF6FD73D6
:103210001A4082817047028A4FF6DF731A40028299
:10322000028A0A430282704721B1028A42F4804234
:10323000028204E0028A4BF6FF731A400282704752
:10324000C1F308028280704701468888C0F30800F5
:103250007047818941F0010181817047028BD2B2B0
:103260000283028B42EA012202837047028B02F43E
:103270007F420283028B0A430283704721B1828A14
:1032800042F02002828204E0828A4FF6DF731A4005
:103290008282704721B1828A42F01002828204E069
:1032A000828A4FF6EF731A408282704721B1828A78
:1032B00042F00802828204E0828A4FF6F7731A40D5
:1032C0008282704721B1828942F40042828103E008
:1032D0008289C2F30E028281704721B1828A42F450
:1032E0000062828204E0828A4FF2FF731A40828277
:1032F0007047828A4FF6FB731A408282828A0A43A1
:103300008282704721B1828A42F00202828204E006
:10331000828A4FF6FD731A4082827047024600206F
:10332000B1F5007F00D100BF13880B400BB1012025
:1033300000E00020704701F40072B2F5007F00D178
:1033400000BFCA430280704770B5024600240023C4
:103350000025002040F66A16B14200D100BFC1F33B
:10336000421501F01F03012606FA03F3012D02D1D5
:103370009689334006E0022D02D1168A334001E0DF
:10338000968A33400C12012606FA04F4168834405B
:1033900013B10CB1012000E0002070BD10B5002277
:1033A000002340F66A14A14200D100BF0A12012492
:1033B0009440A3B2DC43048010BD000000380140FB
:1033C0000044004000480040004C004000500040D5
:1033D00010B50446FE48844208D10121C014FFF70D
:1033E000A9FD0021E014FFF7A5FDC4E0B4F1804F72
:1033F00008D101210846FFF7AAFD00210120FFF7AF
:10340000A6FDB8E0F348844208D101210220FFF76D
:103410009EFD00210220FFF79AFDACE0EE488442B9
:1034200008D101210420FFF792FD00210420FFF7BD
:103430008EFDA0E0E948844208D101210820FFF771
:1034400086FD00210820FFF782FD94E0E4488442D5
:1034500008D101211020FFF77AFD00211020FFF78D
:1034600076FD88E0DF48844208D101212020FFF763
:103470006EFD00212020FFF76AFD7CE0DA488442DF
:1034800008D101214014FFF755FD00216014FFF71A
:1034900051FD70E0D548844209D10121C804FFF7ED
:1034A00049FD00214FF40020FFF744FD63E0D048C0
:1034B000844209D101210805FFF73CFD00214FF4AA
:1034C0008010FFF737FD56E0CA48844209D1012138
:1034D0004805FFF72FFD00214FF40010FFF72AFDEC
:1034E00049E0C548844208D101214020FFF72FFD63
:1034F00000214020FFF72BFD3DE0C048844208D169
:1035000001218020FFF723FD00218020FFF71FFD10
:1035100031E0BB48844208D101218015FFF717FD37
:103520000021A015FFF713FD25E0B648844209D11C
:1035300001210804FFF7FEFC00214FF48030FFF763
:10354000F9FC18E0B048844209D101214804FFF792
:10355000F1FC00214FF40030FFF7ECFC0BE0AB482E
:10356000844208D101218804FFF7E4FC00214FF4D4
:103570008020FFF7DFFC10BD00220288944B9842A8
:103580000ED0994B98420BD0B0F1804F08D0914BA0
:10359000984205D0904B984202D0904B984204D16B
:1035A0004FF68F731A404B881A438D4B984207D0C1
:1035B0008C4B984204D04FF6FF431A40CB881A43F5
:1035C00002808B8883850B880385814B98420BD0C2
:1035D000854B984208D08B4B984205D08A4B984235
:1035E00002D08A4B984201D10B7A03860123838251
:1035F000704770B5002400220023058C4FF6FE763C
:1036000035400584028C8388048B4FF68F752C40DF
:10361000B51E2C400D882C43751E2A400D892A4367
:103620004D882A436A4DA8420BD06F4DA84208D05E
:10363000744DA84205D0744DA84202D0734DA842E3
:1036400013D14FF6F7752A404D892A434FF6FB7583
:103650002A408D882A434FF6FF652B404FF6FF55D1
:103660002B408D892B43CD892B4383800483CD88C8
:103670008586028470BD70B5002400220023058C6D
:103680004FF6EF7635400584028C8388048B48F62C
:10369000FF752C404FF6FF452C400D884FF6FF7606
:1036A00006EA05252C434FF6DF752A400D8906EA08
:1036B00005152A434D8806EA05152A43444DA842BC
:1036C00002D0494DA8421DD14FF67F752A404D8941
:1036D0004FF6FF7606EA05152A434FF6BF752A40D6
:1036E0008D8806EA05152A434FF6FF352B404FF229
:1036F000FF752B408D8906EA85052B43CD8906EAA7
:1037000085052B4383800483CD880587028470BDA3
:1037100070B5002400220023058C4FF6FF6635406B
:103720000584028C8388848B4FF68F752C404FF66E
:10373000FC752C400D882C434FF6FF552A400D890F
:103740004FF6FF7606EA05252A434D8806EA052549
:103750002A431F4DA84202D0234DA8421DD14FF24B
:10376000FF752A404D894FF6FF7606EA05252A4364
:103770004FF6FF352A408D8806EA05252A434EF686
:10378000FF752B404DF6FF752B408D8906EA051518
:103790002B43CD8906EA05152B4383808483CD888E
:1037A0008587028470BD70B5002200230024058C3B
:1037B0004EF6FF7635400584038C8488828B48F66C
:1037C000FF752A404FF6FF452A400D8820E0000093
:1037D000002C01400004004000080040000C0040A4
:1037E000001000400014004000340140004C014033
:1037F000005001400054014000180040001C0040EF
:1038000000200040004001400044014000480140C9
:103810004FF6FF7606EA05252A434DF6FF752B4045
:103820000D8906EA05352B434D8806EA05352B43FD
:10383000FA4DA84202D0FA4DA84208D14BF6FF75C6
:103840002C408D894FF6FF7606EA85152C4384803F
:103850008283CD88A0F84050038470BD828B4FF2E4
:10386000FF331A408283828B4FF6FF7303EA0123F2
:103870001A4382837047F0B50C461546002200219A
:103880000026078C4EF6FF7C07EA0C070784828B24
:10389000018C4FF6FF7707EA043640F6FF473A40BF
:1038A0004FF6FF7707EA05273A434FF6FF7707EA17
:1038B00003373A43D94FB8420ED0D94FB8420BD054
:1038C000B0F1804F08D0D74FB84205D0D64FB8429C
:1038D00002D0D64FB84206D14DF6FF77394046F4B4
:1038E0008057394305E047F6FF57394044F4805785
:1038F000394382830184F0BD828B4FF6F3731A4003
:103900008283828B0A4382837047F0B50C4615464A
:10391000002200210026078C4FF6FF6C07EA0C07F7
:103920000784828B018C4FF6FF7707EA04264FF657
:103930000C773A404FF6FF7707EA03172F433A43D5
:10394000B64FB8420ED0B64FB8420BD0B0F1804F50
:1039500008D0B44FB84205D0B34FB84202D0B34FED
:10396000B84206D14FF6FF57394046F480773943C5
:1039700005E04FF2FF57394044F4807739438283A2
:103980000184F0BD028B4FF2FF331A400283028B99
:103990004FF6FF7303EA01231A4302837047F0B521
:1039A0000C461546002200210026078C4FF6EF7CBE
:1039B00007EA0C070784028B018C4FF6FF7707EAB2
:1039C000041640F6FF473A404FF6FF7707EA033701
:1039D0003A434FF6FF7707EA05273A438F4FB8423D
:1039E0000ED08F4FB8420BD0B0F1804F08D08D4F22
:1039F000B84205D08C4FB84202D08C4FB84206D1A5
:103A00004FF6DF77394046F01007394305E04FF6AF
:103A10005F77394044F01007394302830184F0BDD9
:103A2000028B4FF6F3731A400283028B0A43028320
:103A30007047F0B50C46154600220021068C4FF663
:103A4000FE773E400684028B018C4FF60C763240A6
:103A50007E1C06EA03162E433243704EB0420ED04F
:103A60006F4EB0420BD0B0F1804F08D06D4EB042D7
:103A700005D06D4EB04202D06C4EB04206D14FF62A
:103A8000FD76314044F00106314305E04FF6F5760E
:103A9000314044F00106314302830184F0BD70B52A
:103AA00005460C465D4885420ED05D4885420BD0E8
:103AB000B5F1804F08D05B48854205D05A48854211
:103AC00002D05A48854200D100E000BF208850B99A
:103AD0002389A28861882846FFF7ABFFE188284642
:103AE000FFF79EFF25E0208804280AD12389A288B9
:103AF00061882846FFF753FFE1882846FFF742FF19
:103B000017E0208808280AD12389A28861882846DE
:103B1000FFF7FBFEE1882846FFF7EEFE09E0238968
:103B2000A28861882846FFF7A6FEE1882846FFF7AD
:103B300095FE70BD2DE9F04105460C460026012793
:103B4000608808B9022600E00026A088012801D17B
:103B5000022700E001272088A0B92389A288618874
:103B60002846FFF766FFE1882846FFF759FF2389BB
:103B70003A4631462846FFF712FFE1882846FFF70C
:103B800001FF13E02389A28861882846FFF707FF19
:103B9000E1882846FFF7F6FE23893A463146284653
:103BA000FFF747FFE1882846FFF73AFFBDE8F081BD
:103BB0000A884B881A438B881A43CB881A430B898F
:103BC0001A434B891A438B891A43A0F84420704743
:103BD0004FF6FF71818000210180C1804180017218
:103BE00070470021018041808180C1800181418135
:103BF0008181C18170470021018041800121818044
:103C00000021C180018170470021018041808180B5
:103C1000C18001814181818170470000002C0140F9
:103C2000003401400004004000080040000C004047
:103C300021B1028842F00102028004E002884FF6BE
:103C4000FE731A400280704731B1B0F8442042F44C
:103C50000042A0F8442005E0B0F84420C2F30E0270
:103C6000A0F8442070471AB183890B43838102E096
:103C700083898B43838170478182704741EA0203C5
:103C8000A0F8483070471AB183890B43838102E062
:103C900083898B438381704701894FF6F872114005
:103CA000018170470A46002101894FF68F73194040
:103CB00011430181704730B504460D462946204620
:103CC000FFF7F0FF208940F00700208130BD2DE98B
:103CD000F04104460D4616461F46602D06D13B4670
:103CE000012231462046FFF75AFE05E03B460122FD
:103CF00031462046FFF79DFE29462046FFF7D2FFBA
:103D0000208940F007002081BDE8F08130B50C46E5
:103D100000210189C9B24FF6FF7505EA0325154355
:103D200025432943018130BD2DE9F04105460E466A
:103D300017469846002443463A4631462846FFF740
:103D4000E5FF2C894FF6F870044044F007044FF665
:103D50008F70044044F070042C81BDE8F081F0B510
:103D600004460D4616461F463B4632462946204627
:103D7000FFF7CCFF208940F480402081F0BD018511
:103D8000828270470A46002101884FF68F731940DE
:103D9000114301807047F0B50C4615461E460021C0
:103DA000002200230189028B038C4FF6F8773940FB
:103DB00021434FF6FC473A4040F201173A434FF691
:103DC000DD773B404FF6FF7707EA06172F433B436B
:103DD000018102830384F0BD0A460021018B4FF666
:103DE0008F7319401143018370470A460021018BEC
:103DF00048F6FF7319404FF6FF7303EA0223194395
:103E0000018370470A460021818B4FF68F7319405A
:103E10001143818370470A460021818B48F6FF7366
:103E200019404FF6FF7303EA022319438183704759
:103E300021B1028842F08002028004E002884FF63D
:103E40007F731A400280704721B1828842F00402D9
:103E5000828004E082884FF6FB731A4082807047AC
:103E600021B1828842F00802828004E082884FF605
:103E7000F7731A408280704721B1828842F00102B4
:103E8000828004E082884FF6FE731A408280704779
:103E90000A460021018B4FF6F77319401143018345
:103EA00070470A460021018B4FF2FF7319404FF60D
:103EB000FF7303EA02231943018370470A46002176
:103EC000818B4FF6F77319401143818370470A467F
:103ED0000021818B4FF2FF7319404FF6FF7303EA05
:103EE00002231943818370470A460021018B4FF654
:103EF000FB7319401143018370470A460021018B6F
:103F00004FF6FF3319404FF6FF7303EA02231943BC
:103F1000018370470A460021818B4FF6FB731940DD
:103F20001143818370470A460021818B4FF6FF338E
:103F300019404FF6FF7303EA022319438183704748
:103F40000A460021018B4FF67F731940114301830C
:103F500070470A460021018BC1F30E014FF6FF7333
:103F600003EA02231943018370470A460021818B2B
:103F70004FF67F7319401143818370470A46002131
:103F8000818BC1F30E014FF6FF7303EA022319433D
:103F9000818370470A460021018C4FF6FD7319405A
:103FA0001143018470470A460021018C4FF6F773D4
:103FB00019401143018470470A460021018C4FF6D5
:103FC000DF7319404FF6FF7303EA021319430184AC
:103FD00070470A460021018C4FF67F7319404FF657
:103FE000FF7303EA02131943018470470A46002154
:103FF000018C4FF6FF5319404FF6FF7303EA02237B
:104000001943018470470A460021018C4FF2FF7367
:1040100019404FF6FF7303EA0223194301847047E6
:104020000A460021018C4DF6FF7319404FF6FF73CD
:1040300003EA023319430184704730B50023012499
:104040008C40A3B2048C9C430484048C02FA01F5D6
:10405000ADB22C43048430BD30B5002304248C4021
:10406000A3B2048C9C430484048C02FA01F5ADB223
:104070002C43048430BD70B503460020002418464C
:10408000183001258D40ACB21D8CA5431D8409B1AB
:10409000082909D100EB6100056825F0700505606D
:1040A0000568154305600EE00D1FC5F34E05284455
:1040B000056825F4E045056005684FF6FF7606EAD9
:1040C00002263543056070BD21B1028842F002022C
:1040D000028004E002884FF6FD731A4002807047A8
:1040E00021B1028842F00402028004E002884FF607
:1040F000FB731A400280704721B1828842F080022F
:10410000828004E082884FF67F731A408280704775
:1041100002884FF6F7731A40028002880A43028031
:10412000704782884FF68F731A40828082880A43D4
:104130008280704702894FF6F8731A400281028923
:104140000A430281704702894FF67F731A40028149
:1041500002890A43028170478184704781857047D4
:10416000818670470187704781877047A0F84010AB
:10417000704702884FF6FF431A40028002880A43C4
:10418000028070470146888E70470146088F70474D
:104190000146888F70470146B1F8400070470146DC
:1041A000888C70470146088D704702460020138AAC
:1041B0000B400BB1012000E000207047CA4302828F
:1041C000704730B50246002000230024158A05EA16
:1041D0000103958905EA010413B10CB1012000E047
:1041E000002030BDCA430282704700000146002013
:1041F000FE4A106800F03800084310607047FB4921
:10420000096821F00801F94A116011460968014363
:1042100011607047F549096821F01001F34A1160F7
:1042200011460968014311607047F148EF49486041
:10423000F04848607047EE48EC494860ED484860F7
:104240007047EA48006940F08000E849086170471B
:10425000E648006940F08000E449086170470420A6
:10426000E249C96801F0010109B101200EE0DF490E
:10427000C96801F0040109B1022007E0DB49C968FF
:1042800001F0100109B1032000E00420704700B5DF
:1042900002460423FFF7E3FF034603E0FFF7DFFFD7
:1042A0000346521E012B01D1002AF7D102B9052382
:1042B000184600BD30B5044604254FF43020FFF702
:1042C000E6FF0546042D17D1C848006940F00200FA
:1042D000C649086108464461006940F04000086131
:1042E0004FF43020FFF7D3FF0546C048006941F680
:1042F000FD710840BD490861284630BD10B5042451
:104300004FF43020FFF7C3FF0446042C16D1B74802
:10431000006940F00400B54908610846006940F0B2
:10432000400008614FF43020FFF7B1FF0446AF486A
:10433000006941F6FB710840AC490861204610BD98
:1043400000B502460423FFF78AFF034603E0FFF7A8
:1043500086FF0346521E012B01D1002AF7D102B974
:104360000523184600BD10B504244FF43020FFF794
:10437000E7FF0446042C16D19C48006940F0040075
:104380009A4908610846006940F0400008614FF40E
:104390003020FFF7D5FF04469448006941F6FB71D1
:1043A000084092490861204610BD00208F49C96924
:1043B00001F0020109B1012000E00020704730B592
:1043C000A5250424FFF7F1FF00B100254FF43020AC
:1043D000FFF75DFF0446042C3AD185488349886085
:1043E000844888600846006940F02000086108465B
:1043F000006940F0400008614FF43020FFF747FFAC
:104400000446042C1BD17948006941F6DF7108404D
:10441000764908610846006940F010000861764856
:104420000580E002FFF733FF0446052C10D06F48EB
:10443000006941F6EF7108406C49086108E0052CFD
:1044400006D06A48006941F6EF7108406749086183
:10445000204630BD78B506460C4604250020009065
:10446000E802FFF714FF0546042D24D15F480069D8
:1044700040F001005D4908613480E802FFF707FF62
:104480000546042D10D1B01C0090200C0099088026
:10449000E802FFF7FCFE05465448006941F6FE714C
:1044A00008405249086106E05048006941F6FE7133
:1044B00008404E490861284678BD70B504460D464F
:1044C0000426F002FFF7E3FE0646042E11D147480A
:1044D000006940F00100454908612580F002FFF7BE
:1044E000D6FE06464148006941F6FE7108403F4944
:1044F0000861304670BD70B505460E460424E002E2
:10450000FFF7C5FE0446042C17D1394837498860A7
:10451000384888600846006940F0100008612E8025
:10452000E002FFF7B4FE0446052C06D02F480069D0
:1045300041F6EF7108402D490861204670BD2DE914
:10454000F04304464FF6FF763746B046B1460425A1
:10455000E443E6B2C4F30727C4F307484FEA1469FB
:10456000E802FFF794FE0546042D49D120481F4973
:104570008860204888600846006940F010000861A3
:10458000FF2E06D01C4808300680E802FFF77FFEA9
:104590000546042D08D1FF2F06D017480A300780A2
:1045A000E802FFF774FE0546042D0AD1B8F1FF0FAB
:1045B00007D011480C30A0F80080E802FFF767FE32
:1045C0000546042D0AD1B9F1FF0F07D00A480E3075
:1045D000A0F80090E802FFF75AFE0546052D0FD01F
:1045E0000248006941F6EF71084007E000200240F0
:1045F00023016745AB89EFCD00F8FF1F66490861CD
:104600002846BDE8F08330B5054604244FF4302039
:10461000FFF73DFE0446042C41D160485E498860A6
:104620005F4888600846006940F02000086108463D
:10463000006940F0400008614FF43020FFF727FE8A
:104640000446042C22D15448006941F6DF71084029
:10465000514908610846006940F0100008611DB129
:1046600000205049088002E0A5204E4908804FF400
:104670003020FFF70CFE0446052C10D04648006998
:1046800041F6EF7108404449086108E0052C06D066
:104690004148006941F6DF7108403F490861204602
:1046A00030BDF0B505460E46174604243B483A494E
:1046B00088603B488860E002FFF7E9FD0446042C6F
:1046C00019D13548006940F010003349086147F0BE
:1046D000F800304328433349891C0880E002FFF783
:1046E000D6FD0446052C06D02B48006941F6EF7133
:1046F0000840294908612046F0BD2748C069800864
:1047000070472548006A704700202349096801F076
:10471000200109B1012000E00020704729B11E4AA4
:10472000126902431C4B1A6104E01B4A126982435E
:10473000194B1A61704701460020012908D1164A19
:10474000D26902F001020AB1012008E0002006E06F
:10475000114AD2680A400AB1012000E000207047E7
:104760000D49C860704704200B49C96801F0010178
:1047700009B101200EE00849C96801F0040109B13E
:10478000022007E00449C96801F0100109B10320C3
:1047900000E004207047000000200240230167452C
:1047A000AB89EFCD00F8FF1F704700000FB404493C
:1047B00010B503AA029800F05DF910BC5DF814FB77
:1047C000740200202DE9F0410E46044600202062CC
:1047D0002046E168884730B3252805D0D4E9012177
:1047E0009047206A401CF2E7E1682046002788478E
:1047F000050018D0A5F14100192802D820354FF442
:1048000000673246294620462760FBF7EBFC40B1A3
:10481000012804D0F61D26F007060836D8E7361D15
:10482000D6E72846DAE7206ABDE8F0812DE9F041B5
:104830000646002410687529314616A510D0AFF33E
:104840000080002802DA404213A507E031688A0799
:1048500001D512A502E0490704D511A5012401E004
:10486000AFF3008000210A2206F1240709E0B0FB23
:10487000F2FCB0FBF2F302FB1C0030307854184617
:10488000491C0028F3D123462A463046BDE8F041B2
:1048900000F096B8000000002D0000002B00000082
:1048A000200000004FF000020429C0F0128010F038
:1048B000030C00F01B80CCF1040CBCF1020F18BFFC
:1048C00000F8012BA8BF20F8022BA1EB0C0100F08F
:1048D0000DB85FEAC17C24BF00F8012B00F8012B62
:1048E00048BF00F8012B70474FF0000200B5134697
:1048F00094469646203922BFA0E80C50A0E80C5000
:10490000B1F12001BFF4F7AF090728BFA0E80C50B0
:1049100048BF0CC05DF804EB890028BF40F8042BA9
:1049200008BF704748BF20F8022B11F0804F18BF16
:1049300000F8012B704700004FF0013C50F8042BA9
:1049400051F8043B9A4221D1A2EB0C03934313EAA2
:10495000CC1317D150F8042B51F8043B9A4215D1CF
:10496000A2EB0C03934313EACC130BD150F8042BA6
:1049700051F8043B9A4209D1A2EB0C03934313EA8A
:10498000CC13DBD04FF00000704700BFD01A01BA43
:10499000B1FA81F101F0180122FA01F0CB40C1F126
:1049A0002001DBB2C0B2C01A2CFA01F3D11A914334
:1049B00011EAC311E6D170477047704770477047DE
:1049C0002DE9F0470D4699469246044600F1240829
:1049D0000168880604D5E06921F01001216000E03B
:1049E0000120A84201DD471B00E00027A1697A19D8
:1049F00002EB0900081AA0612078C00602D4204604
:104A0000AFF30080002608E0D4E901211AF806007F
:104A10009047206A401C761C20624E45F4DB2078CB
:104A2000C0060AD52046AFF3008006E0D4E9012194
:104A300030209047206A401C2062381EA7F10107F1
:104A4000F4DC07E0D4E9012118F805009047206A5A
:104A5000401C2062281EA5F10105F3DC2046AFF3BF
:104A600000802078000602D50220BDE8F0870120F2
:104A7000FBE70000074B70B50D467B4400F011F8D2
:104A80000446284600F020F810B14FF0FF3070BD0A
:104A9000204670BD8DDBFFFF01694A1C026108786A
:104AA000704700B58FB0CDE901310021059105496E
:104AB0007944CDE9031011466846FFF783FE0FB035
:104AC00000BD0000E5FFFFFF007B00F080007047A5
:104AD000754600F029F8AE4605006946534620F0B9
:104AE0000700854618B020B5FDF76EFEBDE82040F2
:104AF0004FF000064FF000074FF000084FF0000B9A
:104B000021F00701AC46ACE8C009ACE8C009ACE84C
:104B1000C009ACE8C0098D4670470446AFF3008079
:104B20002046FBF771FB000000487047901F0020F3
:104B3000504B000800000020900200006C010008AB
:104B40009C4C00089002002060230000C80100086F
:104B50009184A24A0400093D0102030406070809E2
:104B60001BC201497953112808C1814001C080410D
:104B700004690C2908E918A91C091A300916380912
:104B80003660092E70092F6000FF00C0C101C30309
:104B900002C2C60607C705C5C404CC0C0DCD0FCF95
:104BA000CE0E0ACACB0BC90908C8D81819D91BDB05
:104BB000DA1A1EDEDF1FDD1D1CDC14D4D515D71755
:104BC00016D6D21213D311D1D010F03031F133F305
:104BD000F23236F6F737F53534F43CFCFD3DFF3F55
:104BE0003EFEFA3A3BFB39F9F83828E8E929EB2B85
:104BF0002AEAEE2E2FEF2DEDEC2CE42425E527E715
:104C0000E62622E2E323E12120E0A06061A163A384
:104C1000A26266A6A767A56564A46CACAD6DAF6F14
:104C20006EAEAA6A6BAB69A9A86878B8B979BB7B84
:104C30007ABABE7E7FBF7DBDBC7CB47475B577B7D4
:104C4000B67672B2B373B17170B050909151935304
:104C5000529296565797559594549C5C5D9D5F9FD4
:104C60009E5E5A9A9B5B99595898884849894B8B04
:104C70008A4A4E8E8F4F8D4D4C8C44848545874794
:104C80004686824243834181800217402D01020300
:0C4C9000040420090607080902040608B5
:0400000508000131BD
:00000001FF
